:020000040800F2
:2000000008100020311900084D1900085119000855190008591900085D1900080000000008
:20002000000000000000000000000000611900086519000800000000691900086D190008A0
:200040009B0C00089D0C00089F0C0008A10C0008A30C0008A50C0008A70C0008A90C0008F0
:20006000AB0C0008AD0C0008AF0C0008B10C0008B30C0008B50C0008B70C0008B90C000850
:20008000BB0C0008BD0C0008BF0C00087119000875190008791900087D190008C10C0008B8
:2000A000811900088519000889190008C30C0008C50C0008C70C0008C90C0008CB0C000807
:2000C000CD0C0008CF0C0008D10C0008D30C00088D190008D50C0008D70C0008D90C000821
:2000E000DB0C0008DD0C0008DF0C0008911900089519000899190008E10C0008E30C00081F
:200100009D190008E50C0008E70C0008A1190008E90C0008EB0C0008A5190008A9190008DF
:20012000ED0C0008EF0C0008F10C0008F30C0008AD190008B1190008B5190008B91900085F
:2001400000000000000000000000000000000000BD190008C1190008C5190008C91900080F
:20016000CD190008D1190008D5190008D9190008DD190008E1190008E519000810B50400E0
:20018000DFF8F005844208D10121042000F039FB0021042000F035FB32E0DFF8DC05844295
:2001A00008D10121082000F02CFB0021082000F028FB25E0DFF8C405844208D10121102013
:2001C00000F01FFB0021102000F01BFB18E0DFF8B005844208D10121202000F012FB00211B
:2001E000202000F00EFB0BE0DFF89805844207D10121402000F005FB0021402000F001FBEA
:2002000010BDF0B500270022002300240025002691F803C01CF00F0C674691F803C05FEADC
:20022000CC6C03D591F802C05CEA070791F800C05FEA0C6C3AD0D0F800C065465FF0000C6D
:200240006346082B31D25FF0010C1CFA03FC6446B1F800C014EA0C0C6246A24223D15FEA5C
:20026000830C64465FF00F0C1CFA04FC6646B54317FA04FC5CEA050591F803C0BCF1280F90
:2002800006D15FF0010C1CFA03FCC0F814C00AE091F803C0BCF1480F05D15FF0010C1CFA08
:2002A00003FCC0F810C05B1CCBE70560B1F800C0BCF1FF0F3FDDD0F804C065465FF0000C57
:2002C0006346082B36D25FF0010C13F1080E1CFA0EFC6446B1F800C014EA0C0C6246A242EF
:2002E00026D15FEA830C64465FF00F0C1CFA04FC6646B54317FA04FC5CEA050591F803C0B4
:20030000BCF1280F07D15FF0010C13F1080E1CFA0EFCC0F814C091F803C0BCF1480F07D1D7
:200320005FF0010C13F1080E1CFA0EFCC0F810C05B1CC6E74560F0BD89B20161704789B29A
:2003400041617047F0B4B0F1004F40F29A800023002420F000473E00F7093B0016F07F06C2
:2003600037093C0016F00F06052B06D02700FFB2BF0016FA07F73A0005E06708FFB2BF003D
:2003800016FA07F73A00002B08D0022B0ED009D3042B13D00ED3052B14D017E0DFF8E873FB
:2003A0003D0013E0DFF8E4733D000FE0DFF8E0733D000BE0DFF8DC733D0007E0DFF8D873F5
:2003C0003D0003E0DFF8D4733D00FFE7002C0BD1052B04D12F68BF08BF002F6049E02F6843
:2003E0003F093F012F6044E0012C0BD1052B04D12F6837F00C072F603BE02F6837F0F00784
:200400002F6036E0022C0BD1052B04D12F6837F030072F602DE02F6837F470672F6028E067
:20042000032C0BD1052B04D12F6837F0C0072F601FE02F6837F470472F601AE0042C04D192
:200440002F6837F470272F6013E0052C04D12F6837F470072F600CE0062C04D12F6837F042
:2004600070672F6005E0072C03D12F6827F070472F60C9B2012940F07B812F683A432A60C7
:2004800076E10200012A63D0022A53D0042A51D0082A4FD0102A7BD0302A00F08980402A74
:2004A00000F09680C02A00F0A380B2F5807F00F0AF80B2F5007F00F0BB80B2F5407F00F0CD
:2004C000C780B2F5006F00F0D380B2F5406F00F0DF80B2F5805F2DD0B2F5804F00F0E88086
:2004E000B2F5C04F00F0F480B2F5004F22D0B2F5803F1FD0B2F5003F1CD0B2F5802F19D094
:20050000B2F5002F16D0B2F5801F13D0B2F5001F00F01E81B2F1807F00F0EA80B2F1007F83
:2005200000F0F680B2F1806F00F00281B2F1004F1ED01DE19A4A12688243994B1A60C9B276
:20054000012904D1964A12680243954B1A600FE1934A1268934B1A40914B1A60C9B2012929
:2005600005D18F4A126852F001028D4B1A60FFE08B4A12688B4B1A40894B1A60C9B201296A
:2005800005D1874A126852F00042854B1A60EFE0834A126832F03002814B1A60C9B2012917
:2005A00005D17F4A126852F010027D4B1A60DFE07B4A126832F03002794B1A60C9B2012957
:2005C00005D1774A126852F03002754B1A60CFE0734A126832F0C002714B1A60C9B20129B7
:2005E00005D16F4A126852F040026D4B1A60BFE06B4A126832F0C002694B1A60C9B20129B7
:2006000005D1674A126852F0C002654B1A60AFE0634A126832F44072614B1A60C9B2012952
:2006200005D15F4A126852F480725D4B1A609FE05B4A126832F44072594B1A60C9B201292E
:2006400005D1574A126852F40072554B1A608FE0534A126832F44072514B1A60C9B20129BE
:2006600005D14F4A126852F440724D4B1A607FE04B4A126832F44062494B1A60C9B201299E
:2006800005D1474A126852F40062454B1A606FE0434A126832F44062414B1A60C9B20129FE
:2006A00005D13F4A126852F440623D4B1A605FE03B4A126832F4C042394B1A60C9B201296E
:2006C00005D1374A126852F48042354B1A604FE0334A126832F4C042314B1A60C9B201295E
:2006E00005D12F4A126852F4C0422D4B1A603FE02B4A126832F0E062294B1A60C9B20129F2
:2007000005D1274A126852F08072254B1A602FE0234A126832F0E062214B1A60C9B2012915
:2007200005D11F4A126852F000721D4B1A601FE01B4A126832F0E062194B1A60C9B20129A5
:2007400005D1174A126852F08062154B1A600FE0134A126832F40012114B1A60C9B2012971
:2007600005D10F4A126852F400120D4B1A60FFE7F0BC704700080140000C01400010014076
:2007800000140140001801402000014024000140280001402C000140300001403400014029
:2007A00004000140FEFFFF7FC9B2002905D01C4A126802431A4B1A6004E0194A1268824376
:2007C000174B1A607047C9B2002905D0154A12680243144B1A6004E0124A12688243114B3B
:2007E0001A607047C9B2002905D00F4A126802430D4B1A6004E00C4A126882430A4B1A601D
:200800007047C9B2002905D0084A12680243074B1A6004E0054A12688243044B1A607047D9
:2008200014100240181002401C1002400C10024082B000210191019981420CD2002100914A
:200840000099142903D20099491C0091F8E70199491C0191EFE702B0704700B587B04FF480
:200860008050ADF8000010208DF8030002208DF802006946DFF8E802FFF7C3FC4FF4805169
:20088000DFF8DC02FFF758FD4FF46040ADF8000002208DF8020018208DF803006946DFF8E1
:2008A000C002FFF7AEFC0020ADF804004FF48270ADF806000020ADF808000020ADF80A0091
:2008C0000020ADF80C004FF40070ADF80E000020ADF810000020ADF812000720ADF8140055
:2008E00001A9DFF8800200F08BF90121DFF8740200F0B5F907B000BD10B504000221DFF83D
:20090000640200F0BEF90028F8D0E4B2210089B2DFF8500200F0B1F90121DFF8480200F0F2
:20092000B0F90028F8D00520FFF782FFDFF8340200F0A5F9C0B210BD70B504000D0016005C
:200940004FF48050884908600B20FFF7D5FF280CC0B2FFF7D1FF280AC0B2FFF7CDFF28005C
:20096000C0B2FFF7C9FFA520FFF7C6FF3000461E80B2002805D0A520FFF7BEFF2070641C7C
:20098000F4E74FF480507949086070BD10B504004FF48050744908600620FFF7ADFF4FF406
:2009A0008050724908604FF480506F4908602020FFF7A2FF200CC0B2FFF79EFF200AC0B26D
:2009C000FFF79AFF2000C0B2FFF796FF4FF480506649086000F002F8002010BD80B5002015
:2009E0008DF800004FF480505F4908600520FFF783FFA520FFF780FF8DF8000000F016FBF2
:200A00009DF80000C007F4D44FF480505749086001BD2DE9F04704000D001600002081467E
:200A2000280642D0D5F5807000F0FF0080463000414680B289B2884203D2B2460120814664
:200A400000E0C2464FF48050474908600620FFF753FF4FF480504549086000F0E7FA4FF418
:200A60008050414908600220FFF746FF280CC0B2FFF742FF280AC0B2FFF73EFF2800C0B209
:200A8000FFF73AFF5046B0F1010A80B2002806D02078FFF731FF641C761E6D1CF2E74FF43E
:200AA000805032490860FFF799FF1FFA89F9B9F1000F52D1300080B2000A8046300601D045
:200AC00018F10108002007003800414680B289B2884242D2280502D12800FFF757FFB6B2F7
:200AE000B6F5807F03DD4FF48070824600E0B2464FF480501C4908600620FFF7FDFE4FF45F
:200B000080501A49086000F091FA4FF48050164908600220FFF7F0FE280CC0B2FFF7ECFE59
:200B2000280AC0B2FFF7E8FE2800C0B2FFF7E4FE5046B0F1010A80B2002806D02078FFF7C3
:200B4000DBFE641C761E6D1CF2E74FF4805007490860FFF743FF7F1CB6E7BDE8F0870000EF
:200B6000000C014000380040140C0140100C014010B5C2B00400200501D001203EE0200062
:200B8000FFF704FF002000900098FF2807D80098009901AA11540098401C0090F4E74FF42B
:200BA0008072210001A8FFF734FF002000900098FF2807D8002001A9009A88540098401CCE
:200BC0000090F4E74FF48072210001A8FFF7B4FE002000900098FF2809D8009801A9085C0D
:200BE0000099884203D10098401C0090F2E70098B0F5807F01D1002000E0012042B010BD73
:200C000010B4002203881A0012F441528B891B0404D5838853F48073838004E083884FF628
:200C2000FF64234083800B884C8823438C882343CC8823430C8923434C8923438C89640437
:200C4000640C2343CC8923431A430280838B4FF2FF74234083830B8A038210BC7047C9B2E1
:200C6000002904D0028852F04002028004E002884FF6BF731A4002807047818170478089AD
:200C800070470200002013890B4202D00123180001E000231800C0B270477047704770471A
:200CA0007047704770477047704770477047704770477047704770477047704770477047C4
:200CC0007047704770477047704770477047704770477047704770477047704770477047A4
:200CE00070477047704770477047704770477047704770472DE9F04782B004000D00260018
:200D0000AF0801214020FFF74FFD00F093F900208046B84528D216F828008DF8000006EB53
:200D2000880040788DF8010006EB880080788DF8020006EB8800C0788DF803009DF8000027
:200D40009DF80110090451EA00609DF8021050EA01209DF8031008438146484600F06EF9A4
:200D6000824618F10108D4E700214020FFF71CFD5046BDE8F68710B582B004000020ADF8D6
:200D80000000BDF80000210089B2884209D24FF47A7000F007F8BDF80000401CADF80000CB
:200DA000EFE713BD81B00021ADF80210BDF80210020092B2914212D200218DF800109DF875
:200DC0000010152905DA9DF80010491C8DF80010F5E7BDF80210491CADF80210E6E701B00A
:200DE000704780B5AB206949088064206749488055206649888000206449C88000206349F9
:200E0000088100206149488100206049888200205E49C86000205D49086100F05CF801BDC3
:200E20002DE9F041B4B000275848804658480500584800880600320092B2290001A8FFF769
:200E40007BFD9DF80400AB2803D0FFF7CAFF00203EE0B11E89B201A800F0A0F8040020007F
:200E600001A9B6B2314411F8021CC0B288420AD1200080B2000A01A9B6B2314411F8011CA4
:200E8000C0B2884201D001200700FFB2002F1DD100208DF800009DF80000310080B289B277
:200EA00088420DD201A89DF80010405C88F8000018F101089DF80000401C8DF80000EAE7C6
:200EC0003548324991EC060B80EC060B3800C0B234B0BDE8F0812DE9F043B3B000242B4828
:200EE00005002B4807002B4800888046B8F1020189B2280000F052F881461FFA88F805EB19
:200F0000080000F8029C484680B2000A1FFA88F805EB080101F8010C424692B239002800A4
:200F2000FFF777FD424692B239006846FFF704FDB8F1020189B2684600F030F806003000BA
:200F400069461FFA88F8414411F8021CC0B288420BD1300080B2000A69461FFA88F841444C
:200F600011F8011CC0B2884201D001200400E4B2002C05D10848054991EC060B80EC060BD8
:200F80002000C0B233B0BDE8F08300002018002000D077000000002008180020F8B5040014
:200FA0000D000027002006003000290080B289B288420BD23A0092B24AF20101B6B2A05D49
:200FC00080B200F006F80700761CEDE7380080B2F2BD10B4030010005B0000242200D2B26F
:200FE000082A0FDA9BB25B089BB280B290EA0304E40703D580B291EA500001E080B240080B
:20100000521CECE780B210BC704780B545F2555000F01EF8042000F01FF84FF4487000F0AD
:201020001FF800F021F800F024F801BD80B500F01BF801BD012004490860704701000348F7
:201040000160024800687047083002400030024080B20A4908607047C0B209490860704753
:2010600080B20849086070474AF6AA200349086070474CF6CC400149086070470030004032
:201080000430004008300040DFF82802DFF828120860DFF82802DFF820120860704738B5D4
:2010A00004000425B4F1046F2BD35FF0FF3000F0EAF80500EDB2042D20D1DFF8080200688E
:2010C00050F00200DFF8FC110860DFF8FC010460DFF8F001006850F04000DFF8E811086062
:2010E0005FF0FF3000F0CFF80500DFF8D801006841F6FD710840DFF8CC1108602800C0B2FB
:201100002AE05FF0805000F0A7F80500EDB2042D20D1DFF8AC01006850F00200DFF8A0119B
:201120000860DFF8A8010460DFF89401006850F04000DFF88C1108605FF0805000F08CF8A0
:201140000500DFF87C01006841F6FD710840DFF8701108602800C0B232BD70B504000D0062
:201160000426B4F1046F21D35FF4002000F08BF80600F6B2042E16D1DFF84801006850F0C4
:201180000100DFF84011086025805FF4002000F07AF80600DFF82C01006841F6FE710840E4
:2011A000DFF8201108603000C0B220E04FF4704000F052F80600F6B2042E16D1DFF8000151
:2011C000006850F00100DFF8F810086025804FF4704000F041F80600DFF8E400006841F6FE
:2011E000FE710840DFF8D81008603000C0B270BD042038490968C90702D5012108000FE06C
:2012000034490968490702D50221080008E031490968C90602D50321080001E004210800DB
:20122000C0B2704704202A490968C90702D5012108000FE026490968490702D5022108008B
:2012400008E023490968C90602D50321080001E004210800C0B2704738B504000425FFF7B0
:20126000C7FF0500EDB2012D06D1002C04D0FFF7BFFF0500641EF5E7002C01D105200500C0
:201280002800C0B232BD38B504000425FFF7CAFF0500EDB2012D06D1002C04D0FFF7C2FF8C
:2012A0000500641EF5E7002C01D1052005002800C0B232BD2301674504200240AB89EFCDF4
:2012C000102002409020024094200240142002408C2002400C20024038B5644800680400DD
:2012E00063482040B0F1005F08D162480068040025005E48006880F30888A84731BD2DE9CB
:20130000F84304000D001700FFF7BEFE600502D12000FFF7C4FEFFF789FEBFB2781C4710CF
:20132000002006003000390080B289B2884217D25FF00208E94642462900484600F09EF8B1
:20134000BDF800102000FFF708FF2088BDF80010884201D0012004E0AD1CA41C761CE1E7BB
:201360000020BDE8F2832DE9F04104005FF00308E00A060000200500B5422BD24FF40062E0
:201380004FF4006000FB05F010F5F0013A48FFF7D3FA002080465FFA88F8B8F1030F10DA1B
:2013A000FFF744FE4FF4006233494FF400602F4B00FB0530FFF7A3FF002802D018F10108E3
:2013C000E9E75FFA88F8B8F1030F01D100204AE06D1CD1E76005400D0600600529D0320004
:2013E00092B24FF4006000FB05F010F5F0012248FFF7A2FA002080465FFA88F8B8F1030FAA
:2014000010DAFFF713FE320092B21B494FF40060164B00FB0530FFF772FF002802D018F163
:201420000108E9E75FFA88F8B8F1030F01D1002019E00020070000200500A54211D23A0004
:2014400092B24AF2010105F1006010F580400078C0B280B2FFF7BDFD0700FFF7E7FD6D1CB9
:20146000EBE7380080B2BDE8F0810000004000080000FF2F044000080810002062B38B0779
:2014800008D0521E11F8013B00F8013B00F024808B07F6D1830740F0208000BF103A07D361
:2014A00030B4B1E83810103AA0E83810F9D230BC530724BFB1E80810A0E8081044BF51F8BC
:2014C000043B40F8043BD20724BF31F8022B20F8022B44BF0B7803707047083A07D3B1E89A
:2014E0000810083A40F8043B40F804CBF7D25307E4E7000070B50025002672B600F06FF837
:2015000001215FF00070FEF71DFF00F09BF8FFF7A4F96420FFF72FFC5548FFF729FB040063
:20152000FFF77EFC00F083F852488088552805D15048808A002801D1FFF7CEFE4D488088E0
:20154000AA2822D14B48808A55281ED162B6FFF75CFD80214848FEF7F2FE4648C068FFF794
:2015600002FF4449498980B2884202D1552043498880002041498882FFF7ADFC80213E48B9
:20158000FEF7DAFEFFF752FDFEE73D493D48FFF7B1FB06003C4800680500AE420BD1002EB6
:2015A00009D016F1010F06D0002D04D015F1010F01D0FFF791FE62B6FFF727FDFFF736FD9D
:2015C00080212D48FEF7BBFE6420FFF7D4FB80212948FEF7B1FE6420FFF7CDFBEEE780B5FC
:2015E00001210120FFF7FEF801214FF48050FFF7EAF801214FF48040FFF7F4F80121042062
:20160000FFF7E1F801210820FFF7DDF801211020FFF7D9F801212020FFF7D5F80121402026
:20162000FFF7D1F801210120FFF7CDF801BD80B500215FF0006000F02EF84FF4A06000F0E1
:2016400025F801BD80B50C48FEF798FD8020ADF8000010208DF8030002208DF80200694647
:201660000548FEF7CEFD80210348FEF765FE01BD00C0770008180020001801402018002033
:20168000FCBF030000400008FCFF030805490143054A11607047054A0A400243044B1A608E
:2016A000704700000000FA050CED00E080FFFF1F08ED00E080B54E48006850F470004C49AD
:2016C00008604C48006850F001004A4908604A480068002048490860464800684749084089
:2016E000444908604348006830F48020414908605FF41F004249086000F005F85FF000604B
:201700004049086001BD80B500F001F801BD82B000200190002000903648006850F48030D1
:20172000344908603348006810F4003000900198401C01900098002803D10198B0F5A06FB6
:20174000F0D12C480068800302D50120009001E0002000900098012847D12B48006850F05C
:201760001000294908602848006880088000264908602548006850F00200234908601E4877
:2017800000681D4908601C4800681B4908601A48006850F4806018490860174800681B4999
:2017A0000840154908601448006850F4E810124908601048006850F080700E4908600D4854
:2017C00000688001FBD50C480068800880000A4908600948006850F00200074908600648D0
:2017E000006810F00C000828F9D102B07047000088ED00E00010024004100240FFFFF6FE23
:201800000810024008ED00E000200240FFFFC09F19E050F8041BCB0744BFA9F10103591896
:20182000121F0023042A41F8043BF9D25FEA827C0B4604D54FF0000CA1F800C09B1CD1073F
:2018400044BF0021197050F8042B002AE1D1704710B450F8041B79B10268436802440830E9
:20186000DC0744BFA9F10104E31852F8044B43F8044B091FF9D1ECE710BC704710B5074968
:2018800079441831064C7C44163404E00A68081D114488470146A142F8D110BD2C0000005B
:2018A0004C0000004EF68851CEF20001086840F470000860BFF34F8FBFF36F8F4FF0007093
:2018C000E1EE100A7047000049FFFFFF30080000081000200000000079FFFFFF0400000038
:2018E00008010000000000200000000000F00BF8002801D0FFF7C2FF0020AFF30080FFF7E4
:20190000F9FD00F002F80120704700F001B800000746384600F002F8FBE7000080B5AFF3F8
:201920000080024A11001820ABBEFBE7260002000148804701480047B5160008411900084A
:20194000AFF30080FFF7AEFFFFF7D0FFFFF7FEBFFFF7FEBFFFF7FEBFFFF7FEBFFFF7FEBF7E
:20196000FFF7FEBFFFF7FEBFFFF7FEBFFFF7FEBFFFF7FEBFFFF7FEBFFFF7FEBFFFF7FEBFCF
:20198000FFF7FEBFFFF7FEBFFFF7FEBFFFF7FEBFFFF7FEBFFFF7FEBFFFF7FEBFFFF7FEBFAF
:2019A000FFF7FEBFFFF7FEBFFFF7FEBFFFF7FEBFFFF7FEBFFFF7FEBFFFF7FEBFFFF7FEBF8F
:2019C000FFF7FEBFFFF7FEBFFFF7FEBFFFF7FEBFFFF7FEBFFFF7FEBFFFF7FEBFFFF7FEBF6F
:0C19E000FFF7FEBFFFF7FEBF180000007D
:20400000681100207DDF010875E2010879E201087DE2010881E2010885E20108000000009A
:2040200000000000000000000000000089E201088DE201080000000091E2010895E2010898
:2040400065C6010867C6010869C601086BC601088FC6010891C6010893C6010895C6010800
:2040600097C6010899C601089BC601089DC601089FC60108A1C60108A3C60108CFC60108AE
:20408000D1C60108D3C60108D5C6010899E201089DE20108A1E20108A5E20108D7C601086C
:2040A000A9E20108ADE20108B1E20108D9C60108DBC60108FBC6010817C7010819C701084C
:2040C0001BC701081DC701081FC7010821C70108B5E2010823C701086DC70108B7C70108D1
:2040E0004BC801084DC801084FC80108B9E20108BDE20108C1E2010851C8010853C8010828
:20410000C5E2010855C8010857C80108C9E2010859C80108A3C80108CDE20108D1E20108DB
:2041200029C901082BC901082DC901082FC90108D5E20108D9E20108DDE20108E1E201086F
:2041400000000000000000000000000000000000E5E20108E9E20108EDE20108F1E2010807
:20416000F5E20108F9E20108FDE2010801E3010801C8010805E3010809E301085A21DFF89C
:20418000F82982F82F1000210800C0B209281ADA0021DFF8E429C0B2024451700021DFF80F
:2041A000D829C0B2024491720021DFF8CC29C0B20244D1740021DFF8C029C0B202EB4002D7
:2041C0009183401CE1E70021DFF8AC2911700021DFF8A42982F82E10704738B5DFF89C09BC
:2041E0000068807A0400DFF894090068407A0500DFF88C090078002859D05A20DFF87819A7
:2042000081F82F0005F08CFADFF874090078012805D1DFF870290021022007F075FBDFF8BF
:2042200060090078402805D1DFF85C290021022007F06AFBDFF848090078102805D1DFF8DF
:204240004C290021022007F05FFBDFF834090078082805D1DFF838290021022007F054FB02
:20426000DFF81C090078802805D1DFF828290021022007F049FBDFF808090078202805D128
:20428000DFF814290021022007F03EFBDFF8F0080078022805D1DFF804290021022007F012
:2042A00033FB5A20DFF8D01881F82F0073E1DFF8CC0800680069002805D0DFF8C00800681B
:2042C0000069804730E1DFF8D8080078002800F0E4800E2006F061FE07F029FE0020DFF85A
:2042E000C41808806420DFF8C0180870DFF88C080068007A00281AD0DFF880080068807A8F
:2043000009280ADB0321DFF874080068807A40001038C0B207F0D2F809E00321DFF85C08AB
:204320000068807A4000801CC0B207F0C7F8DFF870084078012809D0102861D0402874D0F9
:2043400080282BD0812800F0858096E0DFF82C080068807A092190FBF1F201FB120000286B
:2043600004D15A20DFF8101881F82F00E4B2002C0CD1DFF808080068EDB2142101FB05F193
:2043800008441438DFF8F417086006E0DFF8EC0700681438DFF8E417086076E0DFF80C085C
:2043A000007890F00100DFF804180870E4B2EDB2681E84420CD1DFF8C4070068EDB2691E0B
:2043C0007FF0130251430844DFF8B017086006E0DFF8A80700681430DFF8A0170860DFF88E
:2043E0009C070068807A092190FBF1F201FB1200002804D15A20DFF8801781F82F0044E061
:204400005A20DFF8741781F82F00DFF8700700684068002839D0DFF8640700684068DFF860
:204420005C170860002004002FE05A20DFF8481781F82F00DFF8440700680068002824D008
:20444000DFF8380700680068DFF830170860002004001AE00020DFF8481748700020DFF8CD
:20446000401708705A20DFF8101781F82F000020DFF8041781F82E008DE00020DFF82017F9
:2044800048700020DFF8181708700020DFF8101748700020DFF808170870DFF8E00600683D
:2044A0000069002807D007F042FDDFF8D00600680069804738E0DFF8C4060068007A002856
:2044C0001ED005F02DF907F032FDDFF8B0060068807A09280ADB0321DFF8A0060068807AA5
:2044E00040001038C0B206F090FF09E00321DFF88C060068807A4000801CC0B206F085FF9D
:20450000DFF878060068007A002801D100F0CDFCDFF868060068C068002805D0DFF85C06A6
:204520000068C06800F038F8DFF87806008878280CDB0020DFF86C1608800E2006F0AAFD9B
:2045400007F0D5FB0020DFF8F0190880DFF8EC09007800281FD1DFF824060068007A0028A5
:2045600019D0DFF8DC09DFF81416086007F0BFFBFFF704FE4AF25A50DFF8C8190880DFF887
:20458000FC050068C068002805D0DFF8F0050068C06800F001F831BD38B504000020050044
:2045A000EDB20C2D0ADA62686178207807F0ACF908346068002801D06D1CF1E731BD2DE906
:2045C000F34F83B014001D000E9E109F002081465FFA89F9B9F1200F09DA0020DFF8B81A93
:2045E0005FFA89F901F8090019F10109F0E79DF83C008DF80000002083469DF800000028F7
:2046000000F0E88005208DF802009DF8000082469DF8000010F0700010281BD1EDB2680009
:204620008DF80200EDB2012D04D1DFF86C1A387808F0A2FAEDB2022D40F0EA80DFF8581AFF
:2046400038784FF480727B7802FB003080B208F05CFBDDE09DF8000010F07000202806D0F4
:204660009DF8000010F07000302840F0D1809DF8000010F0070082465FFA8AFABAF1000F61
:204680003FD13020DFF8101A5FFA8BFB01F80B001BF1010B7878C0B200098DF801009DF838
:2046A00001003030DFF8F0195FFA8BFB01F80B001BF1010B787810F00F003030DFF8D81997
:2046C0005FFA8BFB01F80B001BF1010B3878C0B200098DF801009DF801003030DFF8B81990
:2046E0005FFA8BFB01F80B001BF1010B387810F00F003030DFF8A0195FFA8BFB01F80B002D
:2047000086E0EDB25FFA8AFADAEB450A7878C0B200098DF801009DF801003030DFF8781954
:204720005FFA8BFB01F80B001BF1010B50465946C0B2C9B2884208D12E20DFF85C195FFAC6
:204740008BFB01F80B001BF1010B787810F00F003030DFF844195FFA8BFB01F80B001BF135
:20476000010B50465946C0B2C9B2884208D12E20DFF824195FFA8BFB01F80B001BF1010B0B
:204780003878C0B200098DF801009DF801003030DFF804195FFA8BFB01F80B001BF1010B83
:2047A00050465946C0B2C9B2884208D12E20DFF8E8185FFA8BFB01F80B001BF1010B387864
:2047C00010F00F003030DFF8D0185FFA8BFB01F80B001DE0EDB268008DF80200EDB2012D70
:2047E00004D1DFF8B418387808F030FAEDB2022D0ED1387879784FF48072514351FA80F09D
:20480000ADF80400DFF89018BDF8040008F0D5F9012081465FFA89F93078401C814514DA76
:204820005FFA89F916F80900DFF86C18E4B2095700B209B2884205D15FFA89F906EB090053
:20484000804602E019F10109E4E7DFF854030078002800F0D180DFF84803407801280CD0E3
:2048600008286FD0102800F09B8020283DD0402800F0A88080281BD0AEE098F800002028B8
:2048800002D1701C804601E018F1010898F90000DFF80418E4B20855DFF8FC07E4B20057C2
:2048A000202804D13020DFF8F017E4B208559BE098F80000302804D130783044401E804642
:2048C00001E0B8F1010898F90000DFF8CC17E4B20855DFF8C407E4B20057202804D130200B
:2048E000DFF8B417E4B208557EE0E4B2002C04D19DF80200401E040000E0641E00208146EC
:2049000048463178C0B2884214D25FFA89F916F80900DFF88417E4B2095700B209B28842AD
:2049200005D15FFA89F906EB0900804602E019F10109E5E7DFF86007E4B200572E2800D1F2
:20494000641E51E0E4B29DF80200401E844202D10020040000E0641C0020814648463178DE
:20496000C0B2884214D25FFA89F916F80900DFF82817E4B2095700B209B2884205D15FFAB1
:2049800089F906EB0900804602E019F10109E5E7DFF80407E4B200572E2800D1641C23E09A
:2049A0000020DFF8FC1148700020DFF8F4110870DFF8E4269DF810109DF80C0006F0A4FFF7
:2049C000A520D5E00020DFF8D81148700020DFF8D01108705A20CBE00020DFF8C4114870CC
:2049E0000020DFF8BC1108700020DFF8B41148700020DFF8AC1108709DF8000000284CD002
:204A00009DF8000010F0700010282AD1EDB2012D0DD1DFF8840690F900000A21DFF8782629
:204A200092F9012001FB00201038387084E0EDB2022D40F08180DFF8600608F01EFA4FF4CB
:204A4000807190FBF1F038707F1CDFF84C0608F014FA4FF4807190FBF1F201FB120038702F
:204A60006AE09DF8000010F07000202805D09DF8000010F0700030285ED19DF8000010F0A9
:204A8000070082465246D2B23900DFF80C0600F08FF8002850D15A206AE0EDB2012D0CD1DB
:204AA000DFF8F40540780100C9B2DFF8EC050078C0B208F025FA38703EE0EDB2022D15D1AF
:204AC000DFF8D40508F0FAF94FF4807190FBF1F201FB120038707F1CDFF8BC0508F0EEF9D1
:204AE0004FF4807190FBF1F0387025E0DFF8A80540780100C9B2DFF8A0050078C0B208F053
:204B0000FFF938707F1CDFF89005C0780100C9B2DFF884058078C0B208F0F2F938707F1C4A
:204B2000DFF8740540790100C9B2DFF86C050079C0B208F0E5F93870DFF85C259DF8101032
:204B40009DF80C0006F0E0FE0123DFF84C05E4B2005D0200D2B29DF810002118C9B29DF82D
:204B60000C00C0B24000C0B206F0F8FC2000C0B205B0BDE8F08F00009C6100202C640020E3
:204B8000E464002068DC01087CDC010890DC0108A4DC0108B8DC0108CCDC0108E0DC0108EE
:204BA0001464002074640020E0640020EF64002078B403000024D2B2042A01DB002030E07D
:204BC00000200500EDB2042D05DA00206E46EDB270556D1CF6E700200500EDB2052D0EDA85
:204BE000EDB2D2B2D2F10400854205D0187830386E46E4B23055641C5B1C6D1CEDE79DF87F
:204C0000020000019DF8036050FA86F00870491C9DF8000000019DF8016050FA86F0087038
:204C2000012072BC70472DE9FF47040004F078FDDFF8140D00785A280BD05A20DFF8081D62
:204C4000087000208DF80D009DF80D008DF80C000FE000200500EDB2022D0ADADFF8E80C66
:204C6000EDB200EB4500808B03A9EDB248556D1CF1E7E4B2032C02D0E4B2002C06D1DFF80A
:204C80002C2B0121022006F03FFE0BE0DFF8202B0021012006F038FEDFF8102B0121022075
:204CA00006F032FE03A8029010200190DFF8040B00900223DFF8900CDFF88C1C91F82E107C
:204CC0000844C27C0C210220FFF779FC0600F6B25A2E21D10020DFF8701C08705A20DFF81C
:204CE000681C81F82F000020DFF85C1CDFF8582C92F82E201144C87400200500EDB2052D5F
:204D000008DA0020DFF8401CEDB201EB450188836D1CF3E75A20C5E0F6B2A52E40F0A9802C
:204D20000020DFF8241C08705A20DFF81C1C81F82F000020DFF8101CDFF80C2C92F82E2089
:204D40001144C87400200500EDB2052D08DA0020DFF8F41BEDB201EB450188836D1CF3E7A5
:204D60009DF80C004FF480719DF80D2001FB00200700DFF8D80B407908F0FBF88146DFF87D
:204D8000CC0B007908F0F5F880461FFA89F964201FFA88F800FB0988DFF8B00B007908F0D1
:204DA000E8F88146DFF8A40B807908F0E2F882461FFA89F964201FFA8AFA00FB09AADFF8F2
:204DC000900BC0794FF48071DFF8842B127A01FB00208146E4B2002C05D13800494680B245
:204DE00089B2884208D0E4B2022C07D13800494680B289B2884201D1A52053E0E4B2012CAF
:204E000007D13800414680B289B2884201D1A52048E0E4B2032C07D13800514680B289B22C
:204E2000884201D1A5203DE0BFB2B7F57A7F01D1A52037E0BFB241F60630874201D1A520F2
:204E400030E05A20DFF8001B81F82F0004F068FCDFF8002B0321022006F056FDFFF78EF9C8
:204E6000DFF8F40A00680068DFF8EC1A08605A2018E0DFF8D40ADFF8D01A91F82E1008444D
:204E8000C67400200500EDB2022D0ADA03A8EDB2405DDFF8B41AEDB201EB450188836D1C10
:204EA000F1E7FF2004B0BDE8F08710B5DFF8AC0A0078002806D0DFF8A40A0078401EDFF831
:204EC0009C1A0870DFF8940A0078002833D10220DFF8881A087007F02AF8DFF8840A007882
:204EE000002810D10620DFF8781A0870DFF8740A007890F00100DFF86C1A08705A20DFF82E
:204F0000481A81F82F0004F00BFC00200400A4B2202C05DA00206049A4B20855641CF6E70E
:204F2000DFF8442A0021002006F0EEFC00220121012004F0B5FF10BD72640020DF640020D8
:204F400058DD0108705F002010B5DFF8100A0078002806D0DFF8040A0078401EDFF8FC1951
:204F60000870DFF8F8090078002840F093800220DFF8E8190870DFF8F4090078092190FB8B
:204F8000F1F00400DFF8E4090078092190FBF1F201FB1200002800D0641CDFF8D4090078A6
:204FA00000285CD0DFF8C809407808281BD0202802D0402830D041E0DFF88C094078002833
:204FC00007D0DFF884094078401EDFF87C19487003E0601EDFF8701948705A20DFF8681911
:204FE00081F82F0033E0DFF860094078E4B2611E884207D0DFF850094078401CDFF84819CC
:20500000487003E00020DFF8401948705A20DFF8381981F82F001AE00020DFF8541948708D
:205020000020DFF84C190870FFF7A8F8DFF8280900680068DFF8201908602BE00020DFF8B4
:20504000301948700020DFF82819087022E00020DFF81C1948700020DFF81419087004F029
:205060005FFBDFF810290221002006F04DFCDFF808290A21002006F047FCDFF80029102187
:20508000002006F041FCDFF8C00842780121002004F052FE10BD0000DC5F002070B5DFF8BA
:2050A000BC080078002806D0DFF8B0080078401EDFF8A8180870DFF8A4080078002840F0EF
:2050C000A0800220DFF894180870DFF8B4080078050000200400E4B2202C06DA0020DFF8A6
:2050E000A418E4B20855641CF5E7EDB2092095FBF0F00600EDB2092095FBF0F100FB1150D2
:20510000002800D0761CDFF86808007800285FD0DFF85C084078012808D008281DD0202896
:2051200004D0402832D0802817D041E0DFF818084078002807D0DFF810084078401EDFF8F7
:205140000818487003E0701EDFF8FC1748705A20DFF8F41781F82F0032E0DFF8EC074078CC
:20516000F6B2711E884207D0DFF8DC074078401CDFF8D417487003E00020DFF8CC1748709A
:205180005A20DFF8C41781F82F0019E00020DFF8E01748700020DFF8D8170870FEF7EEFF5C
:2051A000DFF8B40700680068DFF8AC17086028E00020DFF8BC1748700020DFF8B4170870C7
:2051C0000020DFF8AC1748700020DFF8A417087004F0A6FADFF89C270121002006F094FB3E
:2051E000DFF8C02C0821002006F08EFBDFF858074078092110FB01F2D2B20121012004F053
:205200004FFE70BDF8B504F08BFADFF89C0C0078092190FBF1F00500DFF88C0C007809214B
:2052200090FBF1F201FB1200002800D06D1CDFF84007007800285ED03C20DFF8701C08704E
:205240005A20DFF8041781F82F00DFF824074078012808D0082818D0202804D0402828D0EB
:20526000802812D037E0DFF8E0064078002807D0DFF8D4064078401EDFF8CC16487003E0FE
:20528000681EDFF8C41648702DE0DFF8BC064078EDB2691E884207D0DFF8AC064078401C5D
:2052A000DFF8A416487003E00020DFF89C16487019E00020DFF8B81648700020DFF8B0162E
:2052C0000870FEF75BFFDFF8900600680068DFF8881608607EE00020DFF894164870002016
:2052E000DFF88C1608700020DFF8841648700020DFF87C16087004F013FADFF8AC0B00786C
:20530000DFF844164978092202FB11000700FFB20A2F01DB0920070006F009FE0020040044
:2053200020003900C0B2C9B2884253D2DFF8180640780921484350FA84F00600DFF84416E1
:20534000701CC0B207F018FC2E20DFF8381688700020DFF83016C870DFF8282600212000FE
:20536000C0B206F0D1FA00200090DFF8A40C0068F6B2112101FB06F10844431C102203218D
:205380002000C0B206F034FBDFF8BC0540780921484350FA84F00100C9B2DFF8780C07F0C5
:2053A000ABFB00280AD000200090DFF86C3C042210212000C0B206F01BFB09E00020009088
:2053C000DFF8583C042210212000C0B206F010FB641CA5E7F1BD2DE9F843DFF86C0590F89D
:2053E0002E0000281FD10020FFF71DFC0700FFB25A2F09D1FEF7C2FEDFF85C050068006860
:20540000DFF854150860CFE1FFB2A52F0AD15A20DFF8341581F82F000120DFF82C1581F8E0
:205420002E0000E0C0E1DFF8200590F82E00012840F0B181DFF8100590F82F005A2819D171
:2054400006F055FC0020DFF8001581F82F00002080464046DFF8C81B0978C0B2884209D293
:20546000A520DFF8C01B5FFA88F801F8080018F10108EEE7DFF8A80B0078092190FBF1F05C
:205480008146DFF89C0B0078092190FBF1F201FB1200002801D019F1010906F048FDDFF88A
:2054A000D0040078002800F0F480DFF8C404407801280DD0082800F09480102800F0B88023
:2054C000202862D0402800F0C28080282ED0D4E0DFF87404C07A002807D0DFF86C04C07A55
:2054E000401EDFF86414C87206E0DFF8340B0078401EDFF85414C872DFF84C048078DFF884
:205500004814C97A092291FBF2F1884204D05A20DFF8341481F82F00DFF82C04C07A092108
:2055200090FBF1F0DFF820148870ACE0DFF81804C07ADFF8EC1A0978491E884207D0DFF806
:205540000804C07A401CDFF80014C87203E00020DFF8F413C872DFF8F0038078DFF8E813D5
:20556000C97A092291FBF2F1884204D05A20DFF8D81381F82F00DFF8D003C07A092190FB33
:20558000F1F0DFF8C41388707DE0DFF8BC038078002807D0DFF8B0038078401EDFF8A81328
:2055A000887004E0B9F10100DFF89C138870DFF898038078DFF89013C97A092291FBF2F125
:2055C000884204D05A20DFF8801381F82F00DFF878038078092110FB01F0DFF86C13C872A1
:2055E00051E0DFF8640380785FFA89F9B9F10101884205D0D4488078401CD349887002E0B8
:205600000020D1498870D0488078CF49C97A092291FBF2F1884203D05A20CB4981F82F0080
:20562000C9488078092110FB01F0C749C8722AE00020CF4948700020CD4908700220C2491C
:2056400081F82E00C048C07A00F0B6F8ACE00020C74948700020C6490870FEF78FFD3220D5
:20566000DFF8C4190880BC4800680068BA4908605A20B54981F82F0096E00020BC4948703C
:205680000020BB4908700020B94948700020B849087004F045F8DFF888090078AA498978F6
:2056A000092202FB11000500EDB20A2D01DB0920050006F03CFC0020040020002900C0B2BF
:2056C000C9B2884267D2A04880780921484350FA84F00600AB49701CC0B207F04DFA2E2075
:2056E000A84988700020A749C870A64A00212000C0B206F009F99448C07A0921E4B290FB7D
:20570000F1F201FB1200844210D101200090DFF81C09F6B2112101FB06F10844431C0822A2
:2057200003212000C0B206F063F90FE000200090DFF8F808F6B2112101FB06F10844431C73
:20574000082203212000C0B206F052F9DFF8D408DFF8D818F6B2112202FB06F2895C0844AD
:2057600010F8010CA5280AD100200090DFF8C03804220C212000C0B206F03AF909E00020D6
:205780000090DFF8B03804220C212000C0B206F02FF9641C91E76C4890F82E00022803D157
:2057A0006948C07A00F008F8BDE8F18300E1010830DD01080000002038B50400E4B20A2024
:2057C00094FBF0F100FB1140050069480078002800F09C803C20DFF8D416087043F6982025
:2057E000DFF85418088040F2DC50DFF83C1808805F484078102802D0402870D07AE0012041
:20580000514981F82E00DFF81C08DFF82018E4B2112202FB04F2895C084410F8010CA5286E
:205820002CD1DFF80008DFF80418E4B2112202FB04F2895C0844A32100F8011CDFF8EC0709
:20584000E4B2112101FB04F1405CDFF8D4170978884209D1DFF8D407E4B2112101FB04F1A1
:20586000405C05F017FC35E0DFF8C007E4B2112101FB04F1405C05F090FB2BE0DFF8A4076F
:20588000DFF8A817E4B2112202FB04F2895C0844A52100F8011CDFF89407E4B2112101FB74
:2058A00004F1405CDFF878170978884209D1DFF87C07E4B2112101FB04F1405C05F06DFBC0
:2058C00008E0DFF86807E4B2112101FB04F1405C05F0E0FB0021092008F077F910E00020B3
:2058E000234948700020224908700120164981F82E0028E000201E49487000201C49087016
:2059000000201B494870002019490870DFF81407DFF81817E4B2112202FB04F2895C08446C
:2059200010F8010CA52807D1DFF804270C212800C0B206F023F806E0DFF8F8260C212800A3
:20594000C0B206F01BF831BD9C6100208C630020506300201CDD01082C640020E1640020C8
:20596000E0640020EF64002040DC01088AF4000814640020C0E10108C8E10108D0E10108F7
:205980008BF40008DC5F00202DE9F843DFF8880D90F82E0000281FD10020FFF744F9060041
:2059A000F6B25A2E09D1FEF7E9FBDFF8900600680068DFF88816086071E2F6B2A52E0AD141
:2059C0000120DFF8541D81F82E005A20DFF8481D81F82F0000E062E2DFF83C0D90F82E005F
:2059E000012840F05182DFF8340DC078002803D1DFF82C0D070002E0DFF8280D07003F1DC7
:205A0000002080464046DFF8201D0978C0B2884221D23878DFF8141D5FFA88F801F80800C4
:205A20007F1CDFF8080D5FFA88F810F80800A5280ED0DFF8F80C5FFA88F810F808005A2805
:205A400006D0A520DFF8E41C5FFA88F801F8080018F10108D6E7DFF8D00C0078082190FB4C
:205A6000F1F08146DFF8C00C0078082190FBF1F201FB1200002801D019F10109DFF8A80C26
:205A80000078DFF8941C8978B0EBC1000500EDB2092D01DB0820050003F042FEDFF81C2D74
:205AA0000221002005F030FFDFF8142D0E21002005F02AFF0020040020002900C0B2C9B2A0
:205AC000884267D2DFF8500C8078C0B214EBC000401CC0B207F047F8DFF8E81C08702E20C2
:205AE000DFF8E01C48700020DFF8D81C8870DFF8D42C0021601CC0B205F006FFDFF8180C5D
:205B0000C07A0821E4B290FBF1F201FB1200844212D1DFF8B40C0068DFF8FC1B8978C900B0
:205B200051FA84F10C22514300EB01020221601CC0B205F023FF11E0DFF88C0C0068DFF82E
:205B4000D81B8978C90051FA84F10C22514300EB01020221601CC0B205F0D6FEDFF8CC0B90
:205B6000DFF8B41B8978C90051FA84F1405C5A2807D1DFF8582C1021601CC0B205F0C4FECE
:205B800006E0DFF84C2C1021601CC0B205F0BCFE641C91E7DFF83C0C0078002800F0E680F5
:205BA000DFF8300C407801280DD0082800F08880102800F0A880202862D0402800F0B68094
:205BC00080282ED0C2E0DFF8500BC07A002807D0DFF8440BC07A401EDFF83C1BC87206E006
:205BE000DFF8440B0078401EDFF82C1BC872DFF8280B8078DFF8201BC97A082291FBF2F161
:205C0000884204D05A20DFF8101B81F82F00DFF8080BC07A082190FBF1F0DFF8FC1A887024
:205C20009CE0DFF8F40AC07ADFF8FC1A0978491E884207D0DFF8E00AC07A401CDFF8D81A43
:205C4000C87203E00020DFF8D01AC872DFF8C80A8078DFF8C41AC97A082291FBF2F1884210
:205C600004D05A20DFF8B01A81F82F00DFF8A80AC07A082190FBF1F0DFF89C1A88706DE063
:205C8000DFF8940A8078002807D0DFF88C0A8078401EDFF8841A887004E0B9F10100DFF802
:205CA000781A88705A20DFF8701A81F82F00DFF8680A8078C0B2C000DFF85C1AC8724DE0B0
:205CC000DFF8540A80785FFA89F9B9F10101884207D0DFF8440A8078401CDFF83C1A8870D1
:205CE00003E00020DFF8301A88705A20DFF8281A81F82F00DFF8200A8078C0B2C000DFF84B
:205D0000181AC8722AE00020DFF8C81A48700020DFF8C01A08700220DFF8FC1981F82E007E
:205D2000DFF8F409C07A00F0C3F8B8E00020DFF8A41A48700020DFF89C1A0870FEF71EFA73
:205D4000BE4800680068BD490860A8E00020DFF8841A48700020DFF87C1A08700020DFF82E
:205D6000741A48700020DFF86C1A0870DFF8B8090078DFF8A4198978B0EBC1000500EDB243
:205D8000092D01DB0820050003F0CAFCDFF82C2A0221002005F0B8FDDFF8242A0E2100207D
:205DA00005F0B2FD06F0C3F80020040020002900C0B2C9B2884267D2DFF85C098078C0B28B
:205DC00014EBC000401CC0B206F0CDFEDFF8F41908702E20DFF8EC1948700020DFF8E41943
:205DE0008870DFF8E0290021601CC0B205F08CFDDFF82409C07A0821E4B290FBF1F201FBD7
:205E00001200844212D1DFF8C0090068DFF808198978C90051FA84F10C22514300EB01028D
:205E20000221601CC0B205F0A9FD11E0DFF898090068DFF8E4188978C90051FA84F10C225A
:205E4000514300EB01020221601CC0B205F05CFDDFF8D808DFF8C0188978C90051FA84F171
:205E6000405C5A2807D1DFF864291021601CC0B205F04AFD06E0DFF858291021601CC0B210
:205E800005F042FD641C91E7DFF88C0890F82E00022804D1DFF88008C07A00F009F8BDE887
:205EA000F1830000D8E10108D6640020DF640020F8B50400E4B2082094FBF0F100FB1140C4
:205EC0000600DFF810090078002800F08A80DFF804094078012806D0102818D0402862D0DD
:205EE00080280AD06DE0DFF84408E4B2005DC043DFF83818E4B208556BE0DFF83008E4B2B0
:205F0000005DC043DFF82418E4B2085561E00120DFF8041881F82E00DFF80008C0780028E0
:205F200003D1DFF80008070002E0DFF8F80707003F1D002005002800DFF8EC170978C0B272
:205F4000884207D2DFF8E407EDB2405D38707F1C6D1CF0E7DFF8D407E4B2005DA5280BD1AF
:205F6000DFF8480A006800880121A1408843DFF83C1A096808800AE0DFF8300A0068008829
:205F80000121A1400843DFF8241A09680880DFF88C07C078801CC0B208F05EF900210B205A
:205FA00007F013FE15E00020DFF8281848700020DFF8201808700120DFF85C1781F82E003C
:205FC00024E00020DFF80C1848700020DFF8041808700020DFF8FC1748700020DFF8F4179B
:205FE0000870DFF84807E4B2005D5A2807D1DFF8DC271021701CC0B205F0C0FC06E0DFF83F
:20600000D0271021701CC0B205F0B8FCF1BD0000E063002084630020E0E10108E8E10108FD
:20602000021B0108BC6200206A640020C0D50108F0E10108F8E10108786400202C64002008
:206040002DE9F04383B0DFF8D00690F82E00002822D10020FEF7E7FD0600F6B25A2E09D13D
:20606000FEF78CF8DFF8F00B00680068DFF8E81B08604FE3F6B2A52E0DD10120DFF8981692
:2060800081F82E000020DFF8281908700020DFF8241908803EE33DE3DFF87C0690F82E009D
:2060A00001282AD1022000F097FBDFF8B01B0870DFF8A80B00785A2809D1FEF75FF8DFF87D
:2060C000980B00680068DFF8901B086022E3DFF88C0B0078FF2800F01D834AF25A50DFF804
:2060E000D81808800220DFF8301681F82E00DFF86C0B007800F02DFC0CE3DFF81C0690F8F3
:206100002E00022840F01A81DFF8B0080078092190FBF1F00400DFF8A4080078092190FB0B
:20612000F1F201FB1200002800D0641CDFF8A4060078002800F0F880DFF898064078012817
:206140000DD0082800F08880102800F0A780202862D0402800F0BB8080282ED0D4E0DFF8AD
:20616000B805007B002807D0DFF8AC05007B401EDFF8A415087306E0DFF840080078401EA1
:20618000DFF894150873DFF89005C078DFF88815097B092291FBF2F1884204D05A20DFF8DF
:2061A000781581F82F00DFF87005007B092190FBF1F0DFF86415C870AEE0DFF85C05007B84
:2061C000DFF8F8170978491E884207D0DFF84805007B401CDFF84015087303E00020DFF8D4
:2061E00038150873DFF83005C078DFF82C15097B092291FBF2F1884204D05A20DFF8181541
:2062000081F82F00DFF81005007B092190FBF1F0DFF80415C8707FE0DFF8FC04C07800281B
:2062200007D0DFF8F404C078401EDFF8EC14C87003E0601EDFF8E014C8705A20DFF8D81472
:2062400081F82F00DFF8D004C078092110FB01F0DFF8C41408735FE0DFF8BC04C078E4B2BF
:20626000611E884207D0DFF8B004C078401CDFF8A814C87003E00020DFF89C14C8705A20D8
:20628000DFF8941481F82F00DFF88C04C078092110FB01F0DFF8801408733DE00020DFF818
:2062A000341548700020DFF82C1508705A20DFF8681481F82F00DFF86004007BDFF8F01625
:2062C00008700320DFF8501481F82E0022E20020DFF8001548700020DFF8F81408700520D9
:2062E000DFF8341481F82E000020DFF82C14C8700020DFF8241408735A20DFF81C1481F8C5
:206300002F0000F015FA05E20020DFF8C81448700020DFF8C01408700020DFF8B81448701F
:206320000020DFF8B01408700922DFF8EC03C178DFF8E403007B04F061F8EBE1DFF8D803FC
:2063400090F82E00032840F0A480DFF888040078002800F08280DFF808090068DFF8501686
:2063600009784FF4B27251430844407C8146DFF86404407801280AD0082843D0102842D04B
:2063800020283FD0402843D080281ED057E0DFF88803407B002807D0DFF87C03407B401ED3
:2063A000DFF87413487304E0B9F10100DFF868134873D948407B092190FBF1F0D64908711E
:2063C0005A20D54981F82F0041E0D348407B5FFA89F9B9F10101884205D0CF48407B401C32
:2063E000CD49487302E00020CB494873CA48407B092190FBF1F0C84908715A20C64981F80C
:206400002F0024E023E00420C34981F82E001EE00020DFF8C01348700020DFF8B8130870B5
:206420000220BD4981F82E000020BB4908710020B94948735A20B84981F82F006AE1002085
:20644000DFF8901348700020DFF8881308700020E04948700020DF49087005F068FD0920BC
:206460000190DFF84C0A0090DFF8F4070068DFF8401509784FF4B272514300EB0103A6480F
:206480000279A548417BDFF82805007804F006F840E1A14890F82E00042840F0FD80DFF8FA
:2064A000C0070068DFF8081509784FF4B272514308449949497B1C2251430844007DDFF8D9
:2064C000F4190870944800785A2815D05A2092490870DFF8DC090500DFF8D809007805EBCE
:2064E00040052888DFF8D019088000208A498A4A92F82E201144C87405F019FDDFF86007E6
:206500000068DFF8AC1409784FF4B272514308448149497B1C2251430844C06A002815D0D1
:20652000DFF89439DFF838070068DFF8841409784FF4B272514300EB01027748417BDFF80E
:206540007004007804F061F807001AE0DFF868090090DFF80C070068DFF8541409784FF4D4
:20656000B272514300EB0103DFF850296A486A4991F82E100844C17C6748407B04F0FAF81F
:206580000700FFB25A2F12D10320634981F82E0000206149087000205F495F4A92F82E20D6
:2065A0001144C8740020DFF810190880B2E0FFB2A52F6AD1DFF8A8060068DFF8F413097804
:2065C0004FF4B272514308445349497B1C2251430844408CDFF8E0180988884212D2DFF845
:2065E00080060068DFF8C81309784FF4B272514308444949497B1C2251430844408CDFF81C
:20660000B8180880DFF8B0080088DFF854160968DFF89C2312784FF4B2735A4311443E4A57
:20662000527B1C235A431144098C884212D2DFF830060068DFF8781309784FF4B2725143C6
:2066400008443549497B1C2251430844008CDFF868180880DFF858080500DFF85808007838
:2066600005EB4005DFF850080088288003202A4981F82E0000202849087000202649264A41
:2066800092F82E201144C87444E02348224991F82E100844C7743DE01F4890F82E000528E2
:2066A00038D100F045F880465FFA88F8B8F15A0F0ED14AF25A50DFF800130880FDF75EFD6D
:2066C000DFF8940500680068DFF88C15086021E05FFA88F8B8F1A50F1CD1DFF88C2A0021C8
:2066E000012005F011F90021012007F06EFA05F01EFC642004F04BFD4AF25A50DFF8B81283
:206700000880FDF73BFDDFF8500500680068DFF848150860BDE8F7839C61002074630020FA
:206720003863002044630020D7640020F462002070B5032000F050F8DFF820150870DFF82B
:206740001C0500785A280BD15A20DFF8741281F82F000020DFF8681281F82E005A202CE025
:20676000DFF8F8040078FF2801D1002025E045F6A520DFF844120880DFF8E0040078DFF8F1
:2067800038128870DFF828070600202005002900C9B2300006F053FCDFF81C12A1F8680047
:2067A000DFF8B8040178012007F0A0FF0400E4B2012C01D1A52000E05A2070BD0CE101083B
:2067C00010E20108DC5F0020E46300206CE2010870E20108146400207FB5040002F0A0FFE9
:2067E00000200500EDB2202D06DA0020DFF87C19EDB248556D1CF5E7E4B2012C06D1DFF80A
:2068000070290021022005F07FF819E0E4B2022C06D1DFF860290021022005F075F80FE0A8
:20682000E4B2032C06D1DFF850290021022005F06BF805E0DFF844290021022005F064F814
:206840005F4800785A280FD0DFF8340900788DF80C0001205A495A4A92F82E201144C874CA
:206860005A205749087003E05548808B8DF80C0003A8029010200190DFF84006009001239B
:206880004F484F4991F82E100844C27C0C210220FDF795FE0600F6B25A2E1CD100204849CE
:2068A00008705A20464981F82F0000204449444A92F82E201144C87400200500EDB2052D15
:2068C00007DA00203E49EDB201EB450188836D1CF4E75A203BE0F6B2A52E29D10020384945
:2068E00008705A20364981F82F0000203449344A92F82E201144C87400200500EDB2052D05
:2069000007DA00202E49EDB201EB450188836D1CF4E79DF80C00002807D0DFF86828002197
:20692000012004F0F1FF5A2011E09DF80C000EE02348234991F82E100844C6749DF80C0093
:206940001F498883FF208DF80C009DF80C0004B070BD70B50400002005002800451CC0B249
:20696000032811DA14488470134807F0AAFF124807F003FE002807D100200600F6B2FF2E69
:2069800001D0761CFAE7E8E7EDB2032D0CDB4AF25A5009490880FDF7F1FBDFF8BC02006891
:2069A0000068DFF8B412086070BD0000E8630020F0640020A6640020705F0020D9640020E8
:2069C0009C61002080B5DFF81C0C0088642822DB0020DFF8141C08700020DFF8081C088013
:2069E0000020DFF8081C0880FDF7C8FB2020DFF8001C8870DFF8FC0B97490860DFF8F00B1A
:206A00004078DFF8EC1BC870DFF8E40BC078DFF8E81B08801FE1DFF8E40B0078002840F0B2
:206A2000E580DFF8CC0B8078202822D0DFF8BC0B008800281DD10120DFF8B01B088000206A
:206A4000DFF8A41B0870DFF8A80B4078DFF8B01B0880DFF89C0BC078DFF89C1B08800320CD
:206A6000DFF8981B08700E2004F097FA05F03FF911E0DFF87C0B807820280BD00320DFF8D0
:206A80007C1B08700120DFF8641B08800E2004F084FA00E0DFE005F02AF9DFF8540B4078A3
:206AA000DFF8541B098880B2884231D0DFF8540BDFF83C1BDFF8402B1288120111440A311F
:206AC000102207F043FFDFF8300B0088401C232190FBF1F201FB1200DFF81C1B0880DFF828
:206AE000080B0078022190FBF1F201FB12000200D2B2DFF8101BDFF8F00A007880B200F079
:206B0000DFF9DFF8E40A0078401CDFF8DC1A0870DFF8DC0A4078DFF8E01A098880B28842EC
:206B200031D0DFF8E00ADFF8C81ADFF8CC2A1288120111440A31102207F008FFDFF8B80A07
:206B40000088401C232190FBF1F201FB1200DFF8A81A0880DFF8900A0078022190FBF1F2F6
:206B600001FB12000200D2B2DFF8981ADFF8780A007880B200F0A4F9DFF86C0A0078401C47
:206B8000DFF8641A0870DFF8680A4078DFF8681A098880B2884229D1DFF8480A0088401C3A
:206BA000DFF8401A08800020DFF83C1A0870DFF8400AC078DFF8401A0880DFF8440A008898
:206BC000DFF82C1A497889B288420FD00020DFF8141A0880DFF8280A0088401C232190FB8A
:206BE000F1F201FB1200DFF8181A0880DFF8840C007800282FD0DFF87C0C4078102802D0EC
:206C0000402809D01FE00020DFF8681C48700020DFF8601C08701EE00020DFF8581C4870F5
:206C20000020DFF8501C08700020DFF84C1C08706420DFF8B0190880FDF7A0FADFF8B409D4
:206C40000549086007E00020DFF8281C48700020DFF8201C087001BD2C640020E764002020
:206C6000F063002070B5DFF8140C90F82E00002861D102F055FD002008F0EDF8DFF8001C41
:206C80000880DFF8FC0B0088002811D105F02FF8DFF8F02B0421022004F036FEFDF76EFA23
:206CA000DFF83C0900680068DFF834190860FEE0DFF8CC0B0078C00702D40220060001E0B2
:206CC00001200600DFF8B80B0088801BDFF8B81B0880DFF8AC0B0088801B050000200400C4
:206CE0002000C0B2310080B289B2884218D22800DFF88C1B098880B2884211D20022DFF8A1
:206D00000419280080B208F0BCF82200D2B2DFF8F418280080B200F0D3F86D1C641CDFE7E3
:206D20000120DFF8581B81F82E00DFF8540B0088DFF8541B0880DFF83C0B0078002800F007
:206D4000B6805A20DFF8341B81F82F00DFF8240B4078012836D0082805D0202832D0402811
:206D600050D0802860D1DFF8200B0088DFF8101B0988884210D1DFF8080B0088022804DBD7
:206D80000220DFF8041B08801BE0DFF8F40A0088DFF8F41A088014E0DFF8EC0A0088801CA9
:206DA000DFF8E41A0880DFF8E00A0088DFF8D01A0988884205D3DFF8C80A0088DFF8C81A4F
:206DC000088039E0DFF8C00A0078C00707D5DFF8B80A0088401EDFF8B01A088006E0DFF8F1
:206DE000A80A0088801EDFF8A01A0880DFF8980A0088002805D1DFF8880A0088DFF8881A39
:206E0000088019E00020DFF86C1A48700020DFF8641A0870FDF7B2F9DFF8C40700680068BE
:206E2000DFF8BC17086042E00020DFF8481A48700020DFF8401A08700020DFF8381A487043
:206E40000020DFF8301A087002F06AFCDFF8380A0078C00702D40220060001E001200600C3
:206E6000DFF8240A0088801B0500002004002000C0B2310080B289B2884218D22800DFF8DE
:206E8000001A098880B2884211D20022DFF87417280080B207F0F5FF2200D2B2DFF86417A7
:206EA000280080B200F00CF86D1C641CDFE770BD745F0020F1640020A864002000000020D4
:206EC0002DE9FE4F04000D001600002082465FFA8AFABAF1140F08DA0020A4495FFA8AFAC9
:206EE00001F80A001AF1010AF1E7E87B10F50050ADF80800687B0190A87B0090BDF8083028
:206F0000A4B2621CDFF88C1B984808F03BF8974A0021F6B2B000C0B204F0F6FC002082467A
:206F20005FFA8AFABAF1140F08DA00208F495FFA8AFA01F80A001AF1010AF1E728890190BC
:206F4000A87A0090EB7A2A7BDFF84C1B874808F019F8864A0021F6B2B000401CC0B204F054
:206F6000D3FC04F0E4FF002082465FFA8AFABAF1100F08DA00207D495FFA8AFA01F80A0034
:206F80001AF1010AF1E7002081464846DFF80C1B0978C0B2884220D2A878DFF8041B09685A
:206FA0005FFA89F9142202FB09F2895C884211D1DFF8EC0A00685FFA89F9142101FB09F1FC
:206FC0000844421C0021F6B2B000801CC0B204F09BFC02E019F10109D7E704F0A8FF002086
:206FE00082465FFA8AFABAF1100F08DA00205F495FFA8AFA01F80A001AF1010AF1E7E8784A
:20700000012840F0AE80002081465FFA89F905EB8900C08883461FFA8BFB42F21070834582
:2070200022DB1FFA8BFB0A209BFBF0FB1FFA8BFB0A209BFBF0F08046DFF8681A404680B2F3
:2070400005F027FE2E204949C8711FFA8BFB0A209BFBF0F100FB11B080464046C0B205F04E
:2070600082FD424908721CE01FFA8BFB64209BFBF0F08046DFF82C1A4046C0B205F07CFDAE
:207080002E203A4988711FFA8BFB64209BFBF0F100FB11B08046DFF8101A4046C0B205F01C
:2070A0006BFD5FFA89F905EB890000790700002082465046DFF8F4190978C0B288422FD274
:2070C0003800DFF8EC195FFA8AFA062202FB0AF2895CC0B2884220D10422DFF8D4095FFA59
:2070E0008AFA062101FB0AF10844411C1F4805F0C5FC0222DFF8BC09DFF8B4195FFA8AFAE7
:20710000062303FB0AF3194491F9051000EB4101DFF8A40905F0B2FC02E01AF1010AC8E754
:20712000124A0021F6B2B000C01CC0B204F0ECFB5FFA89F905EB89004079002811D0DFF864
:207140007C095FFA89F905EB890149790522514300EB01021021F6B2B000C01CC0B204F01F
:20716000D3FBBDE8F78F00009CDE0108DC5F0020D0E00108DCE00108E8E00108F4E001080C
:207180000C6400208CDE010870B5DFF8F00690F82E0000286CD102F0C3FA012007F05BFEBF
:2071A000DFF81C190880DFF818090088002811D104F09DFDDFF80C290421022004F0A4FB3D
:2071C000FCF7DCFFDFF8180400680068DFF81014086020E1DFF8E8080088032190FBF1F2D9
:2071E00001FB1200002809D0DFF8D4080088032190FBF1F201FB1200040001E00320040099
:20720000DFF8BC080088DFF8C0180880DFF8B0080088001B0500002006003000C0B22100F4
:2072200080B289B2884218D22800DFF89418098880B2884211D20122DFF89018280080B216
:2072400007F01FFE3200D2B2DFF88018280080B200F0E2F86D1C761CDFE70120DFF81C16C6
:2072600081F82E00DFF858080088DFF85C180880DFF800060078002800F0CD805A20DFF8CA
:20728000FC1581F82F00DFF8EC054078012836D0082805D0202832D040285DD080286BD1BE
:2072A000DFF824080088DFF818180988884210D1DFF814080088032804DB0320DFF8081861
:2072C00008801BE0DFF8F8070088DFF8FC17088014E0DFF8F4070088C01CDFF8EC170880CF
:2072E000DFF8E4070088DFF8D8170988884205D3DFF8CC070088DFF8D017088044E0DFF8D8
:20730000C8070088032190FBF1F201FB120000280FD0DFF8B40700880321DFF8AC271288ED
:20732000121A90FBF1F001FB0020DFF89C17088006E0DFF894070088C01EDFF88C170880C7
:20734000DFF884070088002805D1DFF874070088DFF87417088017E00020DFF818154870AE
:207360000020DFF810150870FCF708FF9C48006800689B4908604EE00020DFF8F814487096
:207380000020DFF8F01408700020DFF8E81448700020DFF8E014087002F0C2F9DFF82807B9
:2073A0000088032190FBF1F201FB1200002809D0DFF814070088032190FBF1F201FB12008A
:2073C000040001E003200400DFF8FC060088001B0500002006003000C0B2210080B289B2CA
:2073E000884218D22800DFF8D816098880B2884211D20122DFF8D416280080B207F041FD09
:207400003200D2B2DFF8C416280080B200F004F86D1C761CDFE770BD2DE9FC4704000D0047
:207420001600002080465FFA88F8B8F1140F09DA0020DFF8BC1C5FFA88F801F8080018F116
:207440000108F0E7687A10F500508146E8790190287A00901FFA89F94B46A4B2621CDFF853
:207460003416DFF88C0C07F08DFDDFF8842C0021032016FB00F0C0B204F046FA002080467A
:207480005FFA88F8B8F1140F09DA0020DFF8601C5FFA88F801F8080018F10108F0E768883E
:2074A0000190287900906B79AA79DFF8EC15DFF8400C07F067FDDFF8382C0021F6B2032086
:2074C00000FB06F0401CC0B204F01EFA00200700FFB2102F06DA0020DFF8141CFFB2C855F5
:2074E0007F1CF5E768780F282ADA002007003800DFF8001C0978C0B2884221D26878DFF841
:20750000F81B0968FFB2112202FB07F2895C884214D1DFF8E40B0068FFB2112101FB07F174
:207520000844401C824652460121F6B2032000FB06F0801CC0B204F0E7F901E07F1CD6E74A
:20754000687820282CDB6878412829DA002007003800DFF848150978C0B2884220D268788E
:20756000DFF83C150968FFB2142202FB07F21144497C884212D1DFF828050068FFB214217C
:2075800001FB07F10844421C0021F6B2032000FB06F0801CC0B204F0B7F901E07F1CD7E784
:2075A0002878FF280BD1DFF8542B1021F6B2032000FB06F0801CC0B204F0A6F90DE02878B7
:2075C00000280AD1DFF8382B1021F6B2032000FB06F0801CC0B204F097F9BDE8F3870000D0
:2075E0002C64002084640020F264002082640020C856002058DD010888640020DE6400206D
:2076000086640020E462002070B59C4890F82E0000286CD102F084F8022007F01CFCDFF860
:20762000E41A0880DFF8DC0A0088002811D104F05EFBDFF8D42A0421022004F065F9FCF7C7
:207640009DFDDFF8C80A00680068DFF8C01A08600FE1DFF8B00A0088032190FBF1F201FB67
:207660001200002809D0DFF89C0A0088032190FBF1F201FB1200040001E003200400DFF86F
:20768000840A0088001BDFF840140880DFF8740A0088001B0500002006003000C0B2210020
:2076A00080B289B2884218D22800DFF8581A098880B2884211D20222DFF81014280080B24F
:2076C00007F0DFFB3200D2B2DFF80014280080B200F0DCF86D1C761CDFE70120674981F8EF
:2076E0002E00DFF8200A0088DFF8DC13088061480078002800F0BD805A20604981F82F0044
:207700005C484078012835D0082805D0202831D0402858D0802866D1DFF8AC030088DFF83D
:20772000E4190988884211D1DFF89C030088032804DB0320DFF8901308801AE0DFF8C40944
:207740000088401EDFF88013088012E0DFF878030088C01CDFF870130880DB480088DFF845
:20776000A4190988884204D3DFF898090088D64908803EE0D448008803281ADBD2480088EF
:20778000032190FBF1F201FB120000280CD0CE4800880321CC4A1288121A90FBF1F001FB3F
:2077A0000020C949088004E0C7480088C01EC6490880C5480088002804D1DFF848090088DD
:2077C000C149088015E000202A494870002029490870FCF7D3FCDFF8340900680068DFF850
:2077E0002C19086045E000202249487000202149087000201F49487000201E49087001F042
:207800008FFFB1480088032190FBF1F201FB1200002808D0AC480088032190FBF1F201FBAF
:207820001200040001E003200400A7480088001B0500002006003000C0B2210080B289B23D
:20784000884216D22800DFF8BC18098880B288420FD202229D49280080B207F012FB32009B
:20786000D2B29A49280080B200F010F86D1C761CE1E770BD14640020E16400209C61002025
:2078800096640020D4DF0108926400202DE9F04383B004000D001600002080465FFA88F89A
:2078A000B8F1140F09DA0020DFF844185FFA88F801F8080018F10108F0E7687A10F50050CC
:2078C0008146E8790190287A00901FFA89F94B46A4B2621C6F49DFF8180807F053FBDFF8F2
:2078E00010280021032016FB00F0C0B204F00CF8002080465FFA88F8B8F1140F09DA002013
:20790000DFF8EC175FFA88F801F8080018F10108F0E768880190287900906B79AA795E496A
:20792000DFF8CC0707F02EFBDFF8C4270021F6B2032000FB06F0401CC0B203F0E5FF002019
:207940000700FFB2102F06DA0020DFF8A417FFB2C8557F1CF5E7687801280BD1DFF8B027C6
:207960000121F6B2032000FB06F0801CC0B203F0CBFF73E068780A280BD1DFF89827012165
:20798000F6B2032000FB06F0801CC0B203F0BCFF64E068780B280BD1DFF87C270121F6B2F8
:2079A000032000FB06F0801CC0B203F0ADFF55E068780C280BD1DFF864270121F6B2032092
:2079C00000FB06F0801CC0B203F09EFF46E068780D280BD1DFF848270121F6B2032000FBD3
:2079E00006F0801CC0B203F08FFF37E068780E280BD1DFF830270121F6B2032000FB06F0ED
:207A0000801CC0B203F080FF28E068780F280BD1DFF814270121F6B2032000FB06F0801C5F
:207A2000C0B203F071FF19E0687809280BD1DFF8FC260121F6B2032000FB06F0801CC0B2A6
:207A400003F062FF0AE0DFF8E8260121F6B2032000FB06F0801CC0B203F056FF2878002807
:207A60000BD0DFF8D0261021F6B2032000FB06F0801CC0B203F048FF0AE0DFF8BC26102155
:207A8000F6B2032000FB06F0801CC0B203F03CFFBDE8F78384DB0108D0DA0108D56400205B
:207AA000DC630020E05F0020E35F0020C2E90008A8D601082CDC0108E55F00202C000020AB
:207AC00094640020E0DF01089064002068630020F0B585B0DFF8640690F82E00002822D1DB
:207AE0000020FDF7A0F80400E4B25A2C09D1FCF745FBDFF8180600680068DFF81016086083
:207B0000F4E2E4B2A52C0DD10020DFF8301608760120DFF82816C8750120DFF8201681F875
:207B20002E0000E0E2E2DFF8140690F82E00012840F0DC82DFF8040600785A2800F07F804B
:207B400001F0EEFD5A20DFF8F415087000200700FFB2202F06DA0020DFF89415FFB2C85502
:207B60007F1CF5E7002006000E22DFF8D415DFF8800504F083FFDFF8CC05C07910F5005070
:207B800080B205F0CEF90500DFF86415280080B205F0BBF8DFF8B015DFF8A805807905F092
:207BA00055F8DFF8A815DFF89C05407905F04EF80C22DFF89C15DFF89C0504F05FFFDFF821
:207BC0009415DFF88005007905F040F8DFF88815DFF87005C07805F039F8DFF88015DFF899
:207BE0006405807805F032F8DFF804250121012003F08AFEDFF85C250221022003F084FE35
:207C0000DFF83805007E0F210123DFF8E424DFF82CC59CF818C012F80C20D2B290FBF1FC39
:207C200001FB1C00DFF81415C97D0918C9B2DFF80C05C07DC0B24000C0B203F08FFC04F08F
:207C400076F9DFF81C050078002800F04F8204F06EF9DFF810050078002800F04782DFF8E5
:207C60000405407801280DD0082800F09F80102800F0F480202841D0402800F0EE8180289A
:207C80001ED0FAE1DFF86804DFF8B014097E4056392807D13020DFF85814DFF8A024127E29
:207CA00088540CE0DFF84804DFF89014097E405C401CDFF83C14DFF88424127E8854E4E108
:207CC000DFF82C04DFF87414097E4056302807D13920DFF81C14DFF86424127E88540CE0DA
:207CE000DFF80C04DFF85414097E405C401EDFF80014DFF84824127E8854C6E1DFF83C0485
:207D0000007E002808D11820DFF8301408760220DFF82814C875B8E1DFF82004007E401E31
:207D2000DFF818140876DFF81404007E042833DBDFF80804007E0F2811DBDFF80004007E3E
:207D4000022190FBF1F201FB1200002824D1DFF8EC03007E801EDFF8E41308761CE0DFF866
:207D6000DC03007E0E2806D1DFF8D003007E401EDFF8C8130876DFF8C403007E022190FB19
:207D8000F1F201FB1200002806D0DFF8B003007E801EDFF8A8130876DFF8A003007E0E2810
:207DA00003DA0120DFF89413C8756EE1DFF88C03007E182808DB0120DFF88013C8750020CC
:207DC000DFF87813087660E1DFF87003007E401CDFF868130876DFF86403007E042833DB98
:207DE000DFF85803007E0F2811DBDFF85003007E022190FBF1F201FB1200002824D0DFF876
:207E00003C03007E801CDFF8341308761CE0DFF82C03007E022190FBF1F201FB1200002826
:207E200006D1DFF81803007E801CDFF810130876DFF80803007E0E2806D1DFF80003007E22
:207E4000401CDFF8F8120876DFF8F002007E0F2803DB0220DFF8E412C87516E10020DFF8F1
:207E6000041348700020DFF8FC120870002006009F4890F90100302801D0FF2006009C48ED
:207E8000C0780100C9B29A488078C0B204F0E3FF8DF807009648C0790100C9B29448807918
:207EA000C0B204F0D8FF8DF806009148C07A0100C9B28F48807AC0B204F0CDFF8DF80500DE
:207EC0008B48007C0100C9B28948C07BC0B204F0C2FF8DF804008648007D0100C9B2844888
:207EE000C07CC0B204F0B7FF8DF803008048007E0100C9B27E48C07DC0B204F0ACFF8DF847
:207F000002009DF80600002803D09DF806000D2801DBFF2006009DF80500002848D09DF889
:207F20000500202844DA9DF8060004280BD09DF80600062807D09DF80600092803D09DF860
:207F400006000B2806D19DF805001F2802D1FF2006002FE09DF8060002282BD19DF80700CC
:207F6000042190FBF1F201FB1200002808D19DF80700642190FBF1F201FB1200002809D1C0
:207F80009DF807004FF4C87190FBF1F201FB1200002806D19DF805001E280BDBFF20060063
:207FA00008E09DF805001D2804DBFF20060001E0FF2006009DF80400182801DBFF20060016
:207FC0009DF803003C2801DBFF2006009DF802003C2801DBFF20060003F0A9FF9DF8070071
:207FE00010F5FA6080B204F0F6FF050028008DF80F009DF8060004F0CFFF8DF80E009DF8C1
:20800000050004F0C9FF8DF80D009DF8040004F0C3FF8DF80C009DF8030004F0BDFF8DF860
:208020000B009DF8020004F0B7FF8DF80A00F6B2002E02D102A807F006FADFF8080107F044
:2080400089F90020DFF8FC100880FCF797F82F48006800682D49086048E00020DFF8041138
:2080600048700020DFF8FC100870FCF787F82748006800682549086038E00020DFF8E41043
:2080800048700020DFF8DC1008700020DFF8D41048700020DFF8CC100870154A012101204D
:2080A00003F032FCDFF8AC200221022003F02CFCDFF88800007E0F2101230D4ADFF87CC001
:2080C0009CF818C012F80C20D2B290FBF1FC01FB1C00DFF86810C97D0918C9B2DFF85C0086
:2080E000C07DC0B24000C0B203F038FA05B0F0BDDC5F0020D6640020E063002000E2010895
:2081000008E20108AA640020ECDF01082C6400209CDD0108F8DF0108ACDD010804E00108D9
:2081200010E00108BCDD0108CCDD01081CE0010828E00108B0E10108B8E101089C61002083
:208140000CDF01088C630020E25F0020E65F002008DD0108EB5F0020EF5F0020F35F00201E
:20816000DF640020146400202DE9F04182B0DFF8F40790F82E00002840F08981DFF8E407DF
:2081800090F82F005A281ED103F0B1FD0020DFF8D41781F82F00DFF8D0070079DFF8CC17AB
:2081A0000871DFF8C4074079DFF8C0174871DFF8B8078079DFF8B4178871DFF8AC07C07898
:2081C000DFF8A817C87000200700FFB2202F06DA2020DFF88C17FFB2C8557F1CF5E7DFF8F4
:2081E0008017DFF88807007904F030FD4820DFF870178870DFF868270B21002003F084FB06
:20820000DFF868074079002805D0022811D009D3032815D01AE0DFF858270B21012003F0DB
:2082200073FB13E0DFF84C270B21012003F06CFB0CE0DFF844270B21012003F065FB05E039
:20824000DFF838270B21012003F05EFBDFF81C07C078022802D0032807D00CE0DFF8202715
:208260000A21022003F050FB05E0DFF820270A21022003F049FBDFF8F4068079002806D024
:20828000DFF800270A21032003F03EFB05E0DFF800270A21032003F037FBDFF8EC060078CF
:2082A000002800F08B80DFF8E0064078012806D0102827D0402861D0802812D06EE0DFF8B0
:2082C000A4064078002804D10320DFF89816487006E0DFF890064078401EDFF88816487049
:2082E00064E0DFF880064078401CDFF878164870DFF870064078042803DB0020DFF864162C
:20830000487053E00020DFF8801648700020DFF878160870DFF84C064078002807D101202E
:20832000DFF8401681F82E0000F045F925E0DFF834064078012807D10220DFF8281681F8BC
:208340002E0000F0C3F918E0DFF818064078022807D10320DFF80C1681F82E0000F035FABA
:208360000BE0DFF800064078032806D10420DFF8F41581F82E0000F08AFA17E00020DFF86E
:20838000081648700020DFF800160870FBF7F6FE0520DFF8D01581F82E0007E00020DFF836
:2083A000E81548700020DFF8E01508700020DFF8D81548700020DFF8D0150870DFF8A40534
:2083C0004078002802D15FF0010801E05FF00008DFF8C00507F05AF85FFA88F8CDF8008057
:2083E000DFF8B0350200D2B20021002003F000FBDFF870054078012802D15FF0010801E0D3
:208400005FF00008DFF8900507F040F802005FFA88F8CDF80080DFF88035D2B200210120F8
:2084200003F0E6FADFF83C054078022802D15FF0010801E05FF00008DFF8600507F026F8BB
:208440005FFA88F8CDF80080DFF850350200D2B20021022003F0CCFADFF808054078032859
:2084600002D15FF0010801E05FF00008DFF8300507F00CF85FFA88F8CDF80080DFF8203548
:208480000200D2B20021032003F0B2FA91E0DFF8D40490F82E00012802D100F08CF888E0C5
:2084A000DFF8C00490F82E00022802D100F00EF97FE0DFF8B00490F82E00032802D100F0E9
:2084C00084F976E0DFF89C0490F82E00042802D100F0DDF96DE0DFF88C0490F82E00052840
:2084E00067D1DFF888040500DFF87C04060000200700FFB20C2F12D22800451C31004E1C64
:2085000000780978884204D00120DFF89814087005E00020DFF88C1408707F1CE9E7DFF872
:208520008404007800283AD00220FCF77CFB0400E4B25A2C09D1FBF721FEDFF8200400680F
:208540000068DFF81814086033E0E4B2A52C25D10020DFF8501408705A20DFF8081481F81F
:208560002F00082005F078FE0022DFF8FC034179DFF8940507F014F800210F2005F025FBAF
:2085800003F0B5FBDFF884250021012003F0F6F90520DFF8D01381F82E000AE009E0FBF749
:2085A000EDFDDFF8B80300680068DFF8B0130860FFE7BDE8F38130B585B0DFF8A80300785A
:2085C0005A2812D0DFF8A00300798DF80C000020DFF89013DFF88C2392F82E201144C8742A
:2085E0005A20DFF88013087004E0DFF87803808B8DF80C0003A8029000200190DFF8100573
:2086000000900123DFF85C03DFF8581391F82E100844C27C0B210020FBF7D1FF0500EDB22B
:208620005A2D1FD10020DFF83C13DFF8382392F82E201144C8740020DFF8281381F82E0009
:208640000020DFF82013087000200400E4B2052C3ADA0020DFF80C13E4B201EB4401888391
:20866000641CF3E7EDB2A52D24D10020DFF8F412DFF8F02292F82E201144C8740020DFF8F4
:20868000E41281F82E000020DFF8D812087000200400E4B2052C08DA0020DFF8C812E4B2B0
:2086A00001EB44018883641CF3E79DF80C00AF49087109E0AB48AB4991F82E100844C574F6
:2086C0009DF80C00A749888305B030BD80B5A54800785A2806D0A4484079A24988705A2068
:2086E000A0490870A848007800284CD0A6484078012806D0102820D040282AD080280ED0B8
:2087000035E098488078002803D103209549887004E094488078401E924988702DE09148A8
:208720008078032803DB00208E49887004E08D488078401C8B4988701FE08A4880788B49D3
:2087400048710020874981F82E0000208549087013E000208C49487000208B490870FBF765
:208760000DFD7E48006800687C4908602CE000208549487000208449087000208249487072
:2087800000208149087077488078002805D002280FD008D3032812D016E0754A0B210120D0
:2087A00003F0ECF810E0734A0B21012003F0E6F80AE0714A0B21012003F0E0F804E06F4ABD
:2087C0000B21012003F0DAF801BD80B5654800785A2806D06448C078624988705A2061496C
:2087E00008706948007800283DD067484078012806D010280CD0402815D0802804D022E05E
:2088000002205849887026E002205649887022E002205649C8700020524981F82E00002061
:208820005049087017E00020DFF8E81248700020DFF8E0120870FBF7A1FC48480068006837
:208840004649086022E00020DFF8C81248700020DFF8C01208700020DFF8B81248700020BC
:20886000DFF8B01208703F488078022802D0032806D00BE0424A0A21022003F07FF805E058
:20888000DFF808210A21022003F078F801BD80B5344800785A2806D0334880793149887003
:2088A0005A2030490870DFF86C020078002842D0DFF860024078012805D010280FD04028E8
:2088C00019D0802827D127488078002803D000202449887002E001202249887023E0214856
:2088E00080782249887100201E4981F82E0000201C49087017E00020DFF818124870002001
:20890000DFF810120870FBF739FC144800680068124908601FE00020DFF8F81148700020F9
:20892000DFF8F01108700020DFF8E81148700020DFF8E01108700B488078002805D0114A3C
:208940000A21032003F01AF805E0DFF844200A21032003F013F801BD000000002C640020EA
:20896000DC5F00209C610020506300205C63002018E2010820E2010828E2010830E2010891
:2089800038E2010850E201081464002040E2010848E2010824E1010830E101083CE1010835
:2089A00048E10108E96400207FB5DFF83C0690F82E0000281AD10020FCF735F90500EDB21D
:2089C0005A2D09D1FBF7DAFBDFF8600700680068DFF85817086096E0EDB2A52D05D10120D5
:2089E000DFF8041681F82E008DE08CE0DFF8F80590F82E00012840F0868000F091FEDFF8C7
:208A0000E80500785A280BD05A20DFF8DC15087000208DF80D009DF80D008DF80C000FE006
:208A200000200400E4B2022C0ADADFF8BC05E4B200EB4400808B03A9E4B20855641CF1E70B
:208A4000DFF8402A0121012002F05EFF03A8029010200190DFF8340A00900223DFF8880517
:208A6000DFF8841591F82E100844C27C05210220FBF7A5FD0600F6B25A2E09D1FBF77EFBDE
:208A8000DFF8A80600680068DFF8A01608603AE0F6B2A52E1FD100200400E4B2022C09DA3C
:208AA00003A8E4B2005DDFF8E819E4B22144C871641CF2E7082005F0CFFB00210F2005F087
:208AC00084F8FBF75BFBDFF8640600680068DFF85C16086017E0DFF81005DFF80C1591F8AC
:208AE0002E100844C67400200400E4B2022C0ADA03A8E4B2005DDFF8F014E4B201EB4401A6
:208B00008883641CF1E77FBD0038014044DD01080C0000201464002030B585B0DFF8C80492
:208B200090F82E0000286BD1DFF8BC0490F82F005A2806D103F0DBF80020DFF8AC1481F87E
:208B40002F0000200400E4B2202C06DA0020DFF84419E4B20855641CF5E7DFF83819DFF85E
:208B60003009807804F008F8DFF828290A21012002F0CAFEDFF820290121012002F0C4FE8B
:208B8000DFF818290C21012002F0BEFEDFF810090078002834D0DFF808094078102802D083
:208BA000402812D023E00020DFF8F41848700020DFF8EC1808700120DFF82C1481F82E005B
:208BC0000020DFF8241408701AE00020DFF8D01848700020DFF8C8180870FBF7CFFADFF87C
:208BE000A80800680068DFF8A0180860B6E00020DFF8AC1848700020DFF8A4180870ADE03D
:208C0000DFF8E40390F82E00012855D1DFF8D80300785A2812D0DFF8780880788DF80C0023
:208C20000120DFF8C413DFF8C02392F82E201144C8745A20DFF8B013087004E0DFF8A80350
:208C4000808B8DF80C0003A8029010200190DFF83C0800900123DFF89003DFF88C1391F842
:208C60002E100844C27C0A210120FBF7A8FC0500EDB25A2D07D1FBF781FA0220DFF8681366
:208C800081F82E0018E0EDB2A52D0BD19DF80C00DFF8FC178870FBF771FA0220D24981F852
:208CA0002E0009E0D048D04991F82E100844C5749DF80C00CC498883CB4890F82E0002286C
:208CC0004CD1DFF8DC098078DFF8C4178978884204D00120DFF8CC19087003E00020DFF843
:208CE000C4190870DFF8BC09007800282CD00220FBF799FF0500EDB25A2D09D1FBF73EFA0C
:208D0000DFF8840700680068DFF87C17086025E0EDB2A52D17D10020DFF8881908705A2067
:208D2000B14981F82F00082005F096FA02F0DFFFDFF874290021012002F020FE00210F20FE
:208D400004F043FF0AE009E0FBF718FADFF8380700680068DFF830170860FFE705B030BD12
:208D6000E0B5A14890F82F005A280BD102F0BFFF00209D4981F82F00DFF830098078DFF823
:208D800030190870DFF82809027896A1684606F0F9F86A461021012002F0B6FDDFF8142909
:208DA0000221012002F0B0FDDFF80C290221032002F0AAFDDFF804290021042002F0A4FD09
:208DC000DFF8FC280021052002F09EFDDFF8D0060078002800F07F80DFF8C4064078012807
:208DE0000AD008281AD010282AD0202804D040283DD0802812D048E0DFF8B408007838289F
:208E000007DADFF8AC080078801CDFF8A418087003E03820DFF8981808703FE0DFF89008FF
:208E20000078112807DBDFF888080078801EDFF88018087003E01020DFF8741808702DE040
:208E40000020DFF85C1648700020DFF854160870DFF85C080078DFF854188870DFF84C08FF
:208E600005F066FD00210F2004F0AFFE16E00020DFF82C1648700020DFF824160870FBF727
:208E80007DF95A48A949086025E00020DFF8101648700020DFF8081608701CE00020DFF806
:208EA000001648700020DFF8F8150870DFF800080078DFF8F8178870302002F0CFFF812082
:208EC00002F0CCFFDFF8E807007880B202F0F1FF042002F0EEFF07BD10B5434890F82E00B6
:208EE000002819D10120FBF79EFE0400E4B25A2C09D1FBF743F9DFF8900500680068DFF876
:208F0000881508602AE0E4B2A52C04D10120364981F82E0000E021E0334890F82E00012884
:208F20001CD102F0E4FE002005F0D8FF002806D0DFF890270221012002F0E6FC05E0DFF824
