:020000040800F2
:2000000008100020311900084D1900085119000855190008591900085D1900080000000008
:20002000000000000000000000000000611900086519000800000000691900086D190008A0
:200040009B0C00089D0C00089F0C0008A10C0008A30C0008A50C0008A70C0008A90C0008F0
:20006000AB0C0008AD0C0008AF0C0008B10C0008B30C0008B50C0008B70C0008B90C000850
:20008000BB0C0008BD0C0008BF0C00087119000875190008791900087D190008C10C0008B8
:2000A000811900088519000889190008C30C0008C50C0008C70C0008C90C0008CB0C000807
:2000C000CD0C0008CF0C0008D10C0008D30C00088D190008D50C0008D70C0008D90C000821
:2000E000DB0C0008DD0C0008DF0C0008911900089519000899190008E10C0008E30C00081F
:200100009D190008E50C0008E70C0008A1190008E90C0008EB0C0008A5190008A9190008DF
:20012000ED0C0008EF0C0008F10C0008F30C0008AD190008B1190008B5190008B91900085F
:2001400000000000000000000000000000000000BD190008C1190008C5190008C91900080F
:20016000CD190008D1190008D5190008D9190008DD190008E1190008E519000810B50400E0
:20018000DFF8F005844208D10121042000F039FB0021042000F035FB32E0DFF8DC05844295
:2001A00008D10121082000F02CFB0021082000F028FB25E0DFF8C405844208D10121102013
:2001C00000F01FFB0021102000F01BFB18E0DFF8B005844208D10121202000F012FB00211B
:2001E000202000F00EFB0BE0DFF89805844207D10121402000F005FB0021402000F001FBEA
:2002000010BDF0B500270022002300240025002691F803C01CF00F0C674691F803C05FEADC
:20022000CC6C03D591F802C05CEA070791F800C05FEA0C6C3AD0D0F800C065465FF0000C6D
:200240006346082B31D25FF0010C1CFA03FC6446B1F800C014EA0C0C6246A24223D15FEA5C
:20026000830C64465FF00F0C1CFA04FC6646B54317FA04FC5CEA050591F803C0BCF1280F90
:2002800006D15FF0010C1CFA03FCC0F814C00AE091F803C0BCF1480F05D15FF0010C1CFA08
:2002A00003FCC0F810C05B1CCBE70560B1F800C0BCF1FF0F3FDDD0F804C065465FF0000C57
:2002C0006346082B36D25FF0010C13F1080E1CFA0EFC6446B1F800C014EA0C0C6246A242EF
:2002E00026D15FEA830C64465FF00F0C1CFA04FC6646B54317FA04FC5CEA050591F803C0B4
:20030000BCF1280F07D15FF0010C13F1080E1CFA0EFCC0F814C091F803C0BCF1480F07D1D7
:200320005FF0010C13F1080E1CFA0EFCC0F810C05B1CC6E74560F0BD89B20161704789B29A
:2003400041617047F0B4B0F1004F40F29A800023002420F000473E00F7093B0016F07F06C2
:2003600037093C0016F00F06052B06D02700FFB2BF0016FA07F73A0005E06708FFB2BF003D
:2003800016FA07F73A00002B08D0022B0ED009D3042B13D00ED3052B14D017E0DFF8E873FB
:2003A0003D0013E0DFF8E4733D000FE0DFF8E0733D000BE0DFF8DC733D0007E0DFF8D873F5
:2003C0003D0003E0DFF8D4733D00FFE7002C0BD1052B04D12F68BF08BF002F6049E02F6843
:2003E0003F093F012F6044E0012C0BD1052B04D12F6837F00C072F603BE02F6837F0F00784
:200400002F6036E0022C0BD1052B04D12F6837F030072F602DE02F6837F470672F6028E067
:20042000032C0BD1052B04D12F6837F0C0072F601FE02F6837F470472F601AE0042C04D192
:200440002F6837F470272F6013E0052C04D12F6837F470072F600CE0062C04D12F6837F042
:2004600070672F6005E0072C03D12F6827F070472F60C9B2012940F07B812F683A432A60C7
:2004800076E10200012A63D0022A53D0042A51D0082A4FD0102A7BD0302A00F08980402A74
:2004A00000F09680C02A00F0A380B2F5807F00F0AF80B2F5007F00F0BB80B2F5407F00F0CD
:2004C000C780B2F5006F00F0D380B2F5406F00F0DF80B2F5805F2DD0B2F5804F00F0E88086
:2004E000B2F5C04F00F0F480B2F5004F22D0B2F5803F1FD0B2F5003F1CD0B2F5802F19D094
:20050000B2F5002F16D0B2F5801F13D0B2F5001F00F01E81B2F1807F00F0EA80B2F1007F83
:2005200000F0F680B2F1806F00F00281B2F1004F1ED01DE19A4A12688243994B1A60C9B276
:20054000012904D1964A12680243954B1A600FE1934A1268934B1A40914B1A60C9B2012929
:2005600005D18F4A126852F001028D4B1A60FFE08B4A12688B4B1A40894B1A60C9B201296A
:2005800005D1874A126852F00042854B1A60EFE0834A126832F03002814B1A60C9B2012917
:2005A00005D17F4A126852F010027D4B1A60DFE07B4A126832F03002794B1A60C9B2012957
:2005C00005D1774A126852F03002754B1A60CFE0734A126832F0C002714B1A60C9B20129B7
:2005E00005D16F4A126852F040026D4B1A60BFE06B4A126832F0C002694B1A60C9B20129B7
:2006000005D1674A126852F0C002654B1A60AFE0634A126832F44072614B1A60C9B2012952
:2006200005D15F4A126852F480725D4B1A609FE05B4A126832F44072594B1A60C9B201292E
:2006400005D1574A126852F40072554B1A608FE0534A126832F44072514B1A60C9B20129BE
:2006600005D14F4A126852F440724D4B1A607FE04B4A126832F44062494B1A60C9B201299E
:2006800005D1474A126852F40062454B1A606FE0434A126832F44062414B1A60C9B20129FE
:2006A00005D13F4A126852F440623D4B1A605FE03B4A126832F4C042394B1A60C9B201296E
:2006C00005D1374A126852F48042354B1A604FE0334A126832F4C042314B1A60C9B201295E
:2006E00005D12F4A126852F4C0422D4B1A603FE02B4A126832F0E062294B1A60C9B20129F2
:2007000005D1274A126852F08072254B1A602FE0234A126832F0E062214B1A60C9B2012915
:2007200005D11F4A126852F000721D4B1A601FE01B4A126832F0E062194B1A60C9B20129A5
:2007400005D1174A126852F08062154B1A600FE0134A126832F40012114B1A60C9B2012971
:2007600005D10F4A126852F400120D4B1A60FFE7F0BC704700080140000C01400010014076
:2007800000140140001801402000014024000140280001402C000140300001403400014029
:2007A00004000140FEFFFF7FC9B2002905D01C4A126802431A4B1A6004E0194A1268824376
:2007C000174B1A607047C9B2002905D0154A12680243144B1A6004E0124A12688243114B3B
:2007E0001A607047C9B2002905D00F4A126802430D4B1A6004E00C4A126882430A4B1A601D
:200800007047C9B2002905D0084A12680243074B1A6004E0054A12688243044B1A607047D9
:2008200014100240181002401C1002400C10024082B000210191019981420CD2002100914A
:200840000099142903D20099491C0091F8E70199491C0191EFE702B0704700B587B04FF480
:200860008050ADF8000010208DF8030002208DF802006946DFF8E802FFF7C3FC4FF4805169
:20088000DFF8DC02FFF758FD4FF46040ADF8000002208DF8020018208DF803006946DFF8E1
:2008A000C002FFF7AEFC0020ADF804004FF48270ADF806000020ADF808000020ADF80A0091
:2008C0000020ADF80C004FF40070ADF80E000020ADF810000020ADF812000720ADF8140055
:2008E00001A9DFF8800200F08BF90121DFF8740200F0B5F907B000BD10B504000221DFF83D
:20090000640200F0BEF90028F8D0E4B2210089B2DFF8500200F0B1F90121DFF8480200F0F2
:20092000B0F90028F8D00520FFF782FFDFF8340200F0A5F9C0B210BD70B504000D0016005C
:200940004FF48050884908600B20FFF7D5FF280CC0B2FFF7D1FF280AC0B2FFF7CDFF28005C
:20096000C0B2FFF7C9FFA520FFF7C6FF3000461E80B2002805D0A520FFF7BEFF2070641C7C
:20098000F4E74FF480507949086070BD10B504004FF48050744908600620FFF7ADFF4FF406
:2009A0008050724908604FF480506F4908602020FFF7A2FF200CC0B2FFF79EFF200AC0B26D
:2009C000FFF79AFF2000C0B2FFF796FF4FF480506649086000F002F8002010BD80B5002015
:2009E0008DF800004FF480505F4908600520FFF783FFA520FFF780FF8DF8000000F016FBF2
:200A00009DF80000C007F4D44FF480505749086001BD2DE9F04704000D001600002081467E
:200A2000280642D0D5F5807000F0FF0080463000414680B289B2884203D2B2460120814664
:200A400000E0C2464FF48050474908600620FFF753FF4FF480504549086000F0E7FA4FF418
:200A60008050414908600220FFF746FF280CC0B2FFF742FF280AC0B2FFF73EFF2800C0B209
:200A8000FFF73AFF5046B0F1010A80B2002806D02078FFF731FF641C761E6D1CF2E74FF43E
:200AA000805032490860FFF799FF1FFA89F9B9F1000F52D1300080B2000A8046300601D045
:200AC00018F10108002007003800414680B289B2884242D2280502D12800FFF757FFB6B2F7
:200AE000B6F5807F03DD4FF48070824600E0B2464FF480501C4908600620FFF7FDFE4FF45F
:200B000080501A49086000F091FA4FF48050164908600220FFF7F0FE280CC0B2FFF7ECFE59
:200B2000280AC0B2FFF7E8FE2800C0B2FFF7E4FE5046B0F1010A80B2002806D02078FFF7C3
:200B4000DBFE641C761E6D1CF2E74FF4805007490860FFF743FF7F1CB6E7BDE8F0870000EF
:200B6000000C014000380040140C0140100C014010B5C2B00400200501D001203EE0200062
:200B8000FFF704FF002000900098FF2807D80098009901AA11540098401C0090F4E74FF42B
:200BA0008072210001A8FFF734FF002000900098FF2807D8002001A9009A88540098401CCE
:200BC0000090F4E74FF48072210001A8FFF7B4FE002000900098FF2809D8009801A9085C0D
:200BE0000099884203D10098401C0090F2E70098B0F5807F01D1002000E0012042B010BD73
:200C000010B4002203881A0012F441528B891B0404D5838853F48073838004E083884FF628
:200C2000FF64234083800B884C8823438C882343CC8823430C8923434C8923438C89640437
:200C4000640C2343CC8923431A430280838B4FF2FF74234083830B8A038210BC7047C9B2E1
:200C6000002904D0028852F04002028004E002884FF6BF731A4002807047818170478089AD
:200C800070470200002013890B4202D00123180001E000231800C0B270477047704770471A
:200CA0007047704770477047704770477047704770477047704770477047704770477047C4
:200CC0007047704770477047704770477047704770477047704770477047704770477047A4
:200CE00070477047704770477047704770477047704770472DE9F04782B004000D00260018
:200D0000AF0801214020FFF74FFD00F093F900208046B84528D216F828008DF8000006EB53
:200D2000880040788DF8010006EB880080788DF8020006EB8800C0788DF803009DF8000027
:200D40009DF80110090451EA00609DF8021050EA01209DF8031008438146484600F06EF9A4
:200D6000824618F10108D4E700214020FFF71CFD5046BDE8F68710B582B004000020ADF8D6
:200D80000000BDF80000210089B2884209D24FF47A7000F007F8BDF80000401CADF80000CB
:200DA000EFE713BD81B00021ADF80210BDF80210020092B2914212D200218DF800109DF875
:200DC0000010152905DA9DF80010491C8DF80010F5E7BDF80210491CADF80210E6E701B00A
:200DE000704780B5AB206949088064206749488055206649888000206449C88000206349F9
:200E0000088100206149488100206049888200205E49C86000205D49086100F05CF801BDC3
:200E20002DE9F041B4B000275848804658480500584800880600320092B2290001A8FFF769
:200E40007BFD9DF80400AB2803D0FFF7CAFF00203EE0B11E89B201A800F0A0F8040020007F
:200E600001A9B6B2314411F8021CC0B288420AD1200080B2000A01A9B6B2314411F8011CA4
:200E8000C0B2884201D001200700FFB2002F1DD100208DF800009DF80000310080B289B277
:200EA00088420DD201A89DF80010405C88F8000018F101089DF80000401C8DF80000EAE7C6
:200EC0003548324991EC060B80EC060B3800C0B234B0BDE8F0812DE9F043B3B000242B4828
:200EE00005002B4807002B4800888046B8F1020189B2280000F052F881461FFA88F805EB19
:200F0000080000F8029C484680B2000A1FFA88F805EB080101F8010C424692B239002800A4
:200F2000FFF777FD424692B239006846FFF704FDB8F1020189B2684600F030F806003000BA
:200F400069461FFA88F8414411F8021CC0B288420BD1300080B2000A69461FFA88F841444C
:200F600011F8011CC0B2884201D001200400E4B2002C05D10848054991EC060B80EC060BD8
:200F80002000C0B233B0BDE8F08300002018002000D077000000002008180020F8B5040014
:200FA0000D000027002006003000290080B289B288420BD23A0092B24AF20101B6B2A05D49
:200FC00080B200F006F80700761CEDE7380080B2F2BD10B4030010005B0000242200D2B26F
:200FE000082A0FDA9BB25B089BB280B290EA0304E40703D580B291EA500001E080B240080B
:20100000521CECE780B210BC704780B545F2555000F01EF8042000F01FF84FF4487000F0AD
:201020001FF800F021F800F024F801BD80B500F01BF801BD012004490860704701000348F7
:201040000160024800687047083002400030024080B20A4908607047C0B209490860704753
:2010600080B20849086070474AF6AA200349086070474CF6CC400149086070470030004032
:201080000430004008300040DFF82802DFF828120860DFF82802DFF820120860704738B5D4
:2010A00004000425B4F1046F2BD35FF0FF3000F0EAF80500EDB2042D20D1DFF8080200688E
:2010C00050F00200DFF8FC110860DFF8FC010460DFF8F001006850F04000DFF8E811086062
:2010E0005FF0FF3000F0CFF80500DFF8D801006841F6FD710840DFF8CC1108602800C0B2FB
:201100002AE05FF0805000F0A7F80500EDB2042D20D1DFF8AC01006850F00200DFF8A0119B
:201120000860DFF8A8010460DFF89401006850F04000DFF88C1108605FF0805000F08CF8A0
:201140000500DFF87C01006841F6FD710840DFF8701108602800C0B232BD70B504000D0062
:201160000426B4F1046F21D35FF4002000F08BF80600F6B2042E16D1DFF84801006850F0C4
:201180000100DFF84011086025805FF4002000F07AF80600DFF82C01006841F6FE710840E4
:2011A000DFF8201108603000C0B220E04FF4704000F052F80600F6B2042E16D1DFF8000151
:2011C000006850F00100DFF8F810086025804FF4704000F041F80600DFF8E400006841F6FE
:2011E000FE710840DFF8D81008603000C0B270BD042038490968C90702D5012108000FE06C
:2012000034490968490702D50221080008E031490968C90602D50321080001E004210800DB
:20122000C0B2704704202A490968C90702D5012108000FE026490968490702D5022108008B
:2012400008E023490968C90602D50321080001E004210800C0B2704738B504000425FFF7B0
:20126000C7FF0500EDB2012D06D1002C04D0FFF7BFFF0500641EF5E7002C01D105200500C0
:201280002800C0B232BD38B504000425FFF7CAFF0500EDB2012D06D1002C04D0FFF7C2FF8C
:2012A0000500641EF5E7002C01D1052005002800C0B232BD2301674504200240AB89EFCDF4
:2012C000102002409020024094200240142002408C2002400C20024038B5644800680400DD
:2012E00063482040B0F1005F08D162480068040025005E48006880F30888A84731BD2DE9CB
:20130000F84304000D001700FFF7BEFE600502D12000FFF7C4FEFFF789FEBFB2781C4710CF
:20132000002006003000390080B289B2884217D25FF00208E94642462900484600F09EF8B1
:20134000BDF800102000FFF708FF2088BDF80010884201D0012004E0AD1CA41C761CE1E7BB
:201360000020BDE8F2832DE9F04104005FF00308E00A060000200500B5422BD24FF40062E0
:201380004FF4006000FB05F010F5F0013A48FFF7D3FA002080465FFA88F8B8F1030F10DA1B
:2013A000FFF744FE4FF4006233494FF400602F4B00FB0530FFF7A3FF002802D018F10108E3
:2013C000E9E75FFA88F8B8F1030F01D100204AE06D1CD1E76005400D0600600529D0320004
:2013E00092B24FF4006000FB05F010F5F0012248FFF7A2FA002080465FFA88F8B8F1030FAA
:2014000010DAFFF713FE320092B21B494FF40060164B00FB0530FFF772FF002802D018F163
:201420000108E9E75FFA88F8B8F1030F01D1002019E00020070000200500A54211D23A0004
:2014400092B24AF2010105F1006010F580400078C0B280B2FFF7BDFD0700FFF7E7FD6D1CB9
:20146000EBE7380080B2BDE8F0810000004000080000FF2F044000080810002062B38B0779
:2014800008D0521E11F8013B00F8013B00F024808B07F6D1830740F0208000BF103A07D361
:2014A00030B4B1E83810103AA0E83810F9D230BC530724BFB1E80810A0E8081044BF51F8BC
:2014C000043B40F8043BD20724BF31F8022B20F8022B44BF0B7803707047083A07D3B1E89A
:2014E0000810083A40F8043B40F804CBF7D25307E4E7000070B50025002672B600F06FF837
:2015000001215FF00070FEF71DFF00F09BF8FFF7A4F96420FFF72FFC5548FFF729FB040063
:20152000FFF77EFC00F083F852488088552805D15048808A002801D1FFF7CEFE4D488088E0
:20154000AA2822D14B48808A55281ED162B6FFF75CFD80214848FEF7F2FE4648C068FFF794
:2015600002FF4449498980B2884202D1552043498880002041498882FFF7ADFC80213E48B9
:20158000FEF7DAFEFFF752FDFEE73D493D48FFF7B1FB06003C4800680500AE420BD1002EB6
:2015A00009D016F1010F06D0002D04D015F1010F01D0FFF791FE62B6FFF727FDFFF736FD9D
:2015C00080212D48FEF7BBFE6420FFF7D4FB80212948FEF7B1FE6420FFF7CDFBEEE780B5FC
:2015E00001210120FFF7FEF801214FF48050FFF7EAF801214FF48040FFF7F4F80121042062
:20160000FFF7E1F801210820FFF7DDF801211020FFF7D9F801212020FFF7D5F80121402026
:20162000FFF7D1F801210120FFF7CDF801BD80B500215FF0006000F02EF84FF4A06000F0E1
:2016400025F801BD80B50C48FEF798FD8020ADF8000010208DF8030002208DF80200694647
:201660000548FEF7CEFD80210348FEF765FE01BD00C0770008180020001801402018002033
:20168000FCBF030000400008FCFF030805490143054A11607047054A0A400243044B1A608E
:2016A000704700000000FA050CED00E080FFFF1F08ED00E080B54E48006850F470004C49AD
:2016C00008604C48006850F001004A4908604A480068002048490860464800684749084089
:2016E000444908604348006830F48020414908605FF41F004249086000F005F85FF000604B
:201700004049086001BD80B500F001F801BD82B000200190002000903648006850F48030D1
:20172000344908603348006810F4003000900198401C01900098002803D10198B0F5A06FB6
:20174000F0D12C480068800302D50120009001E0002000900098012847D12B48006850F05C
:201760001000294908602848006880088000264908602548006850F00200234908601E4877
:2017800000681D4908601C4800681B4908601A48006850F4806018490860174800681B4999
:2017A0000840154908601448006850F4E810124908601048006850F080700E4908600D4854
:2017C00000688001FBD50C480068800880000A4908600948006850F00200074908600648D0
:2017E000006810F00C000828F9D102B07047000088ED00E00010024004100240FFFFF6FE23
:201800000810024008ED00E000200240FFFFC09F19E050F8041BCB0744BFA9F10103591896
:20182000121F0023042A41F8043BF9D25FEA827C0B4604D54FF0000CA1F800C09B1CD1073F
:2018400044BF0021197050F8042B002AE1D1704710B450F8041B79B10268436802440830E9
:20186000DC0744BFA9F10104E31852F8044B43F8044B091FF9D1ECE710BC704710B5074968
:2018800079441831064C7C44163404E00A68081D114488470146A142F8D110BD2C0000005B
:2018A0004C0000004EF68851CEF20001086840F470000860BFF34F8FBFF36F8F4FF0007093
:2018C000E1EE100A7047000049FFFFFF30080000081000200000000079FFFFFF0400000038
:2018E00008010000000000200000000000F00BF8002801D0FFF7C2FF0020AFF30080FFF7E4
:20190000F9FD00F002F80120704700F001B800000746384600F002F8FBE7000080B5AFF3F8
:201920000080024A11001820ABBEFBE7260002000148804701480047B5160008411900084A
:20194000AFF30080FFF7AEFFFFF7D0FFFFF7FEBFFFF7FEBFFFF7FEBFFFF7FEBFFFF7FEBF7E
:20196000FFF7FEBFFFF7FEBFFFF7FEBFFFF7FEBFFFF7FEBFFFF7FEBFFFF7FEBFFFF7FEBFCF
:20198000FFF7FEBFFFF7FEBFFFF7FEBFFFF7FEBFFFF7FEBFFFF7FEBFFFF7FEBFFFF7FEBFAF
:2019A000FFF7FEBFFFF7FEBFFFF7FEBFFFF7FEBFFFF7FEBFFFF7FEBFFFF7FEBFFFF7FEBF8F
:2019C000FFF7FEBFFFF7FEBFFFF7FEBFFFF7FEBFFFF7FEBFFFF7FEBFFFF7FEBFFFF7FEBF6F
:0C19E000FFF7FEBFFFF7FEBF180000007D
:20400000681100208DE90108D1EC0108D5EC0108D9EC0108DDEC0108E1EC01080000000082
:20402000000000000000000000000000E5EC0108E9EC010800000000EDEC0108F1EC010800
:2040400041CF010843CF010845CF010847CF01086BCF01086DCF01086FCF010871CF0108D8
:2040600073CF010875CF010877CF010879CF01087BCF01087DCF01087FCF0108ABCF010886
:20408000ADCF0108AFCF0108B1CF0108F5EC0108F9EC0108FDEC010801ED0108B3CF01083F
:2040A00005ED010809ED01080DED0108B5CF0108B7CF0108D7CF0108F3CF0108F5CF0108A0
:2040C000F7CF0108F9CF0108FBCF0108FDCF010811ED0108FFCF010849D0010893D001082C
:2040E00027D1010829D101082BD1010815ED010819ED01081DED01082DD101082FD101087A
:2041000021ED010831D1010833D1010825ED010835D101087FD1010829ED01082DED0108AB
:2041200005D2010807D2010809D201080BD2010831ED010835ED010839ED01083DED01083F
:204140000000000000000000000000000000000041ED010845ED010849ED01084DED01086B
:2041600051ED010855ED010859ED01085DED0108DDD0010861ED010865ED01085A21DFF851
:20418000F82982F82F1000210800C0B209281ADA0021DFF8E429C0B2024451700021DFF80F
:2041A000D829C0B2024491720021DFF8CC29C0B20244D1740021DFF8C029C0B202EB4002D7
:2041C0009183401CE1E70021DFF8AC2911700021DFF8A42982F82E10704738B5DFF89C09BC
:2041E0000068807A0400DFF894090068407A0500DFF88C090078002859D05A20DFF87819A7
:2042000081F82F0005F0B0FCDFF874090078012805D1DFF870290021022007F05FFEDFF8AC
:2042200060090078402805D1DFF85C290021022007F054FEDFF848090078102805D1DFF8F2
:204240004C290021022007F049FEDFF834090078082805D1DFF838290021022007F03EFE28
:20426000DFF81C090078802805D1DFF828290021022007F033FEDFF808090078202805D13B
:20428000DFF814290021022007F028FEDFF8F0080078022805D1DFF804290021022007F025
:2042A0001DFE5A20DFF8D01881F82F0073E1DFF8CC0800680069002805D0DFF8C00800682E
:2042C0000069804730E1DFF8D8080078002800F0E4800E2007F09DF808F019F90020DFF837
:2042E000C41808806420DFF8C0180870DFF88C080068007A00281AD0DFF880080068807A8F
:2043000009280ADB0321DFF874080068807A40001038C0B207F00EFB09E00321DFF85C086C
:204320000068807A4000801CC0B207F003FBDFF870084078012809D0102861D0402874D0BA
:2043400080282BD0812800F0858096E0DFF82C080068807A092190FBF1F201FB120000286B
:2043600004D15A20DFF8101881F82F00E4B2002C0CD1DFF808080068EDB2142101FB05F193
:2043800008441438DFF8F417086006E0DFF8EC0700681438DFF8E417086076E0DFF80C085C
:2043A000007890F00100DFF804180870E4B2EDB2681E84420CD1DFF8C4070068EDB2691E0B
:2043C0007FF0130251430844DFF8B017086006E0DFF8A80700681430DFF8A0170860DFF88E
:2043E0009C070068807A092190FBF1F201FB1200002804D15A20DFF8801781F82F0044E061
:204400005A20DFF8741781F82F00DFF8700700684068002839D0DFF8640700684068DFF860
:204420005C170860002004002FE05A20DFF8481781F82F00DFF8440700680068002824D008
:20444000DFF8380700680068DFF830170860002004001AE00020DFF8481748700020DFF8CD
:20446000401708705A20DFF8101781F82F000020DFF8041781F82E008DE00020DFF82017F9
:2044800048700020DFF8181708700020DFF8101748700020DFF808170870DFF8E00600683D
:2044A0000069002807D008F032F8DFF8D00600680069804738E0DFF8C4060068007A00286A
:2044C0001ED005F051FB08F022F8DFF8B0060068807A09280ADB0321DFF8A0060068807A93
:2044E00040001038C0B207F0CCF909E00321DFF88C060068807A4000801CC0B207F0C1F92F
:20450000DFF878060068007A002801D100F0D8FCDFF868060068C068002805D0DFF85C069B
:204520000068C06800F038F8DFF87806008878280CDB0020DFF86C1608800E2006F0E6FF5D
:2045400007F0BFFE0020DFF864190880DFF86009007800281FD1DFF824060068007A0028D0
:2045600019D0DFF85009DFF81416086007F0A9FEFFF704FE4AF25A50DFF83C190880DFF8B2
:20458000FC050068C068002805D0DFF8F0050068C06800F001F831BD38B504000020050044
:2045A000EDB20C2D0ADA62686178207807F096FC08346068002801D06D1CF1E731BD2DE919
:2045C000F34F83B014001D000E9E109F002081465FFA89F9B9F1200F09DA0020DFF8DC1871
:2045E0005FFA89F901F8090019F10109F0E79DF83C008DF80000002083469DF800000028F7
:2046000000F0E88005208DF802009DF8000082469DF8000010F0700010281BD1EDB2680009
:204620008DF80200EDB2012D04D1DFF89018387808F09CFBEDB2022D40F0EA80DFF87C18C0
:2046400038784FF480727B7802FB003080B208F056FCDDE09DF8000010F07000202806D0F9
:204660009DF8000010F07000302840F0D1809DF8000010F0070082465FFA8AFABAF1000F61
:204680003FD13020DFF834185FFA8BFB01F80B001BF1010B7878C0B200098DF801009DF816
:2046A00001003030DFF814185FFA8BFB01F80B001BF1010B787810F00F003030DFF8FC1752
:2046C0005FFA8BFB01F80B001BF1010B3878C0B200098DF801009DF801003030DFF8DC176E
:2046E0005FFA8BFB01F80B001BF1010B387810F00F003030DFF8C4175FFA8BFB01F80B000B
:2047000086E0EDB25FFA8AFADAEB450A7878C0B200098DF801009DF801003030DFF89C1732
:204720005FFA8BFB01F80B001BF1010B50465946C0B2C9B2884208D12E20DFF880175FFAA4
:204740008BFB01F80B001BF1010B787810F00F003030DFF868175FFA8BFB01F80B001BF113
:20476000010B50465946C0B2C9B2884208D12E20DFF848175FFA8BFB01F80B001BF1010BE9
:204780003878C0B200098DF801009DF801003030DFF828175FFA8BFB01F80B001BF1010B61
:2047A00050465946C0B2C9B2884208D12E20DFF80C175FFA8BFB01F80B001BF1010B387841
:2047C00010F00F003030DFF8F4165FFA8BFB01F80B001DE0EDB268008DF80200EDB2012D4E
:2047E00004D1DFF8D816387808F02AFBEDB2022D0ED1387879784FF48072514351FA80F080
:20480000ADF80400DFF8B416BDF8040008F0CFFA012081465FFA89F93078401C814514DA59
:204820005FFA89F916F80900DFF89016E4B2095700B209B2884205D15FFA89F906EB090031
:20484000804602E019F10109E4E7DFF854030078002800F0D180DFF84803407801280CD0E3
:2048600008286FD0102800F09B8020283DD0402800F0A88080281BD0AEE098F800002028B8
:2048800002D1701C804601E018F1010898F90000DFF82816E4B20855DFF82006E4B200577D
:2048A000202804D13020DFF81416E4B208559BE098F80000302804D130783044401E80461F
:2048C00001E0B8F1010898F90000DFF8F015E4B20855DFF8E805E4B20057202804D13020C7
:2048E000DFF8D815E4B208557EE0E4B2002C04D19DF80200401E040000E0641E00208146CA
:2049000048463178C0B2884214D25FFA89F916F80900DFF8A815E4B2095700B209B288428B
:2049200005D15FFA89F906EB0900804602E019F10109E5E7DFF88405E4B200572E2800D1D0
:20494000641E51E0E4B29DF80200401E844202D10020040000E0641C0020814648463178DE
:20496000C0B2884214D25FFA89F916F80900DFF84C15E4B2095700B209B2884205D15FFA8F
:2049800089F906EB0900804602E019F10109E5E7DFF82805E4B200572E2800D1641C23E078
:2049A0000020DFF8FC1148700020DFF8F4110870DFF808259DF810109DF80C0007F08EFAEE
:2049C000A520D5E00020DFF8D81148700020DFF8D01108705A20CBE00020DFF8C4114870CC
:2049E0000020DFF8BC1108700020DFF8B41148700020DFF8AC1108709DF8000000284CD002
:204A00009DF8000010F0700010282AD1EDB2012D0DD1DFF8A80490F900000A21DFF89C24E5
:204A200092F9012001FB00201038387084E0EDB2022D40F08180DFF8840408F018FB4FF4AE
:204A4000807190FBF1F038707F1CDFF8700408F00EFB4FF4807190FBF1F201FB1200387012
:204A60006AE09DF8000010F07000202805D09DF8000010F0700030285ED19DF8000010F0A9
:204A8000070082465246D2B23900DFF8300400F08FF8002850D15A206AE0EDB2012D0CD1B9
:204AA000DFF8180440780100C9B2DFF810040078C0B208F01FFB38703EE0EDB2022D15D16E
:204AC000DFF8F80308F0F4FA4FF4807190FBF1F201FB120038707F1CDFF8E00308F0E8FA97
:204AE0004FF4807190FBF1F0387025E0DFF8CC0340780100C9B2DFF8C4030078C0B208F00F
:204B0000F9FA38707F1CDFF8B403C0780100C9B2DFF8A8038078C0B208F0ECFA38707F1C10
:204B2000DFF8980340790100C9B2DFF890030079C0B208F0DFFA3870DFF880239DF81010D1
:204B40009DF80C0007F0CAF90123DFF87003E4B2005D0200D2B29DF810002118C9B29DF825
:204B60000C00C0B24000C0B206F0E2FF2000C0B205B0BDE8F08F00000C6000204C62002069
:204B80002C63002048E601085CE6010870E6010884E6010898E60108ACE60108C0E6010841
:204BA00030620020B6620020286300203663002078B403000024D2B2042A01DB002030E096
:204BC00000200500EDB2042D05DA00206E46EDB270556D1CF6E700200500EDB2052D0EDA85
:204BE000EDB2D2B2D2F10400854205D0187830386E46E4B23055641C5B1C6D1CEDE79DF87F
:204C0000020000019DF8036050FA86F00870491C9DF8000000019DF8016050FA86F0087038
:204C2000012072BC70472DE9FF47040004F09CFFDFF88C0C00785A280BD05A20DFF8801C4E
:204C4000087000208DF80D009DF80D008DF80C000FE000200500EDB2022D0ADADFF8600CEE
:204C6000EDB200EB4500808B03A9EDB248556D1CF1E7E4B2032C02D0E4B2002C06D1DFF80A
:204C8000882A0121022007F029F90BE0DFF87C2A0021012007F022F9DFF86C2A0121022098
:204CA00007F01CF903A8029010200190DFF8140C00900223DFF8080CDFF8041C91F82E1095
:204CC0000844C27C0C210220FFF779FC0600F6B25A2E21D10020DFF8E81B08705A20DFF8A5
:204CE000E01B81F82F000020DFF8D41BDFF8D02B92F82E201144C87400200500EDB2052DFA
:204D000008DA0020DFF8B81BEDB201EB450188836D1CF3E75A20C5E0F6B2A52E40F0A980B5
:204D20000020DFF89C1B08705A20DFF8941B81F82F000020DFF8881BDFF8842B92F82E20AD
:204D40001144C87400200500EDB2052D08DA0020DFF86C1BEDB201EB450188836D1CF3E72D
:204D60009DF80C004FF480719DF80D2001FB00200700DFF8540B407908F0F5F98146DFF806
:204D8000480B007908F0EFF980461FFA89F964201FFA88F800FB0988DFF82C0B007908F0DE
:204DA000E2F98146DFF8200B807908F0DCF982461FFA89F964201FFA8AFA00FB09AADFF880
:204DC0000C0BC0794FF48071DFF8002B127A01FB00208146E4B2002C05D13800494680B24D
:204DE00089B2884208D0E4B2022C07D13800494680B289B2884201D1A52053E0E4B2012CAF
:204E000007D13800414680B289B2884201D1A52048E0E4B2032C07D13800514680B289B22C
:204E2000884201D1A5203DE0BFB2B7F57A7F01D1A52037E0BFB241F60630874201D1A520F2
:204E400030E05A20DFF8781A81F82F0004F08CFEDFF87C2A0321022007F040F8FFF78EF9CA
:204E6000DFF8700A00680068DFF8681A08605A2018E0DFF84C0ADFF8481A91F82E10084465
:204E8000C67400200500EDB2022D0ADA03A8EDB2405DDFF82C1AEDB201EB450188836D1C98
:204EA000F1E7FF2004B0BDE8F0870000B46200202763002038E70108305E00209C5E00205B
:204EC00038B52DED028B82B0DFF80C0A0078002806D0DFF8040A0078401EDFF8FC1908708A
:204EE000DFF8F4090078002840F0BF820220DFF8E819087007F00BFBDFF8E00900780028FE
:204F000010D10620DFF8D4190870DFF8D409007890F00100DFF8C81908705A20DFF8A01967
:204F200081F82F0004F020FE00200400A4B2202C06DA0020DFF8AC19A4B20855641CF5E746
:204F4000DFF8A4290021002006F0C8FFDFF89C09009010235A220021062006F03BFDDFF8A8
:204F600090090068800708D4DFF888090090082302220D21082006F075FDDFF8740900680C
:204F8000400708D4DFF86C090090082302228C21082006F067FDDFF858090068000708D411
:204FA000DFF8500900901023012246210D2006F011FDDFF844290021012006F08FFFE5A2B2
:204FC0000321042006F08AFFE3A20E21042006F085FFE2A20821072006F080FF002004004B
:204FE000A4B2142C06DA0020DFF81019A4B20855641CF5E7DFF8080980886428C0F2B880A6
:20500000DFF8000990ED080AB8EE400ADFF8F008808800EE900AF8EE600A20EE200ADFED7E
:20502000E80A80EE200AB0EE408A9FEDE60AB4EE408AF1EE10FA0CDB18EE100A08F08EF927
:2050400002000B00DFF8C018DFF8B00808F0B2F90BE018EE100A08F081F902000B00DFF801
:20506000AC18DFF8980808F0A5F9DFF890280121022006F033FFDFF88C0890ED0C0AB8EEC0
:20508000400ADFF87C08808800EE900AF8EE600A20EE200ADFEDCA0A80EE200AB0EE408AB3
:2050A0009FEDC80AB4EE408AF1EE10FA0CDB18EE100A08F053F902000B00DFF84C18DFF8D3
:2050C0003C0808F077F90BE018EE100A08F046F902000B00DFF83418DFF8200808F06AF958
:2050E000DFF818280E21022006F0F8FEDFF8140890ED100AB8EE400ADFF80408808800EE09
:20510000900AF8EE600A20EE200ADFEDAD0A80EE200AB0EE408A9FEDAB0AB4EE408AF1EE5E
:2051200010FA0CDB18EE100A08F018F902000B00DFF8D417DFF8C40708F03CF90BE018EEC6
:20514000100A08F00BF902000B00DFF8C017DFF8AC0708F02FF9DFF8A4270121072006F0F3
:20516000BDFEDFF898270E21072006F0B7FE9BE0DFF8900790ED080AB8EE400ADFED910A0E
:2051800080EE200AB0EE408A9FED8E0AB4EE408AF1EE10FA0CDB18EE100A08F0DFF80200BE
:2051A0000B00DFF8701BDFF8540708F003F90BE018EE100A08F0D2F802000B00DFF8581B38
:2051C000DFF8380708F0F6F8DFF830270121022006F084FEDFF82C0790ED0C0AB8EE400A5C
:2051E000DFED780A80EE200AB0EE408A9FED750AB4EE408AF1EE10FA0CDB18EE100A08F002
:20520000ADF802000B00DFF80C1BDFF8F00608F0D1F80BE018EE100A08F0A0F802000B00A8
:20522000DFF8F41ADFF8D40608F0C4F8DFF8CC260E21022006F052FEDFF8C80690ED100A88
:20524000B8EE400ADFED5F0A80EE200AB0EE408A9FED5C0AB4EE408AF1EE10FA0CDB18EEF5
:20526000100A08F07BF802000B00DFF8A81ADFF88C0608F09FF80BE018EE100A08F06EF8A2
:2052800002000B00DFF8901ADFF8700608F092F8DFF868260121072006F020FEDFF85C2696
:2052A0000E21072006F01AFEDFF8580690ED000AB8EE400ADFED430A80EE200AB0EE408AC5
:2052C0009FED6C0AB4EE408AF1EE10FA0CDB18EE100A08F043F802000B00DFF8D41BDFF893
:2052E0001C0608F067F81FE09FED360AB4EE408AF1EE10FA0CDB18EE100A08F02FF80200ED
:205300000B00DFF8B01BDFF8F40508F053F80BE018EE100A08F022F802000B00DFF8981B19
:20532000DFF8D80508F046F8DFF8D0250321052006F0D4FDDFF8CC0590ED040AB8EE400A84
:20534000DFED200A80EE200AB0EE408A9FED490A06E000BF31444C0032444C0033444C008D
:20536000B4EE408AF1EE10FA0CDB18EE100A07F0F5FF02000B00DFF8381BDFF8800508F05B
:2053800019F825E09FED0F0AB4EE408AF1EE10FA0CDB18EE100A07F0E1FF02000B00DFF83B
:2053A000141BDFF8580508F005F811E018EE100A07F0D4FF02000B00DFF8FC1A04E000BF1D
:2053C000002474490000C842DFF8300507F0F2FFDFF828250B21052006F080FDDFF8DC2A29
:2053E0000021082006F07AFDDFF8D42A0021092006F074FD00200400A4B2142C06DA0020B7
:20540000DFF8F814A4B20855641CF5E70020050000200400A4B2052C16DADFF8A80A0078D9
:205420000121A14008420DD0A4B22200DFF8981ADFF8C804ADB2052303FB05F3184407F0CE
:20544000B9FF6D1C641CE5E7DFF8B0240521082006F044FDDFF8740A0078C00705D5DFF84A
:20546000702A0521092006F039FD02B0BDEC028B31BD000000007A4410B5DFF85C0400780F
:20548000002806D0DFF850040078401EDFF848140870DFF844040078002840F0928002203F
:2054A000DFF834140870DFF82C0A0078092190FBF1F00400DFF81C0A0078092190FBF1F229
:2054C00001FB1200002800D0641CDFF80C0A007800285CD0DFF8000A407808281BD0202891
:2054E00002D0402830D041E0DFF8D4034078002807D0DFF8CC034078401EDFF8C4134870CA
:2055000003E0601EDFF8B81348705A20DFF8B01381F82F0033E0DFF8A8034078E4B2611EB2
:20552000884207D0DFF898034078401CDFF89013487003E00020DFF8881348705A20DFF894
:20554000801381F82F001AE00020DFF88C1948700020DFF884190870FEF710FEDFF8740365
:2055600000680068DFF86C1308602AE00020DFF8681948700020DFF86019087021E000205A
:20558000DFF8541948700020DFF84C19087004F0EBFADFF848290221002006F09FFCDFF86F
:2055A00040290A21002006F099FCDFF838291021002006F093FCC24842780121002004F0A4
:2055C000F5FD10BD70B5C4480078002804D0C2480078401EC0490870BF480078002840F02F
:2055E00091800220BC490870DFF8FC080078050000200400E4B2202C05DA0020B949E4B206
:205600000855641CF6E7EDB2092095FBF0F00600EDB2092095FBF0F100FB1150002800D005
:20562000761CDFF8B4080078002853D0DFF8A8084078012808D0082818D0202804D04028A6
:2056400028D0802812D035E09D484078002805D09B484078401E9A49487002E0701E984934
:2056600048705A20964981F82F002BE094484078F6B2711E884205D091484078401C904936
:20568000487002E000208E4948705A208C4981F82F0017E00020DFF8401848700020DFF8D5
:2056A00038180870FEF76AFD8A48006800688949086027E00020DFF8201848700020DFF805
:2056C000181808700020DFF8101848700020DFF80818087004F048FADFF800280121002045
:2056E00006F0FCFBDFF8E82C0821002006F0F6FB73484078092110FB01F2D2B20121012040
:2057000004F008FE70BD00001CEB010810E70108F8B504F029FADFF8BC0C0078092190FBC2
:20572000F1F00500DFF8AC0C0078092190FBF1F201FB1200002800D06D1CDFF89C07007863
:20574000002853D03C20DFF8901C08705A205C4981F82F00DFF880074078012808D0082899
:2057600014D0202804D0402820D080280ED02DE053484078002805D051484078401E5049A6
:20578000487002E0681E4E49487027E04C484078EDB2691E884205D049484078401C48494C
:2057A000487002E000204649487017E00020DFF8281748700020DFF820170870FEF7DEFC8E
:2057C0004448006800684349086077E00020DFF8081748700020DFF8001708700020DFF8D7
:2057E000F81648700020DFF8F016087004F0BCF9DFF8E00B007832494978092202FB110016
:205800000700FFB20A2F01DB0920070006F07FFE0020040020003900C0B2C9B288424DD2C5
:20582000274840780921484350FA84F006002D49701CC0B207F09AFA2E202A4988700020F0
:205840002849C870274A00212000C0B206F046FB00200090DFF8E00C0068F6B2112101FB93
:2058600006F10844431C102203212000C0B206F0A9FB134840780921484350FA84F001007D
:20588000C9B2DFF8B80C07F031FA00280AD000200090DFF8AC3C042210212000C0B206F080
:2058A00091FB09E000200090DFF8983C042210212000C0B206F086FB641CABE7F1BD0000F8
:2058C0000C60002000000020B86100207C610020FCE601084C6200202963002028630020D6
:2058E000366300209C5E002020E6010880C60108206200202CE901081CE501081461002018
:205900003C600020E45C0020CCEB0108D4EB01082DE9F843DFF8300C90F82E0000281FD1B1
:205920000020FFF780F90700FFB25A2F09D1FEF725FCDFF8180C00680068DFF8101C086071
:20594000E5E1FFB2A52F0AD15A20DFF8FC1B81F82F000120DFF8F01B81F82E0000E0D6E1D0
:20596000DFF8E40B90F82E00012840F0C581DFF8D80B90F82F005A2819D106F0A2FC00207B
:20598000DFF8C41B81F82F00002080464046DFF8C01B0978C0B2884209D2A520DFF8B41B88
:2059A0005FFA88F801F8080018F10108EEE7DFF8A00B0078092190FBF1F08146DFF8900B5D
:2059C0000078092190FBF1F201FB1200002801D019F1010906F09BFDDFF8FC040078002897
:2059E00000F00181DFF8F004407801280DD0082800F09480102800F0C080202862D040282E
:205A000000F0CC8080282ED0E1E0DFF83C0BC07A002807D0DFF8300BC07A401EDFF8281BC8
:205A2000C87206E0DFF8280B0078401EDFF8181BC872DFF8140B8078DFF80C1BC97A0922C8
:205A400091FBF2F1884204D05A20DFF8FC1A81F82F00DFF8F40AC07A092190FBF1F0DFF8AE
:205A6000E81A8870B9E0DFF8E00AC07ADFF8E01A0978491E884207D0DFF8CC0AC07A401CFB
:205A8000DFF8C41AC87203E00020DFF8BC1AC872DFF8B40A8078DFF8B01AC97A092291FB05
:205AA000F2F1884204D05A20DFF89C1A81F82F00DFF8940AC07A092190FBF1F0DFF8881AF8
:205AC00088708AE0DFF8800A8078002807D0DFF8780A8078401EDFF8701A887004E0B9F176
:205AE0000100DFF8641A8870DFF85C0A8078DFF8581AC97A092291FBF2F1884204D05A20E5
:205B0000DFF8441A81F82F00DFF83C0A8078092110FB01F0DFF8301AC8725EE0DFF8280ACB
:205B200080785FFA89F9B9F10101884207D0DFF8180A8078401CDFF8101A887003E00020FC
:205B4000DFF8041A8870DFF8000A8078DFF8F819C97A092291FBF2F1884204D05A20DFF8CB
:205B6000E81981F82F00DFF8E0098078092110FB01F0DFF8D419C8722FE00020D64948709A
:205B80000020D54908700220DFF8BC1981F82E00DFF8B409C07A00F0C1F8B8E00020CE4994
:205BA00048700020CC490870FEF7E8FA3220DFF8A8190880DFF8940900680068DFF88C1977
:205BC00008605A20DFF8801981F82F009FE00020C14948700020C04908700020BE494870EA
:205BE0000020BD49087003F0BFFFDFF864090078DFF854198978092202FB11000500EDB278
:205C00000A2D01DB0920050006F081FC0020040020002900C0B2C9B288426DD2DFF8280965
:205C200080780921484350FA84F00600DFF82C19701CC0B207F09AF82E20DFF820198870FA
:205C40000020DFF81819C870DFF8102900212000C0B206F043F9DFF8F008C07A0921E4B226
:205C600090FBF1F201FB1200844210D101200090DFF8EC08F6B2112101FB06F10844431C0D
:205C8000082203212000C0B206F09CF90FE000200090DFF8CC08F6B2112101FB06F1084436
:205CA000431C082203212000C0B206F08BF9DFF8A408DFF8AC18F6B2112202FB06F2895C58
:205CC000084410F8010CA5280AD100200090DFF8943804220F212000C0B206F073F909E035
:205CE00000200090DFF8803804220F212000C0B206F068F9641C8BE7DFF84C0890F82E0053
:205D0000022804D1DFF84008C07A00F007F8BDE8F1830000DCEB0108E4EB010838B504008A
:205D2000E4B20A2094FBF0F100FB114005006A480078002800F09E803C20DFF89C16087025
:205D400043F69820DFF82418088040F2DC50DFF80818088060484078102802D0402871D0C7
:205D60007CE00120DFF8E01781F82E00DFF8E407DFF8EC17E4B2112202FB04F2895C0844A8
:205D800010F8010CA5282CD1DFF8C807DFF8D017E4B2112202FB04F2895C0844A32100F817
:205DA000011CDFF8BC07E4B2112101FB04F1405CDFF89C170978884209D1DFF8A407E4B210
:205DC000112101FB04F1405C05F0A0FB35E0DFF89007E4B2112101FB04F1405C05F019FB93
:205DE0002BE0DFF87007DFF87817E4B2112202FB04F2895C0844A52100F8011CDFF86007DE
:205E0000E4B2112101FB04F1405CDFF844170978884209D1DFF84807E4B2112101FB04F1F7
:205E2000405C05F0F6FA08E0DFF83407E4B2112101FB04F1405C05F069FB0021092007F0F8
:205E4000FEFF11E00020244948700020224908700120DFF8F41681F82E0028E000201E49D4
:205E6000487000201C49087000201B494870002019490870DFF8DC06DFF8E416E4B21122E4
:205E800002FB04F2895C084410F8010CA52807D1DFF8D0260F212800C0B206F059F806E060
:205EA000DFF8C4260F212800C0B206F051F831BDECEB0108F4EB0108FCEB010834E5010850
:205EC0004CE501081963002004EC01081A6300208CE701082EEC0008306200201CEC0108F5
:205EE00024EC01082CEC0108C2F600082DE9F843DFF8540690F82E0000281FD10020FEF743
:205F000092FE0600F6B25A2E09D1FEF737F9DFF83C0600680068DFF83416086055E2F6B26B
:205F2000A52E0AD10120DFF8201681F82E005A20DFF8141681F82F0000E046E2DFF80806CE
:205F400090F82E00012840F03782DFF8500DC078002803D1DFF8480D070002E0DFF8440DD4
:205F600007003F1D002080464046DFF83C1D0978C0B2884221D23878DFF8301D5FFA88F8C5
:205F800001F808007F1CDFF8240D5FFA88F810F80800A5280ED0DFF8140D5FFA88F810F8F0
:205FA00008005A2806D0A520DFF8001D5FFA88F801F8080018F10108D6E7DFF8EC0C0078D8
:205FC000082190FBF1F08146DFF8DC0C0078082190FBF1F201FB1200002801D019F101097C
:205FE000DFF8C40C0078DFF860158978B0EBC1000500EDB2092D01DB0820050003F0B4FD52
:20600000DFF8382D0221002005F068FFDFF8302D0E21002005F062FF00200400200029005F
:20602000C0B2C9B2884267D2DFF81C058078C0B214EBC000401CC0B206F08FFEDFF81C15F6
:2060400008702E20DFF8141548700020DFF80C158870DFF808250021601CC0B205F03EFF6D
:20606000DFF8E404C07A0821E4B290FBF1F201FB1200844212D1DFF8CC0C0068DFF8C81479
:206080008978C90051FA84F10C22514300EB01020221601CC0B205F05BFF11E0DFF8A40CEE
:2060A0000068DFF8A4148978C90051FA84F10C22514300EB01020221601CC0B205F00EFF9C
:2060C000DFF8E80BDFF880148978C90051FA84F1405C5A2807D1DFF8702C1021601CC0B279
:2060E00005F0FCFE06E0DFF8642C1021601CC0B205F0F4FE641C91E7DFF8540C007800288F
:2061000000F0D680DFF8480C407801280DD0082800F08180102800F09A80202862D040280B
:2061200000F0A68080282ED0B2E0DFF81C04C07A002807D0DFF81004C07A401EDFF808146B
:20614000C87206E0DFF8600B0078401EDFF8F813C872DFF8F4038078DFF8EC13C97A0822E2
:2061600091FBF2F1884204D05A20DFF8DC1381F82F00DFF8D403C07A082190FBF1F0DFF8D6
:20618000C81388708CE0DFF8C003C07ADFF8181B0978491E884207D0DFF8AC03C07A401C3D
:2061A000DFF8A413C87203E00020DFF89C13C872DFF894038078DFF89013C97A082291FB7B
:2061C000F2F1884204D05A20DFF87C1381F82F00DFF87403C07A082190FBF1F0DFF8681347
:2061E00088705DE0D8488078002805D0D6488078401ED549887003E0B9F10100D24988702A
:206200005A20D14981F82F00CF488078C0B2C000CD49C87244E0CC4880785FFA89F9B9F1FC
:206220000101884205D0C8488078401CC649887002E00020C44988705A20C34981F82F001D
:20624000C1488078C0B2C000BF49C87228E00020DFF8FC1A48700020DFF8F41A087002205D
:20626000B94981F82E00B848C07A00F0B7F8ACE00020DFF8DC1A48700020DFF8D41A08700E
:20628000FDF77CFFB14800680068B04908609CE00020DFF8BC1A48700020DFF8B41A087027
:2062A0000020DFF8AC1A48700020DFF8A41A0870DFF8F4090078A4498978B0EBC1000500A1
:2062C000EDB2092D01DB0820050003F04DFCDFF86C2A0221002005F001FEDFF8642A0E216C
:2062E000002005F0FBFD06F012F90020040020002900C0B2C9B288425ED293488078C0B2F7
:2063000014EBC000401CC0B206F027FD934908702E20924948700020904988708F4A0021B6
:20632000601CC0B205F0DAFD8748C07A0821E4B290FBF1F201FB1200844211D1DFF8040AD2
:20634000006881498978C90051FA84F10C22514300EB01020221601CC0B205F0F9FD10E0E5
:20636000DFF8E009006878498978C90051FA84F10C22514300EB01020221601CC0B205F0F4
:20638000ADFDDFF8280970498978C90051FA84F1405C5A2807D1DFF8B0291021601CC0B243
:2063A00005F09CFD06E0DFF8A4291021601CC0B205F094FD641C9AE7634890F82E00022894
:2063C00003D16148C07A00F009F8BDE8F183000034EC01081E63002027630020F8B50400D7
:2063E000E4B2082094FBF0F100FB11400600DFF860090078002800F08880DFF85409407859
:20640000012806D0102818D0402861D080280AD06BE0DFF89808E4B2005DC043DFF88C180F
:20642000E4B2085569E0DFF88408E4B2005DC043DFF87818E4B208555FE00120424981F809
:206440002E00DFF85808C078002803D1DFF85408070002E0DFF84C0807003F1D00200500D4
:206460002800DFF844180978C0B2884207D2DFF83C08EDB2405D38707F1C6D1CF0E7DFF85A
:206480002C08E4B2005DA5280BD1DFF89C0A006800880121A1408843DFF88C1A096808807B
:2064A0000AE0DFF8840A006800880121A1400843DFF8741A09680880DFF8E007C078801C5F
:2064C000C0B208F003F800210B2007F0B8FC14E00020DFF87C1848700020DFF8741808702E
:2064E0000120194981F82E0024E00020DFF8601848700020DFF8581808700020DFF8501809
:2065000048700020DFF848180870DFF8A007E4B2005D5A2807D1DFF830281021701CC0B2CB
:2065200005F016FD06E0DFF824281021701CC0B205F00EFDF1BD0000FC610020B0610020BF
:206540003CEC010844EC01080C6000204C620020FAF60008EC600020AC6200209C5E0020CB
:2065600090DF01084CEC010854EC0108BA6200202DE9F04383B0DFF8B40990F82E000028EF
:2065800022D10020FEF74FFB0600F6B25A2E09D1FDF7F4FDDFF83C0C00680068DFF8341C9E
:2065A000086079E3F6B2A52E0DD10120DFF87C1981F82E000020DFF8781908700020DFF893
:2065C0007419088068E367E3DFF8600990F82E0001282AD1022000F0BDFBDFF8FC1B0870C7
:2065E000DFF8F40B00785A2809D1FDF7C7FDDFF8E40B00680068DFF8DC1B08604CE3DFF867
:20660000D80B0078FF2800F047834AF25A50DFF8281908800220DFF8141981F82E00DFF814
:20662000B80B007800F053FC36E3DFF8000990F82E00022840F01A81DFF8000900780921BA
:2066400090FBF1F00400DFF8F4080078092190FBF1F201FB1200002800D0641CDFF8F00694
:206660000078002800F0F880DFF8E406407801280DD0082800F08880102800F0A7802028D4
:2066800062D0402800F0BB8080282ED0D4E0DFF89C08007B002807D0DFF89008007B401E9E
:2066A000DFF88818087306E0DFF890080078401EDFF878180873DFF87408C078DFF86C18F5
:2066C000097B092291FBF2F1884204D05A20DFF85C1881F82F00DFF85408007B092190FB2E
:2066E000F1F0DFF84818C870AEE0DFF84008007BDFF848180978491E884207D0DFF82C0857
:20670000007B401CDFF82418087303E00020DFF81C180873DFF81408C078DFF81018097BDD
:20672000092291FBF2F1884204D05A20DFF8FC1781F82F00DFF8F407007B092190FBF1F032
:20674000DFF8E817C8707FE0DFF8E007C078002807D0DFF8D807C078401EDFF8D017C87095
:2067600003E0601EDFF8C417C8705A20DFF8BC1781F82F00DFF8B407C078092110FB01F012
:20678000DFF8A81708735FE0DFF8A007C078E4B2611E884207D0DFF89407C078401CDFF860
:2067A0008C17C87003E00020DFF88017C8705A20DFF8781781F82F00DFF87007C07809211D
:2067C00010FB01F0DFF8641708733DE00020DFF8801548700020DFF8781508705A20DFF842
:2067E0004C1781F82F00DFF84407007BDFF8401708700320DFF8341781F82E004CE2002011
:20680000DFF84C1548700020DFF8441508700520DFF8181781F82E000020DFF81017C87098
:206820000020DFF8081708735A20DFF8001781F82F0000F03DFA2FE20020DFF814154870A7
:206840000020DFF80C1508700020DFF8041548700020DFF8FC1408700922DFF8D006C17850
:20686000DFF8C806007B04F005F815E2DFF8BC0690F82E00032840F0B480DFF8D40400780B
:20688000002800F09080DFF854090068DFF8A01609784FF4B27251430844407C8146DFF885
:2068A000B004407801280AD008284DD010284CD0202849D040284ED0802821D066E0DFF82B
:2068C0006C06407B002807D0DFF86006407B401EDFF85816487304E0B9F10100DFF84C166E
:2068E0004873DFF84806407B092190FBF1F0DFF83C1608715A20DFF8341681F82F004CE056
:20690000DFF82806407B5FFA89F9B9F10101884207D0DFF81806407B401CDFF810164873CB
:2069200003E00020DFF804164873DFF80006407B092190FBF1F0DFF8F41508715A20DFF8D0
:20694000EC1581F82F0028E027E00420DFF8DC1581F82E0021E00020DFF8F4134870002015
:20696000DFF8EC1308700220DFF8C01581F82E000020DFF8B81508710020DFF8B0154873A0
:206980005A20DFF8A81581F82F0085E10020DFF8C01348700020EE4908700020EC4948707D
:2069A0000020EB49087005F0B2FD09200190DFF87C0A0090DFF824080068DFF87415097874
:2069C0004FF4B272514300EB0103DFF860050279DFF85805417BDFF85805007803F09AFFEE
:2069E0005AE1DFF8480590F82E00042840F01581DFF8E8070068DFF8381509784FF4B27256
:206A000051430844DFF82415497B1C2251430844007DDFF81C1A0870DFF8100500785A28BC
:206A200018D05A20DFF804150870DFF8000A0500DFF8FC09007805EB40052888DFF8F41989
:206A400008800020DFF8E414DFF8E02492F82E201144C87405F05BFDDFF880070068DFF891
:206A6000D01409784FF4B27251430844DFF8BC14497B1C2251430844C06A002816D0DFF8D2
:206A8000B439DFF858070068DFF8A41409784FF4B272514300EB0102DFF89004417BDFF874
:206AA0009004007803F0EDFF07001DE0DFF884090090DFF828070068DFF8741409784FF462
:206AC000B272514300EB0103DFF86C29DFF85C04DFF8581491F82E100844C17CDFF84C04B2
:206AE000407B04F083F80700FFB25A2F16D10320DFF8381481F82E000020DFF830140870A4
:206B00000020DFF82814DFF8242492F82E201144C8740020DFF81C190880BDE0FFB2A52FE4
:206B200072D1DFF8B8060068DFF8041409784FF4B27251430844DFF8F413497B1C225143EA
:206B40000844408CDFF8EC180988884213D2DFF88C060068DFF8D81309784FF4B2725143F3
:206B60000844DFF8C813497B1C2251430844408CDFF8C0180880DFF8BC080088DFF85C16C6
:206B80000968DFF8AC2312784FF4B2735A431144DFF89823527B1C235A431144098C88420B
:206BA00013D2DFF838060068DFF8841309784FF4B27251430844DFF87413497B1C22514349
:206BC0000844008CDFF86C180880DFF860080500DFF85C08007805EB4005DFF8580800880F
:206BE00028800320DFF8441381F82E000020DFF83C1308700020DFF83413DFF8302392F845
:206C00002E201144C87447E0DFF82003DFF81C1391F82E100844C7743EE0DFF8100390F890
:206C20002E00052838D100F043F880465FFA88F8B8F15A0F0ED14AF25A50DFF8FC120880E2
:206C4000FDF79CFADFF88C0500680068DFF88415086021E05FFA88F8B8F1A50F1CD1DFF89F
:206C6000842A0021012005F039F90021012007F0E6F805F04CFC642004F0C5FC4AF25A508A
:206C8000DFF8B4120880FDF779FADFF8480500680068DFF840150860BDE8F783A0610020A0
:206CA000A4600020BC6000201F6300203861002070B5032000F04EF8DFF81C150870DFF844
:206CC000180500785A280BD15A20DFF8601281F82F000020DFF8541281F82E005A202CE0CC
:206CE000DFF8F4040078FF2801D1002025E045F6A520DFF844120880DFF8DC040078DFF874
:206D000038128870DFF8240706001C2005002900C9B2300006F08DFADFF81C12A1F8680091
:206D2000DFF8B4040178012007F01AFE0400E4B2012C01D1A52000E05A2070BD28EB01081A
:206D40006CEC010800620020C8EC0108CCEC0108306200207FB5040002F006FF00200500CC
:206D6000EDB2202D06DA0020DFF87C19EDB248556D1CF5E7E4B2012C06D1DFF870290021EF
:206D8000022005F0ABF819E0E4B2022C06D1DFF860290021022005F0A1F80FE0E4B2032CC0
:206DA00006D1DFF850290021022005F097F805E0DFF844290021022005F090F85B480078E1
:206DC0005A280FD0DFF8340900788DF80C0001205649564A92F82E201144C8745A20534956
:206DE000087003E05148808B8DF80C0003A8029010200190DFF84006009001234B484B490D
:206E000091F82E100844C27C0C210220FDF7D7FB0600F6B25A2E1CD10020444908705A204A
:206E2000424981F82F0000204049404A92F82E201144C87400200500EDB2052D07DA00208C
:206E40003A49EDB201EB450188836D1CF4E75A203BE0F6B2A52E29D10020344908705A20D6
:206E6000324981F82F0000203049304A92F82E201144C87400200500EDB2052D07DA00207C
:206E80002A49EDB201EB450188836D1CF4E79DF80C00002807D0DFF868280021012005F001
:206EA0001DF85A2011E09DF80C000EE01F481F4991F82E100844C6749DF80C001B49888397
:206EC000FF208DF80C009DF80C0004B070BD70B50400002005002800451CC0B2032811DA21
:206EE00015488470144807F026FE134807F07FFC002807D100200600F6B2FF2E01D0761C9F
:206F0000FAE7E8E7EDB2032D0CDB4AF25A500A490880FDF733F9DFF8BC0200680068DFF8EE
:206F2000B412086070BD0000046200200C60002037630020E8620020305E0020216300206E
:206F400080B5DFF81C0C0088642822DB0020DFF8141C08700020DFF8081C08800020DFF8B3
:206F6000081C0880FDF70AF92020DFF8001C8870DFF8FC0B97490860DFF8F00B4078DFF8BC
:206F8000EC1BC870DFF8E40BC078DFF8E81B08801FE1DFF8E40B0078002840F0E580DFF880
:206FA000CC0B8078202822D0DFF8BC0B008800281DD10120DFF8B01B08800020DFF8A41B8B
:206FC0000870DFF8A80B4078DFF8B01B0880DFF89C0BC078DFF89C1B08800320DFF8981B54
:206FE00008700E2004F015FA05F06BF911E0DFF87C0B807820280BD00320DFF87C1B08701C
:207000000120DFF8641B08800E2004F002FA00E0DFE005F056F9DFF8540B4078DFF8541B3C
:20702000098880B2884231D0DFF8540BDFF83C1BDFF8402B1288120111440A31102207F0B6
:20704000BBFDDFF8300B0088401C232190FBF1F201FB1200DFF81C1B0880DFF8080B0078CA
:20706000022190FBF1F201FB12000200D2B2DFF8101BDFF8F00A007880B200F0DFF9DFF8CF
:20708000E40A0078401CDFF8DC1A0870DFF8DC0A4078DFF8E01A098880B2884231D0DFF83E
:2070A000E00ADFF8C81ADFF8CC2A1288120111440A31102207F080FDDFF8B80A0088401C00
:2070C000232190FBF1F201FB1200DFF8A81A0880DFF8900A0078022190FBF1F201FB120047
:2070E0000200D2B2DFF8981ADFF8780A007880B200F0A4F9DFF86C0A0078401CDFF8641A7B
:207100000870DFF8680A4078DFF8681A098880B2884229D1DFF8480A0088401CDFF8401AD8
:2071200008800020DFF83C1A0870DFF8400AC078DFF8401A0880DFF8440A0088DFF82C1A26
:20714000497889B288420FD00020DFF8141A0880DFF8280A0088401C232190FBF1F201FB42
:207160001200DFF8181A0880DFF8880C007800282FD0DFF8800C4078102802D0402809D0FC
:207180001FE00020DFF86C1C48700020DFF8641C08701EE00020DFF85C1C48700020DFF8AE
:2071A000541C08700020DFF8501C08706420DFF8B0190880FCF7E2FFDFF8B4090549086042
:2071C00007E00020DFF82C1C48700020DFF8241C087001BD4C6200202F6300200C62002056
:2071E00070B5DFF8AC0790F82E00002861D102F0BBFC002007F065FFDFF8001C0880DFF85A
:20720000FC0B0088002811D105F05BF8DFF8F02B0421022004F062FEFCF7B0FFDFF83C0942
:2072200000680068DFF834190860FEE0DFF8CC0B0078C00702D40220060001E00120060021
:20724000DFF8B80B0088801BDFF8B81B0880DFF8AC0B0088801B0500002004002000C0B2D3
:20726000310080B289B2884218D22800DFF88C1B098880B2884211D20022DFF80419280068
:2072800080B207F034FF2200D2B2DFF8F418280080B200F0D3F86D1C641CDFE70120DFF82D
:2072A000F01681F82E00DFF8540B0088DFF8541B0880DFF8400B0078002800F0B6805A2033
:2072C000DFF8CC1681F82F00DFF8280B4078012836D0082805D0202832D0402850D08028DD
:2072E00060D1DFF8200B0088DFF8101B0988884210D1DFF8080B0088022804DB0220DFF821
:20730000041B08801BE0DFF8F40A0088DFF8F41A088014E0DFF8EC0A0088801CDFF8E41A47
:207320000880DFF8E00A0088DFF8D01A0988884205D3DFF8C80A0088DFF8C81A088039E0FD
:20734000DFF8C00A0078C00707D5DFF8B80A0088401EDFF8B01A088006E0DFF8A80A0088D2
:20736000801EDFF8A01A0880DFF8980A0088002805D1DFF8880A0088DFF8881A088019E06C
:207380000020DFF8701A48700020DFF8681A0870FCF7F4FEDFF8C40700680068DFF8BC17C2
:2073A000086042E00020DFF84C1A48700020DFF8441A08700020DFF83C1A48700020DFF865
:2073C000341A087002F0D0FBDFF8380A0078C00702D40220060001E001200600DFF8240AC7
:2073E0000088801B0500002004002000C0B2310080B289B2884218D22800DFF8001A0988B3
:2074000080B2884211D20022DFF87417280080B207F06DFE2200D2B2DFF86417280080B2FB
:2074200000F00CF86D1C641CDFE770BD345E002038630020EA620020000000202DE9FE4F00
:2074400004000D001600002082465FFA8AFABAF1140F08DA0020A4495FFA8AFA01F80A00A3
:207460001AF1010AF1E7E87B10F50050ADF80800687B0190A87B0090BDF80830A4B2621CD1
:20748000DFF88C1B984805F095FF974A0021F6B2B000C0B204F022FD002082465FFA8AFA61
:2074A000BAF1140F08DA00208F495FFA8AFA01F80A001AF1010AF1E728890190A87A009062
:2074C000EB7A2A7BDFF84C1B874805F073FF864A0021F6B2B000401CC0B204F0FFFC05F033
:2074E00016F8002082465FFA8AFABAF1100F08DA00207D495FFA8AFA01F80A001AF1010A31
:20750000F1E7002081464846DFF80C1B0978C0B2884220D2A878DFF8041B09685FFA89F90F
:20752000142202FB09F2895C884211D1DFF8EC0A00685FFA89F9142101FB09F10844421CA7
:207540000021F6B2B000801CC0B204F0C7FC02E019F10109D7E704F0DAFF002082465FFA2B
:207560008AFABAF1100F08DA00205F495FFA8AFA01F80A001AF1010AF1E7E878012840F08C
:20758000AE80002081465FFA89F905EB8900C08883461FFA8BFB42F21070834522DB1FFA40
:2075A0008BFB0A209BFBF0FB1FFA8BFB0A209BFBF0F08046DFF8681A404680B205F063FC30
:2075C0002E204949C8711FFA8BFB0A209BFBF0F100FB11B080464046C0B205F0BEFB42499F
:2075E00008721CE01FFA8BFB64209BFBF0F08046DFF82C1A4046C0B205F0B8FB2E203A4928
:2076000088711FFA8BFB64209BFBF0F100FB11B08046DFF8101A4046C0B205F0A7FB5FFA6C
:2076200089F905EB890000790700002082465046DFF8F4190978C0B288422FD23800DFF8A0
:20764000EC195FFA8AFA062202FB0AF2895CC0B2884220D10422DFF8D4095FFA8AFA062137
:2076600001FB0AF10844411C1F4805F001FB0222DFF8BC09DFF8B4195FFA8AFA062303FBAA
:207680000AF3194491F9051000EB4101DFF8A40905F0EEFA02E01AF1010AC8E7124A00213F
:2076A000F6B2B000C01CC0B204F018FC5FFA89F905EB89004079002811D0DFF87C095FFA51
:2076C00089F905EB890149790522514300EB01021021F6B2B000C01CC0B204F0FFFBBDE8D9
:2076E000F78F00009CE801089C5E0020ECEA0108F8EA010804EB010810EB010828620020ED
:207700008CE8010870B5A24890F82E0000286BD102F02AFA012007F0D4FCDFF8201908802D
:20772000DFF818090088002811D104F0CAFDDFF810290421022004F0D1FBFCF71FFDDFF807
:207740001C0400680068DFF8141408601EE1DFF8EC080088032190FBF1F201FB12000028B8
:2077600009D0DFF8D8080088032190FBF1F201FB1200040001E003200400DFF8C00800881E
:20778000DFF8C0180880DFF8B4080088001B0500002006003000C0B2210080B289B2884257
:2077A00018D22800DFF89418098880B2884211D20122DFF89418280080B207F098FC320007
:2077C000D2B2DFF88418280080B200F0E3F86D1C761CDFE701206E4981F82E00DFF85C08F2
:2077E0000088DFF860180880DFF808060078002800F0CC805A20664981F82F00DFF8F405C8
:207800004078012836D0082805D0202832D040285DD080286BD1DFF82C080088DFF81C181B
:207820000988884210D1DFF81C080088032804DB0320DFF8101808801BE0DFF80008008873
:20784000DFF80018088014E0DFF8F8070088C01CDFF8F0170880DFF8EC070088DFF8DC1701
:207860000988884205D3DFF8D4070088DFF8D417088044E0DFF8CC070088032190FBF1F269
:2078800001FB120000280FD0DFF8B80700880321DFF8B0271288121A90FBF1F001FB002095
:2078A000DFF8A017088006E0DFF898070088C01EDFF890170880DFF88C070088002805D1FA
:2078C000DFF878070088DFF87C17088017E00020DFF8201548700020DFF818150870FCF76E
:2078E0004DFC9E48006800689C4908604EE00020DFF8001548700020DFF8F81408700020AF
:20790000DFF8F01448700020DFF8E814087002F02BF9DFF830070088032190FBF1F201FB2F
:207920001200002809D0DFF81C070088032190FBF1F201FB1200040001E003200400DFF82F
:2079400004070088001B0500002006003000C0B2210080B289B2884218D22800DFF8DC1679
:20796000098880B2884211D20122DFF8DC16280080B207F0BCFB3200D2B2DFF8CC1628000C
:2079800080B200F007F86D1C761CDFE770BD00000C6000202DE9FC4704000D00160000208C
:2079A00080465FFA88F8B8F1140F09DA0020DFF8A01C5FFA88F801F8080018F10108F0E703
:2079C000687A10F500508146E8790190287A00901FFA89F94B46A4B2621CDFF83416DFF88D
:2079E000700C05F0E7FCDFF8682C0021032016FB00F0C0B204F072FA002080465FFA88F8F2
:207A0000B8F1140F09DA0020DFF8441C5FFA88F801F8080018F10108F0E76888019028797B
:207A200000906B79AA79DFF8EC15DFF8240C05F0C1FCDFF81C2C0021F6B2032000FB06F022
:207A4000401CC0B204F04AFA00200700FFB2102F06DA0020DFF8F81BFFB2C8557F1CF5E7DA
:207A600068780F282ADA002007003800DFF8E41B0978C0B2884221D26878DFF8DC1B0968E7
:207A8000FFB2112202FB07F2895C884214D1DFF8C80B0068FFB2112101FB07F10844401CE7
:207AA000824652460121F6B2032000FB06F0801CC0B204F013FA01E07F1CD6E76878202818
:207AC0002CDB6878412829DA002007003800DFF848150978C0B2884220D26878DFF83C1509
:207AE0000968FFB2142202FB07F21144497C884212D1DFF828050068FFB2142101FB07F12B
:207B00000844421C0021F6B2032000FB06F0801CC0B204F0E3F901E07F1CD7E72878FF28FF
:207B20000BD1DFF8382B1021F6B2032000FB06F0801CC0B204F0D2F90DE0287800280AD1E5
:207B4000DFF81C2B1021F6B2032000FB06F0801CC0B204F0C3F9BDE8F38700004C6200206F
:207B6000C662002039630020C4620020C856002038E70108CA62002026630020C862002016
:207B80002861002070B5DFF8DC0A90F82E0000286DD101F0E9FF022007F093FADFF8C81A06
:207BA0000880DFF8C40A0088002811D104F089FBDFF8B82A0421022004F090F9FCF7DEFA46
:207BC000DFF8AC0A00680068DFF8A41A086010E1DFF8940A0088032190FBF1F201FB1200BD
:207BE000002809D0DFF8800A0088032190FBF1F201FB1200040001E003200400DFF8680AA6
:207C00000088001BDFF83C140880DFF85C0A0088001B0500002006003000C0B2210080B212
:207C200089B2884218D22800DFF83C1A098880B2884211D20222DFF81014280080B207F020
:207C400056FA3200D2B2DFF80014280080B200F0DBF86D1C761CDFE70120DFF8081A81F8A2
:207C60002E00DFF8040A0088DFF8D813088061480078002800F0BD805A20DFF8E81981F8DE
:207C80002F005C484078012834D0082805D0202830D0402857D0802865D1DFF8A803008868
:207CA000DFF8C4190988884211D1DFF898030088032804DB0320DFF88C13088019E0DFF8DE
:207CC000A8090088401EDFF87C13088011E0DFF874030088C01CDB490880DA480088DFF84F
:207CE00088190988884204D3DFF87C090088D54908803EE0D348008803281ADBD1480088A5
:207D0000032190FBF1F201FB120000280CD0CD4800880321CB4A1288121A90FBF1F001FBBB
:207D20000020C849088004E0C6480088C01EC5490880C4480088002804D1DFF82C09008877
:207D4000C049088015E000202A494870002029490870FCF713FADFF8180900680068DFF8A9
:207D60001019086045E000202249487000202149087000201F49487000201E49087001F0D8
:207D8000F3FEB0480088032190FBF1F201FB1200002808D0AB480088032190FBF1F201FBC9
:207DA0001200040001E003200400A6480088001B0500002006003000C0B2210080B289B2B9
:207DC000884216D22800DFF8A018098880B288420FD202229C49280080B207F088F93200BF
:207DE000D2B29949280080B200F00EF86D1C761CE1E770BD3062002029630020D862002005
:207E0000F0E90108D46200202DE9F04383B004000D001600002080465FFA88F8B8F1140FFC
:207E200009DA0020DFF828185FFA88F801F8080018F10108F0E7687A10F500508146E87906
:207E40000190287A00901FFA89F94B46A4B2621C6F49DFF8FC0705F0ADFADFF8F42700211E
:207E6000032016FB00F0C0B204F038F8002080465FFA88F8B8F1140F09DA0020DFF8D017FC
:207E80005FFA88F801F8080018F10108F0E768880190287900906B79AA795E49DFF8B00731
:207EA00005F088FADFF8A8270021F6B2032000FB06F0401CC0B204F011F800200700FFB225
:207EC000102F06DA0020DFF88817FFB2C8557F1CF5E7687801280BD1DFF898270121F6B263
:207EE000032000FB06F0801CC0B203F0F7FF73E068780A280BD1DFF880270121F6B20320CB
:207F000000FB06F0801CC0B203F0E8FF64E068780B280BD1DFF864270121F6B2032000FB0B
:207F200006F0801CC0B203F0D9FF55E068780C280BD1DFF84C270121F6B2032000FB06F025
:207F4000801CC0B203F0CAFF46E068780D280BD1DFF830270121F6B2032000FB06F0801C98
:207F6000C0B203F0BBFF37E068780E280BD1DFF818270121F6B2032000FB06F0801CC0B2D7
:207F800003F0ACFF28E068780F280BD1DFF8FC260121F6B2032000FB06F0801CC0B203F070
:207FA0009DFF19E0687809280BD1DFF8E4260121F6B2032000FB06F0801CC0B203F08EFFF2
:207FC0000AE0DFF8D0260121F6B2032000FB06F0801CC0B203F082FF287800280BD0DFF810
:207FE000B8261021F6B2032000FB06F0801CC0B203F074FF0AE0DFF8A4261021F6B20320BB
:2080000000FB06F0801CC0B203F068FFBDE8F78364E5010868E401081D630020F861002028
:20802000A05E0020A35E0020B6EB000888E001080CE60108A55E00202C000020D662002025
:20804000FCE90108D262002094610020F0B585B0DFF8100690F82E00002822D10020FCF71E
:20806000E2FD0400E4B25A2C09D1FCF787F8DFF8000600680068DFF8F8150860E6E2E4B25E
:20808000A52C0DD10020DFF8DC1508760120DFF8D415C8750120DFF8CC1581F82E0000E04D
:2080A000D4E2DFF8C00590F82E00012840F0CE82DFF8B00500785A2800F07F8001F054FD58
:2080C0005A20DFF8A015087000200700FFB2202F06DA0020DFF87815FFB2C8557F1CF5E752
:2080E000002006000E22DFF8B815DFF8640504F0BFFDDFF8B005C07910F5005080B205F055
:208100000AF80500DFF84815280080B204F0F7FEDFF89415DFF88C05807904F091FEDFF8A6
:208120008C15DFF88005407904F08AFE0C22DFF88015DFF8800504F09BFDDFF87815DFF850
:208140006405007904F07CFEDFF86C15DFF85405C07804F075FEDFF86415DFF8480580783C
:2081600004F06EFEDFF8E8240121012003F0B6FEDFF840250221022003F0B0FEDFF8E404F1
:20818000007E0F210123DFF8C824DFF8D8C49CF818C012F80C20D2B290FBF1FC01FB1C0021
:2081A000DFF8C014C97D0918C9B2DFF8B804C07DC0B24000C0B203F0BBFC04F0A8F9DFF828
:2081C00000050078002800F0418204F0A0F9DFF8F4040078002800F03982DFF8E804407825
:2081E00001280DD0082800F09F80102800F0E980202841D0402800F0E38180281ED0EFE12E
:20820000DFF84C04DFF85C14097E4056392807D13020DFF83C14DFF84C24127E88540CE084
:20822000DFF82C04DFF83C14097E405C401CDFF82014DFF83024127E8854D9E1DFF810044A
:20824000DFF82014097E4056302807D13920DFF80014DFF81024127E88540CE0DFF8F00355
:20826000DFF80014097E405C401EDFF8E413DFF8F423127E8854BBE1DFF8E803007E002866
:2082800008D11820DFF8DC1308760220DFF8D413C875ADE1DFF8CC03007E401EDFF8C413AE
:2082A0000876DFF8C003007E042833DBDFF8B403007E0F2811DBDFF8AC03007E022190FB0D
:2082C000F1F201FB1200002824D1DFF89803007E801EDFF8901308761CE0DFF88803007E2E
:2082E0000E2806D1DFF87C03007E401EDFF874130876DFF87003007E022190FBF1F201FB0E
:208300001200002806D0DFF85C03007E801EDFF854130876DFF84C03007E0E2803DA012067
:20832000DFF84013C87563E1DFF83803007E182808DB0120DFF82C13C8750020DFF824133D
:20834000087655E1DFF81C03007E401CDFF814130876DFF81003007E04282ADBDFF80403A6
:20836000007E0F280EDBBF48007E022190FBF1F201FB120000281CD0BA48007E801CB94909
:20838000087616E0B748007E022190FBF1F201FB1200002804D1B348007E801CB1490876C3
:2083A000B048007E0E2804D1AE48007E401CAD490876AC48007E0F2802DB0220A949C87521
:2083C00016E10020DFF8FC1248700020DFF8F4120870002006009E4890F90100302801D0B5
:2083E000FF2006009A48C0780100C9B298488078C0B204F02AFE8DF807009548C0790100B9
:20840000C9B293488079C0B204F01FFE8DF806008F48C07A0100C9B28D48807AC0B204F03D
:2084200014FE8DF805008A48007C0100C9B28848C07BC0B204F009FE8DF804008448007D8C
:208440000100C9B28248C07CC0B204F0FEFD8DF803007F48007E0100C9B27D48C07DC0B27C
:2084600004F0F3FD8DF802009DF80600002803D09DF806000D2801DBFF2006009DF8050090
:20848000002848D09DF80500202844DA9DF8060004280BD09DF80600062807D09DF80600BF
:2084A000092803D09DF806000B2806D19DF805001F2802D1FF2006002FE09DF80600022866
:2084C0002BD19DF80700042190FBF1F201FB1200002808D19DF80700642190FBF1F201FBD7
:2084E0001200002809D19DF807004FF4C87190FBF1F201FB1200002806D19DF805001E28F5
:208500000BDBFF20060008E09DF805001D2804DBFF20060001E0FF2006009DF804001828A6
:2085200001DBFF2006009DF803003C2801DBFF2006009DF802003C2801DBFF20060003F04E
:20854000E6FF9DF8070010F5FA6080B204F03DFE050028008DF80F009DF8060004F016FE76
:208560008DF80E009DF8050004F010FE8DF80D009DF8040004F00AFE8DF80C009DF803007C
:2085800004F004FE8DF80B009DF8020004F0FEFD8DF80A00F6B2002E02D102A807F06FF88F
:2085A000DFF8000106F0F2FF0020DFF8F8100880FBF7E4FD2E48006800682D49086045E059
:2085C0000020DFF8001148700020DFF8F8100870FBF7D4FD2648006800682549086035E078
:2085E0000020DFF8E01048700020DFF8D81008700020DFF8D01048700020DFF8C8100870AF
:20860000134A0121012003F069FCDFF8A8200221022003F063FC1348007E0F2101230C4AA9
:20862000DFF840C09CF818C012F80C20D2B290FBF1FC01FB1C000B49C97D0918C9B2094826
:20864000C07DC0B24000C0B203F072FA05B0F0BD9C5E00201E630020FC6100205CEC01086F
:2086600064EC01080C600020EC62002008EA01084C6200209CE7010814EA0108ACE70108AF
:2086800020EA01082CEA0108BCE70108CCE7010838EA010844EA01080CEC010814EC0108D4
:2086A0000CE90108B8610020A25E0020A65E0020E8E60108AB5E0020AF5E0020B35E0020E1
:2086C00027630020306200202DE9F04182B0DFF8E80790F82E00002840F08981DFF8D80731
:2086E00090F82F005A281ED103F0EBFD0020DFF8C81781F82F00DFF8CC070079DFF8C81720
:208700000871DFF8C0074079DFF8BC174871DFF8B4078079DFF8B0178871DFF8A807C07846
:20872000DFF8A417C87000200700FFB2202F06DA2020DFF88C17FFB2C8557F1CF5E7DFF892
:208740008017DFF88407007904F07AFB4820DFF870178870DFF868270B21002003F0BEFB22
:20876000DFF864074079002805D0022811D009D3032815D01AE0DFF854270B21012003F07E
:20878000ADFB13E0DFF848270B21012003F0A6FB0CE0DFF840270B21012003F09FFB05E02E
:2087A000DFF834270B21012003F098FBDFF81807C078022802D0032807D00CE0DFF81C2782
:2087C0000A21022003F08AFB05E0DFF81C270A21022003F083FBDFF8F0068079002806D053
:2087E000DFF8FC260A21032003F078FB05E0DFF8FC260A21032003F071FBDFF8E806007804
:20880000002800F08B80DFF8DC064078012806D0102827D0402861D0802812D06EE0DFF84E
:2088200098064078002804D10320DFF88C16487006E0DFF884064078401EDFF87C16487013
:2088400064E0DFF874064078401CDFF86C164870DFF864064078042803DB0020DFF85816F6
:20886000487053E00020DFF87C1648700020DFF874160870DFF840064078002807D10120DD
:20888000DFF8341681F82E0000F045F925E0DFF828064078012807D10220DFF81C1681F87B
:2088A0002E0000F0C0F918E0DFF80C064078022807D10320DFF8001681F82E0000F032FA73
:2088C0000BE0DFF8F4054078032806D10420DFF8E81581F82E0000F088FA17E00020DFF824
:2088E000041648700020DFF8FC150870FBF746FC0520DFF8C41581F82E0007E00020DFF898
:20890000E41548700020DFF8DC1508700020DFF8D41548700020DFF8CC150870DFF89805EA
:208920004078002802D15FF0010801E05FF00008DFF8BC0506F0C6FE5FFA88F8CDF8008084
:20894000DFF8AC350200D2B20021002003F03AFBDFF864054078012802D15FF0010801E043
:208960005FF00008DFF88C0506F0ACFE02005FFA88F8CDF80080DFF87C35D2B2002101202A
:2089800003F020FBDFF830054078022802D15FF0010801E05FF00008DFF85C0506F092FEBA
:2089A0005FFA88F8CDF80080DFF84C350200D2B20021022003F006FBDFF8FC0440780328CA
:2089C00002D15FF0010801E05FF00008DFF82C0506F078FE5FFA88F8CDF80080DFF81C357A
:2089E0000200D2B20021032003F0ECFA91E0DFF8C80490F82E00012802D100F08CF888E032
:208A0000DFF8B40490F82E00022802D100F00BF97FE0DFF8A40490F82E00032802D100F09E
:208A200081F976E0DFF8900490F82E00042802D100F0DBF96DE0DFF8800490F82E000528F7
:208A400067D1DFF884040500DFF87804060000200700FFB20C2F12D22800451C31004E1C06
:208A600000780978884204D00120DFF89414087005E00020DFF8881408707F1CE9E7DFF815
:208A80008004007800283AD00220FCF7CCF80400E4B25A2C09D1FBF771FBDFF82004006814
:208AA0000068DFF81814086033E0E4B2A52C25D10020DFF84C1408705A20DFF8FC1381F8CB
:208AC0002F00082005F002FD0022DFF8F8034179DFF8900506F080FE00210F2005F0AFF9D0
:208AE00003F0EFFBDFF880250021012003F030FA0520DFF8C41381F82E000AE009E0FBF77F
:208B00003DFBDFF8B80300680068DFF8B0130860FFE7BDE8F38130B585B0DFF89C030078B2
:208B20005A2812D0DFF89C0300798DF80C000020DFF88413DFF8802392F82E201144C874E0
:208B40005A20DFF87413087004E0DFF86C03808B8DF80C0003A8029000200190DFF80C0529
:208B600000900123DFF85003DFF84C1391F82E100844C27C0B210020FBF721FD0500EDB290
:208B80005A2D1FD10020DFF83013DFF82C2392F82E201144C8740020DFF81C1381F82E00C8
:208BA0000020DFF81413087000200400E4B2052C37DA0020DFF80013E4B201EB4401888347
:208BC000641CF3E7EDB2A52D21D10020DFF8E812DFF8E42292F82E201144C8740020B64982
:208BE00081F82E000020B449087000200400E4B2052C07DA0020B049E4B201EB4401888382
:208C0000641CF4E79DF80C00AF49087109E0AA48A94991F82E100844C5749DF80C00A6493E
:208C2000888305B030BD80B5A34800785A2806D0A4484079A04988705A209F490870A94846
:208C4000007800284CD0A7484078012806D0102820D040282AD080280ED035E096488078B7
:208C6000002803D103209449887004E092488078401E914988702DE08F488078032803DB35
:208C800000208D49887004E08B488078401C8A4988701FE0884880788B49487100208649CD
:208CA00081F82E0000208449087013E000208D49487000208B490870FBF760FA7F48006820
:208CC00000687E4908602CE0002086494870002084490870002083494870002081490870DF
:208CE00075488078002805D002280FD008D3032812D016E0754A0B21012003F029F910E0CA
:208D0000734A0B21012003F023F90AE0714A0B21012003F01DF904E06F4A0B21012003F062
:208D200017F901BD80B5644800785A2806D06548C078614988705A205F490870694800786A
:208D400000283DD067484078012806D010280CD0402815D0802804D022E0022056498870E0
:208D600026E002205449887022E002205649C8700020514981F82E0000204F49087017E0B3
:208D80000020DFF8EC1248700020DFF8E4120870FBF7F4F94948006800684849086022E086
:208DA0000020DFF8CC1248700020DFF8C41208700020DFF8BC1248700020DFF8B41208702F
:208DC0003D488078022802D0032806D00BE0434A0A21022003F0BCF805E0DFF80C210A2199
:208DE000022003F0B5F801BD000080B5324800785A2806D0334880792F4988705A202E499F
:208E00000870DFF86C020078002842D0DFF860024078012805D010280FD0402819D08028E4
:208E200027D125488078002803D000202249887002E001202049887023E01F488078224926
:208E4000887100201C4981F82E0000201A49087017E00020DFF8181248700020DFF8101209
:208E60000870FBF78BF9154800680068134908601FE00020DFF8F81148700020DFF8F01164
:208E800008700020DFF8E81148700020DFF8E011087009488078002805D0114A0A21032063
:208EA00003F056F805E0DFF844200A21032003F04FF801BD000000000C6000204C620020B1
:208EC0009C5E00207C6100208861002074EC01087CEC010884EC01088CEC010894EC010815
:208EE000ACEC0108306200209CEC0108A4EC010840EB01084CEB010858EB010864EB0108DD
:208F0000316300207FB5DFF83C0690F82E0000281AD10020FBF787FE0500EDB25A2D09D1EB
:208F2000FBF72CF9DFF8600700680068DFF85817086096E0EDB2A52D05D10120DFF804168F
