:020000040800F2
:1000000008100020311900084D1900085119000886
:1000100055190008591900085D1900080000000072
:10002000000000000000000000000000611900084E
:100030006519000800000000691900086D19000822
:100040009B0C00089D0C00089F0C0008A10C0008E8
:10005000A30C0008A50C0008A70C0008A90C0008B8
:10006000AB0C0008AD0C0008AF0C0008B10C000888
:10007000B30C0008B50C0008B70C0008B90C000858
:10008000BB0C0008BD0C0008BF0C0008711900086B
:1000900075190008791900087D190008C10C0008BD
:1000A000811900088519000889190008C30C000887
:1000B000C50C0008C70C0008C90C0008CB0C0008D0
:1000C000CD0C0008CF0C0008D10C0008D30C0008A0
:1000D0008D190008D50C0008D70C0008D90C0008B1
:1000E000DB0C0008DD0C0008DF0C0008911900088B
:1000F0009519000899190008E10C0008E30C0008A4
:100100009D190008E50C0008E70C0008A11900087B
:10011000E90C0008EB0C0008A5190008A919000853
:10012000ED0C0008EF0C0008F10C0008F30C0008BF
:10013000AD190008B1190008B5190008B91900086F
:1001400000000000000000000000000000000000AF
:10015000BD190008C1190008C5190008C91900080F
:10016000CD190008D1190008D5190008D9190008BF
:10017000DD190008E1190008E519000810B50400B0
:10018000DFF8F005844208D10121042000F039FB9A
:100190000021042000F035FB32E0DFF8DC0584426A
:1001A00008D10121082000F02CFB0021082000F0DC
:1001B00028FB25E0DFF8C405844208D10121102086
:1001C00000F01FFB0021102000F01BFB18E0DFF8FF
:1001D000B005844208D10121202000F012FB00214B
:1001E000202000F00EFB0BE0DFF89805844207D1D9
:1001F0000121402000F005FB0021402000F001FB20
:1002000010BDF0B5002700220023002400250026A1
:1002100091F803C01CF00F0C674691F803C05FEA29
:10022000CC6C03D591F802C05CEA070791F800C0D6
:100230005FEA0C6C3AD0D0F800C065465FF0000C65
:100240006346082B31D25FF0010C1CFA03FC6446B4
:10025000B1F800C014EA0C0C6246A24223D15FEA56
:10026000830C64465FF00F0C1CFA04FC6646B54331
:1002700017FA04FC5CEA050591F803C0BCF1280FED
:1002800006D15FF0010C1CFA03FCC0F814C00AE0B0
:1002900091F803C0BCF1480F05D15FF0010C1CFAC6
:1002A00003FCC0F810C05B1CCBE70560B1F800C0D0
:1002B000BCF1FF0F3FDDD0F804C065465FF0000CD5
:1002C0006346082B36D25FF0010C13F1080E1CFABE
:1002D0000EFC6446B1F800C014EA0C0C6246A2425F
:1002E00026D15FEA830C64465FF00F0C1CFA04FC15
:1002F0006646B54317FA04FC5CEA050591F803C0AD
:10030000BCF1280F07D15FF0010C13F1080E1CFAA5
:100310000EFCC0F814C091F803C0BCF1480F07D11F
:100320005FF0010C13F1080E1CFA0EFCC0F810C0AF
:100330005B1CC6E74560F0BD89B20161704789B2B8
:1003400041617047F0B4B0F1004F40F29A80002351
:10035000002420F000473E00F7093B0016F07F061E
:1003600037093C0016F00F06052B06D02700FFB218
:10037000BF0016FA07F73A0005E06708FFB2BF00B2
:1003800016FA07F73A00002B08D0022B0ED009D33B
:10039000042B13D00ED3052B14D017E0DFF8E8732D
:1003A0003D0013E0DFF8E4733D000FE0DFF8E07399
:1003B0003D000BE0DFF8DC733D0007E0DFF8D873A9
:1003C0003D0003E0DFF8D4733D00FFE7002C0BD1C4
:1003D000052B04D12F68BF08BF002F6049E02F68AC
:1003E0003F093F012F6044E0012C0BD1052B04D1C4
:1003F0002F6837F00C072F603BE02F6837F0F007CD
:100400002F6036E0022C0BD1052B04D12F6837F07A
:1004100030072F602DE02F6837F470672F6028E0D9
:10042000032C0BD1052B04D12F6837F0C0072F60A8
:100430001FE02F6837F470472F601AE0042C04D1B6
:100440002F6837F470272F6013E0052C04D12F6834
:1004500037F470072F600CE0062C04D12F6837F0BA
:1004600070672F6005E0072C03D12F6827F07047D5
:100470002F60C9B2012940F07B812F683A432A607E
:1004800076E10200012A63D0022A53D0042A51D017
:10049000082A4FD0102A7BD0302A00F08980402AC9
:1004A00000F09680C02A00F0A380B2F5807F00F0B3
:1004B000AF80B2F5007F00F0BB80B2F5407F00F066
:1004C000C780B2F5006F00F0D380B2F5406F00F046
:1004D000DF80B2F5805F2DD0B2F5804F00F0E8806C
:1004E000B2F5C04F00F0F480B2F5004F22D0B2F563
:1004F000803F1FD0B2F5003F1CD0B2F5802F19D03D
:10050000B2F5002F16D0B2F5801F13D0B2F5001F40
:1005100000F01E81B2F1807F00F0EA80B2F1007F2E
:1005200000F0F680B2F1806F00F00281B2F1004F6E
:100530001ED01DE19A4A12688243994B1A60C9B2D3
:10054000012904D1964A12680243954B1A600FE1C3
:10055000934A1268934B1A40914B1A60C9B2012911
:1005600005D18F4A126852F001028D4B1A60FFE0EC
:100570008B4A12688B4B1A40894B1A60C9B2012909
:1005800005D1874A126852F00042854B1A60EFE0AD
:10059000834A126832F03002814B1A60C9B20129D5
:1005A00005D17F4A126852F010027D4B1A60DFE0DD
:1005B0007B4A126832F03002794B1A60C9B20129C5
:1005C00005D1774A126852F03002754B1A60CFE0BD
:1005D000734A126832F0C002714B1A60C9B2012925
:1005E00005D16F4A126852F040026D4B1A60BFE0AD
:1005F0006B4A126832F0C002694B1A60C9B2012915
:1006000005D1674A126852F0C002654B1A60AFE02C
:10061000634A126832F44072614B1A60C9B2012910
:1006200005D15F4A126852F480725D4B1A609FE0F8
:100630005B4A126832F44072594B1A60C9B2012900
:1006400005D1574A126852F40072554B1A608FE078
:10065000534A126832F44072514B1A60C9B20129F0
:1006600005D14F4A126852F440724D4B1A607FE038
:100670004B4A126832F44062494B1A60C9B20129F0
:1006800005D1474A126852F40062454B1A606FE088
:10069000434A126832F44062414B1A60C9B20129E0
:1006A00005D13F4A126852F440623D4B1A605FE048
:1006B0003B4A126832F4C042394B1A60C9B2012970
:1006C00005D1374A126852F48042354B1A604FE028
:1006D000334A126832F4C042314B1A60C9B2012960
:1006E00005D12F4A126852F4C0422D4B1A603FE0E8
:1006F0002B4A126832F0E062294B1A60C9B2012914
:1007000005D1274A126852F08072254B1A602FE0FB
:10071000234A126832F0E062214B1A60C9B2012903
:1007200005D11F4A126852F000721D4B1A601FE07B
:100730001B4A126832F0E062194B1A60C9B20129F3
:1007400005D1174A126852F08062154B1A600FE00B
:10075000134A126832F40012114B1A60C9B201290F
:1007600005D10F4A126852F400120D4B1A60FFE7D0
:10077000F0BC704700080140000C0140001001402F
:1007800000140140001801402000014024000140F5
:10079000280001402C00014030000140340001409D
:1007A00004000140FEFFFF7FC9B2002905D01C4AAA
:1007B000126802431A4B1A6004E0194A1268824315
:1007C000174B1A607047C9B2002905D0154A126844
:1007D0000243144B1A6004E0124A12688243114B20
:1007E0001A607047C9B2002905D00F4A1268024347
:1007F0000D4B1A6004E00C4A126882430A4B1A60DF
:100800007047C9B2002905D0084A12680243074B55
:100810001A6004E0054A12688243044B1A6070476C
:1008200014100240181002401C1002400C1002402C
:1008300082B000210191019981420CD200210091E6
:100840000099142903D20099491C0091F8E70199F5
:10085000491C0191EFE702B0704700B587B04FF433
:100860008050ADF8000010208DF8030002208DF8B4
:1008700002006946DFF8E802FFF7C3FC4FF480513D
:10088000DFF8DC02FFF758FD4FF46040ADF80000E0
:1008900002208DF8020018208DF803006946DFF869
:1008A000C002FFF7AEFC0020ADF804004FF48270E8
:1008B000ADF806000020ADF808000020ADF80A00F1
:1008C0000020ADF80C004FF40070ADF80E000020D1
:1008D000ADF810000020ADF812000720ADF81400AC
:1008E00001A9DFF8800200F08BF90121DFF8740222
:1008F00000F0B5F907B000BD10B504000221DFF823
:10090000640200F0BEF90028F8D0E4B2210089B2F8
:10091000DFF8500200F0B1F90121DFF8480200F0E1
:10092000B0F90028F8D00520FFF782FFDFF8340285
:1009300000F0A5F9C0B210BD70B504000D0016009E
:100940004FF48050884908600B20FFF7D5FF280C32
:10095000C0B2FFF7D1FF280AC0B2FFF7CDFF2800D1
:10096000C0B2FFF7C9FFA520FFF7C6FF3000461E43
:1009700080B2002805D0A520FFF7BEFF2070641CC0
:10098000F4E74FF480507949086070BD10B5040059
:100990004FF48050744908600620FFF7ADFF4FF414
:1009A0008050724908604FF480506F4908602020E1
:1009B000FFF7A2FF200CC0B2FFF79EFF200AC0B2D3
:1009C000FFF79AFF2000C0B2FFF796FF4FF4805068
:1009D0006649086000F002F8002010BD80B50020D4
:1009E0008DF800004FF480505F4908600520FFF744
:1009F00083FFA520FFF780FF8DF8000000F016FBB5
:100A00009DF80000C007F4D44FF4805057490860A7
:100A100001BD2DE9F04704000D00160000208146BD
:100A2000280642D0D5F5807000F0FF0080463000E7
:100A3000414680B289B2884203D2B2460120814643
:100A400000E0C2464FF48050474908600620FFF797
:100A500053FF4FF480504549086000F0E7FA4FF427
:100A60008050414908600220FFF746FF280CC0B2C1
:100A7000FFF742FF280AC0B2FFF73EFF2800C0B2CE
:100A8000FFF73AFF5046B0F1010A80B2002806D0C5
:100A90002078FFF731FF641C761E6D1CF2E74FF4DF
:100AA000805032490860FFF799FF1FFA89F9B9F1C0
:100AB000000F52D1300080B2000A8046300601D0CB
:100AC00018F10108002007003800414680B289B2C1
:100AD000884242D2280502D12800FFF757FFB6B25C
:100AE000B6F5807F03DD4FF48070824600E0B246A9
:100AF0004FF480501C4908600620FFF7FDFE4FF4BC
:100B000080501A49086000F091FA4FF4805016495D
:100B100008600220FFF7F0FE280CC0B2FFF7ECFEE1
:100B2000280AC0B2FFF7E8FE2800C0B2FFF7E4FED3
:100B30005046B0F1010A80B2002806D02078FFF7B5
:100B4000DBFE641C761E6D1CF2E74FF480500749F3
:100B50000860FFF743FF7F1CB6E7BDE8F0870000A1
:100B6000000C014000380040140C0140100C014002
:100B700010B5C2B00400200501D001203EE02000E5
:100B8000FFF704FF002000900098FF2807D8009886
:100B9000009901AA11540098401C0090F4E74FF40A
:100BA0008072210001A8FFF734FF00200090009818
:100BB000FF2807D8002001A9009A88540098401CFB
:100BC0000090F4E74FF48072210001A8FFF7B4FE13
:100BD000002000900098FF2809D8009801A9085C1F
:100BE0000099884203D10098401C0090F2E70098D9
:100BF000B0F5807F01D1002000E0012042B010BD9F
:100C000010B4002203881A0012F441528B891B048D
:100C100004D5838853F48073838004E083884FF67F
:100C2000FF64234083800B884C8823438C882343B4
:100C3000CC8823430C8923434C8923438C89640447
:100C4000640C2343CC8923431A430280838B4FF2E5
:100C5000FF74234083830B8A038210BC7047C9B2A0
:100C6000002904D0028852F04002028004E0028889
:100C70004FF6BF731A4002807047818170478089A8
:100C800070470200002013890B4202D00123180094
:100C900001E000231800C0B27047704770477047EA
:100CA000704770477047704770477047704770478C
:100CB000704770477047704770477047704770477C
:100CC000704770477047704770477047704770476C
:100CD000704770477047704770477047704770475C
:100CE000704770477047704770477047704770474C
:100CF000704770472DE9F04782B004000D002600D0
:100D0000AF0801214020FFF74FFD00F093F90020CC
:100D10008046B84528D216F828008DF8000006EB6A
:100D2000880040788DF8010006EB880080788DF807
:100D3000020006EB8800C0788DF803009DF80000E3
:100D40009DF80110090451EA00609DF8021050EA74
:100D500001209DF8031008438146484600F06EF9D3
:100D6000824618F10108D4E700214020FFF71CFD5E
:100D70005046BDE8F68710B582B004000020ADF8FB
:100D80000000BDF80000210089B2884209D24FF46A
:100D90007A7000F007F8BDF80000401CADF80000C4
:100DA000EFE713BD81B00021ADF80210BDF80210CD
:100DB000020092B2914212D200218DF800109DF8EB
:100DC0000010152905DA9DF80010491C8DF8001057
:100DD000F5E7BDF80210491CADF80210E6E701B0D6
:100DE000704780B5AB206949088064206749488016
:100DF00055206649888000206449C88000206349E6
:100E000008810020614948810020604988820020D3
:100E10005E49C86000205D49086100F05CF801BDD2
:100E20002DE9F041B4B000275848804658480500E5
:100E3000584800880600320092B2290001A8FFF746
:100E40007BFD9DF80400AB2803D0FFF7CAFF00200C
:100E50003EE0B11E89B201A800F0A0F80400200015
:100E600001A9B6B2314411F8021CC0B288420AD1BD
:100E7000200080B2000A01A9B6B2314411F8011C69
:100E8000C0B2884201D001200700FFB2002F1DD15F
:100E900000208DF800009DF80000310080B289B27A
:100EA00088420DD201A89DF80010405C88F800002F
:100EB00018F101089DF80000401C8DF80000EAE7D9
:100EC0003548324991EC060B80EC060B3800C0B275
:100ED00034B0BDE8F0812DE9F043B3B000242B48D5
:100EE00005002B4807002B4800888046B8F1020116
:100EF00089B2280000F052F881461FFA88F805EB05
:100F0000080000F8029C484680B2000A1FFA88F8E0
:100F100005EB080101F8010C424692B239002800A5
:100F2000FFF777FD424692B239006846FFF704FDAD
:100F3000B8F1020189B2684600F030F806003000CE
:100F400069461FFA88F8414411F8021CC0B2884271
:100F50000BD1300080B2000A69461FFA88F841447C
:100F600011F8011CC0B2884201D001200400E4B293
:100F7000002C05D10848054991EC060B80EC060BC6
:100F80002000C0B233B0BDE8F0830000201800207C
:100F900000D077000000002008180020F8B50400F9
:100FA0000D000027002006003000290080B289B221
:100FB00088420BD23A0092B24AF20101B6B2A05D69
:100FC00080B200F006F80700761CEDE7380080B22A
:100FD000F2BD10B4030010005B0000242200D2B266
:100FE000082A0FDA9BB25B089BB280B290EA030436
:100FF000E40703D580B291EA500001E080B24008D6
:10100000521CECE780B210BC704780B545F25550D9
:1010100000F01EF8042000F01FF84FF4487000F0B4
:101020001FF800F021F800F024F801BD80B500F0B1
:101030001BF801BD01200449086070470100034806
:1010400001600248006870470830024000300240EA
:1010500080B20A4908607047C0B209490860704709
:1010600080B20849086070474AF6AA200349086020
:1010700070474CF6CC400149086070470030004092
:101080000430004008300040DFF82802DFF8281262
:101090000860DFF82802DFF820120860704738B5D2
:1010A00004000425B4F1046F2BD35FF0FF3000F08F
:1010B000EAF80500EDB2042D20D1DFF8080200683F
:1010C00050F00200DFF8FC110860DFF8FC0104605A
:1010D000DFF8F001006850F04000DFF8E811086028
:1010E0005FF0FF3000F0CFF80500DFF8D8010068AE
:1010F00041F6FD710840DFF8CC1108602800C0B24D
:101100002AE05FF0805000F0A7F80500EDB2042D52
:1011100020D1DFF8AC01006850F00200DFF8A01128
:101120000860DFF8A8010460DFF89401006850F05F
:101130004000DFF88C1108605FF0805000F08CF800
:101140000500DFF87C01006841F6FD710840DFF81A
:10115000701108602800C0B232BD70B504000D00E7
:101160000426B4F1046F21D35FF4002000F08BF863
:101170000600F6B2042E16D1DFF84801006850F0E0
:101180000100DFF84011086025805FF4002000F0C6
:101190007AF80600DFF82C01006841F6FE7108407D
:1011A000DFF8201108603000C0B220E04FF470403A
:1011B00000F052F80600F6B2042E16D1DFF8000156
:1011C000006850F00100DFF8F810086025804FF447
:1011D000704000F041F80600DFF8E400006841F6D6
:1011E000FE710840DFF8D81008603000C0B270BD52
:1011F000042038490968C90702D5012108000FE019
:1012000034490968490702D50221080008E031493C
:101210000968C90602D50321080001E0042108007D
:10122000C0B2704704202A490968C90702D50121C4
:1012300008000FE026490968490702D50221080085
:1012400008E023490968C90602D50321080001E026
:1012500004210800C0B2704738B504000425FFF728
:10126000C7FF0500EDB2012D06D1002C04D0FFF719
:10127000BFFF0500641EF5E7002C01D10520050025
:101280002800C0B232BD38B504000425FFF7CAFFFC
:101290000500EDB2012D06D1002C04D0FFF7C2FFEE
:1012A0000500641EF5E7002C01D10520050028008B
:1012B000C0B232BD2301674504200240AB89EFCDA7
:1012C000102002409020024094200240142002404E
:1012D0008C2002400C20024038B5644800680400AD
:1012E00063482040B0F1005F08D162480068040004
:1012F00025005E48006880F30888A84731BD2DE9C5
:10130000F84304000D001700FFF7BEFE600502D190
:101310002000FFF7C4FEFFF789FEBFB2781C47101C
:10132000002006003000390080B289B2884217D20E
:101330005FF00208E94642462900484600F09EF860
:10134000BDF800102000FFF708FF2088BDF800104E
:10135000884201D0012004E0AD1CA41C761CE1E70A
:101360000020BDE8F2832DE9F04104005FF003089E
:10137000E00A060000200500B5422BD24FF40062BF
:101380004FF4006000FB05F010F5F0013A48FFF75C
:10139000D3FA002080465FFA88F8B8F1030F10DA1C
:1013A000FFF744FE4FF4006233494FF400602F4BC7
:1013B00000FB0530FFF7A3FF002802D018F1010859
:1013C000E9E75FFA88F8B8F1030F01D100204AE09D
:1013D0006D1CD1E76005400D0600600529D0320084
:1013E00092B24FF4006000FB05F010F5F0012248C6
:1013F000FFF7A2FA002080465FFA88F8B8F1030FE1
:1014000010DAFFF713FE320092B21B494FF400606E
:10141000164B00FB0530FFF772FF002802D018F1D1
:101420000108E9E75FFA88F8B8F1030F01D100205D
:1014300019E00020070000200500A54211D23A0063
:1014400092B24AF2010105F1006010F58040007887
:10145000C0B280B2FFF7BDFD0700FFF7E7FD6D1CCE
:10146000EBE7380080B2BDE8F081000000400008E2
:101470000000FF2F044000080810002062B38B0713
:1014800008D0521E11F8013B00F8013B00F0248007
:101490008B07F6D1830740F0208000BF103A07D3B6
:1014A00030B4B1E83810103AA0E83810F9D230BCA6
:1014B000530724BFB1E80810A0E8081044BF51F852
:1014C000043B40F8043BD20724BF31F8022B20F83C
:1014D000022B44BF0B7803707047083A07D3B1E87A
:1014E0000810083A40F8043B40F804CBF7D2530701
:1014F000E4E7000070B50025002672B600F06FF832
:1015000001215FF00070FEF71DFF00F09BF8FFF770
:10151000A4F96420FFF72FFC5548FFF729FB0400CE
:10152000FFF77EFC00F083F852488088552805D1EB
:101530005048808A002801D1FFF7CEFE4D488088B0
:10154000AA2822D14B48808A55281ED162B6FFF7BF
:101550005CFD80214848FEF7F2FE4648C068FFF770
:1015600002FF4449498980B2884202D1552043494B
:101570008880002041498882FFF7ADFC80213E48E9
:10158000FEF7DAFEFFF752FDFEE73D493D48FFF763
:10159000B1FB06003C4800680500AE420BD1002EAE
:1015A00009D016F1010F06D0002D04D015F1010F5E
:1015B00001D0FFF791FE62B6FFF727FDFFF736FD7A
:1015C00080212D48FEF7BBFE6420FFF7D4FB80216D
:1015D0002948FEF7B1FE6420FFF7CDFBEEE780B5AA
:1015E00001210120FFF7FEF801214FF48050FFF7A1
:1015F000EAF801214FF48040FFF7F4F801210420BC
:10160000FFF7E1F801210820FFF7DDF801211020A4
:10161000FFF7D9F801212020FFF7D5F8012140205C
:10162000FFF7D1F801210120FFF7CDF801BD80B50A
:1016300000215FF0006000F02EF84FF4A06000F091
:1016400025F801BD80B50C48FEF798FD8020ADF867
:10165000000010208DF8030002208DF8020069467A
:101660000548FEF7CEFD80210348FEF765FE01BD6B
:1016700000C0770008180020001801402018002042
:10168000FCBF030000400008FCFF030805490143BC
:10169000054A11607047054A0A400243044B1A602C
:1016A000704700000000FA050CED00E080FFFF1F0E
:1016B00008ED00E080B54E48006850F470004C49D9
:1016C00008604C48006850F001004A4908604A48E8
:1016D00000680020484908604648006847490840BB
:1016E000444908604348006830F48020414908605C
:1016F0005FF41F004249086000F005F85FF00060E9
:101700004049086001BD80B500F001F801BD82B01C
:1017100000200190002000903648006850F480308E
:10172000344908603348006810F400300090019894
:10173000401C01900098002803D10198B0F5A06FDB
:10174000F0D12C480068800302D50120009001E010
:10175000002000900098012847D12B48006850F0E5
:101760001000294908602848006880088000264940
:1017700008602548006850F00200234908601E48B0
:1017800000681D4908601C4800681B4908601A4829
:10179000006850F4806018490860174800681B49C9
:1017A0000840154908601448006850F4E8101249D0
:1017B00008601048006850F080700E4908600D48BD
:1017C00000688001FBD50C480068800880000A4949
:1017D00008600948006850F00200074908600648A0
:1017E000006810F00C000828F9D102B07047000022
:1017F00088ED00E00010024004100240FFFFF6FEFA
:101800000810024008ED00E000200240FFFFC09FEA
:1018100019E050F8041BCB0744BFA9F10103591884
:10182000121F0023042A41F8043BF9D25FEA827CAC
:101830000B4604D54FF0000CA1F800C09B1CD1074B
:1018400044BF0021197050F8042B002AE1D17047E1
:1018500010B450F8041B79B10268436802440830A0
:10186000DC0744BFA9F10104E31852F8044B43F824
:10187000044B091FF9D1ECE710BC704710B50749BC
:1018800079441831064C7C44163404E00A68081D7B
:10189000114488470146A142F8D110BD2C00000038
:1018A0004C0000004EF68851CEF20001086840F46A
:1018B00070000860BFF34F8FBFF36F8F4FF0007061
:1018C000E1EE100A7047000049FFFFFF30080000FA
:1018D000081000200000000079FFFFFF0400000056
:1018E00008010000000000200000000000F00BF8DC
:1018F000002801D0FFF7C2FF0020AFF30080FFF700
:10190000F9FD00F002F80120704700F001B8000076
:101910000746384600F002F8FBE7000080B5AFF359
:101920000080024A11001820ABBEFBE7260002002F
:101930000148804701480047B516000841190008D2
:10194000AFF30080FFF7AEFFFFF7D0FFFFF7FEBF5A
:10195000FFF7FEBFFFF7FEBFFFF7FEBFFFF7FEBFBB
:10196000FFF7FEBFFFF7FEBFFFF7FEBFFFF7FEBFAB
:10197000FFF7FEBFFFF7FEBFFFF7FEBFFFF7FEBF9B
:10198000FFF7FEBFFFF7FEBFFFF7FEBFFFF7FEBF8B
:10199000FFF7FEBFFFF7FEBFFFF7FEBFFFF7FEBF7B
:1019A000FFF7FEBFFFF7FEBFFFF7FEBFFFF7FEBF6B
:1019B000FFF7FEBFFFF7FEBFFFF7FEBFFFF7FEBF5B
:1019C000FFF7FEBFFFF7FEBFFFF7FEBFFFF7FEBF4B
:1019D000FFF7FEBFFFF7FEBFFFF7FEBFFFF7FEBF3B
:0C19E000FFF7FEBFFFF7FEBF180000007D
:040000050800194195
:00000001FF
