:020000040800F2
:2000000008100020311900084D1900085119000855190008591900085D1900080000000008
:20002000000000000000000000000000611900086519000800000000691900086D190008A0
:200040009B0C00089D0C00089F0C0008A10C0008A30C0008A50C0008A70C0008A90C0008F0
:20006000AB0C0008AD0C0008AF0C0008B10C0008B30C0008B50C0008B70C0008B90C000850
:20008000BB0C0008BD0C0008BF0C00087119000875190008791900087D190008C10C0008B8
:2000A000811900088519000889190008C30C0008C50C0008C70C0008C90C0008CB0C000807
:2000C000CD0C0008CF0C0008D10C0008D30C00088D190008D50C0008D70C0008D90C000821
:2000E000DB0C0008DD0C0008DF0C0008911900089519000899190008E10C0008E30C00081F
:200100009D190008E50C0008E70C0008A1190008E90C0008EB0C0008A5190008A9190008DF
:20012000ED0C0008EF0C0008F10C0008F30C0008AD190008B1190008B5190008B91900085F
:2001400000000000000000000000000000000000BD190008C1190008C5190008C91900080F
:20016000CD190008D1190008D5190008D9190008DD190008E1190008E519000810B50400E0
:20018000DFF8F005844208D10121042000F039FB0021042000F035FB32E0DFF8DC05844295
:2001A00008D10121082000F02CFB0021082000F028FB25E0DFF8C405844208D10121102013
:2001C00000F01FFB0021102000F01BFB18E0DFF8B005844208D10121202000F012FB00211B
:2001E000202000F00EFB0BE0DFF89805844207D10121402000F005FB0021402000F001FBEA
:2002000010BDF0B500270022002300240025002691F803C01CF00F0C674691F803C05FEADC
:20022000CC6C03D591F802C05CEA070791F800C05FEA0C6C3AD0D0F800C065465FF0000C6D
:200240006346082B31D25FF0010C1CFA03FC6446B1F800C014EA0C0C6246A24223D15FEA5C
:20026000830C64465FF00F0C1CFA04FC6646B54317FA04FC5CEA050591F803C0BCF1280F90
:2002800006D15FF0010C1CFA03FCC0F814C00AE091F803C0BCF1480F05D15FF0010C1CFA08
:2002A00003FCC0F810C05B1CCBE70560B1F800C0BCF1FF0F3FDDD0F804C065465FF0000C57
:2002C0006346082B36D25FF0010C13F1080E1CFA0EFC6446B1F800C014EA0C0C6246A242EF
:2002E00026D15FEA830C64465FF00F0C1CFA04FC6646B54317FA04FC5CEA050591F803C0B4
:20030000BCF1280F07D15FF0010C13F1080E1CFA0EFCC0F814C091F803C0BCF1480F07D1D7
:200320005FF0010C13F1080E1CFA0EFCC0F810C05B1CC6E74560F0BD89B20161704789B29A
:2003400041617047F0B4B0F1004F40F29A800023002420F000473E00F7093B0016F07F06C2
:2003600037093C0016F00F06052B06D02700FFB2BF0016FA07F73A0005E06708FFB2BF003D
:2003800016FA07F73A00002B08D0022B0ED009D3042B13D00ED3052B14D017E0DFF8E873FB
:2003A0003D0013E0DFF8E4733D000FE0DFF8E0733D000BE0DFF8DC733D0007E0DFF8D873F5
:2003C0003D0003E0DFF8D4733D00FFE7002C0BD1052B04D12F68BF08BF002F6049E02F6843
:2003E0003F093F012F6044E0012C0BD1052B04D12F6837F00C072F603BE02F6837F0F00784
:200400002F6036E0022C0BD1052B04D12F6837F030072F602DE02F6837F470672F6028E067
:20042000032C0BD1052B04D12F6837F0C0072F601FE02F6837F470472F601AE0042C04D192
:200440002F6837F470272F6013E0052C04D12F6837F470072F600CE0062C04D12F6837F042
:2004600070672F6005E0072C03D12F6827F070472F60C9B2012940F07B812F683A432A60C7
:2004800076E10200012A63D0022A53D0042A51D0082A4FD0102A7BD0302A00F08980402A74
:2004A00000F09680C02A00F0A380B2F5807F00F0AF80B2F5007F00F0BB80B2F5407F00F0CD
:2004C000C780B2F5006F00F0D380B2F5406F00F0DF80B2F5805F2DD0B2F5804F00F0E88086
:2004E000B2F5C04F00F0F480B2F5004F22D0B2F5803F1FD0B2F5003F1CD0B2F5802F19D094
:20050000B2F5002F16D0B2F5801F13D0B2F5001F00F01E81B2F1807F00F0EA80B2F1007F83
:2005200000F0F680B2F1806F00F00281B2F1004F1ED01DE19A4A12688243994B1A60C9B276
:20054000012904D1964A12680243954B1A600FE1934A1268934B1A40914B1A60C9B2012929
:2005600005D18F4A126852F001028D4B1A60FFE08B4A12688B4B1A40894B1A60C9B201296A
:2005800005D1874A126852F00042854B1A60EFE0834A126832F03002814B1A60C9B2012917
:2005A00005D17F4A126852F010027D4B1A60DFE07B4A126832F03002794B1A60C9B2012957
:2005C00005D1774A126852F03002754B1A60CFE0734A126832F0C002714B1A60C9B20129B7
:2005E00005D16F4A126852F040026D4B1A60BFE06B4A126832F0C002694B1A60C9B20129B7
:2006000005D1674A126852F0C002654B1A60AFE0634A126832F44072614B1A60C9B2012952
:2006200005D15F4A126852F480725D4B1A609FE05B4A126832F44072594B1A60C9B201292E
:2006400005D1574A126852F40072554B1A608FE0534A126832F44072514B1A60C9B20129BE
:2006600005D14F4A126852F440724D4B1A607FE04B4A126832F44062494B1A60C9B201299E
:2006800005D1474A126852F40062454B1A606FE0434A126832F44062414B1A60C9B20129FE
:2006A00005D13F4A126852F440623D4B1A605FE03B4A126832F4C042394B1A60C9B201296E
:2006C00005D1374A126852F48042354B1A604FE0334A126832F4C042314B1A60C9B201295E
:2006E00005D12F4A126852F4C0422D4B1A603FE02B4A126832F0E062294B1A60C9B20129F2
:2007000005D1274A126852F08072254B1A602FE0234A126832F0E062214B1A60C9B2012915
:2007200005D11F4A126852F000721D4B1A601FE01B4A126832F0E062194B1A60C9B20129A5
:2007400005D1174A126852F08062154B1A600FE0134A126832F40012114B1A60C9B2012971
:2007600005D10F4A126852F400120D4B1A60FFE7F0BC704700080140000C01400010014076
:2007800000140140001801402000014024000140280001402C000140300001403400014029
:2007A00004000140FEFFFF7FC9B2002905D01C4A126802431A4B1A6004E0194A1268824376
:2007C000174B1A607047C9B2002905D0154A12680243144B1A6004E0124A12688243114B3B
:2007E0001A607047C9B2002905D00F4A126802430D4B1A6004E00C4A126882430A4B1A601D
:200800007047C9B2002905D0084A12680243074B1A6004E0054A12688243044B1A607047D9
:2008200014100240181002401C1002400C10024082B000210191019981420CD2002100914A
:200840000099142903D20099491C0091F8E70199491C0191EFE702B0704700B587B04FF480
:200860008050ADF8000010208DF8030002208DF802006946DFF8E802FFF7C3FC4FF4805169
:20088000DFF8DC02FFF758FD4FF46040ADF8000002208DF8020018208DF803006946DFF8E1
:2008A000C002FFF7AEFC0020ADF804004FF48270ADF806000020ADF808000020ADF80A0091
:2008C0000020ADF80C004FF40070ADF80E000020ADF810000020ADF812000720ADF8140055
:2008E00001A9DFF8800200F08BF90121DFF8740200F0B5F907B000BD10B504000221DFF83D
:20090000640200F0BEF90028F8D0E4B2210089B2DFF8500200F0B1F90121DFF8480200F0F2
:20092000B0F90028F8D00520FFF782FFDFF8340200F0A5F9C0B210BD70B504000D0016005C
:200940004FF48050884908600B20FFF7D5FF280CC0B2FFF7D1FF280AC0B2FFF7CDFF28005C
:20096000C0B2FFF7C9FFA520FFF7C6FF3000461E80B2002805D0A520FFF7BEFF2070641C7C
:20098000F4E74FF480507949086070BD10B504004FF48050744908600620FFF7ADFF4FF406
:2009A0008050724908604FF480506F4908602020FFF7A2FF200CC0B2FFF79EFF200AC0B26D
:2009C000FFF79AFF2000C0B2FFF796FF4FF480506649086000F002F8002010BD80B5002015
:2009E0008DF800004FF480505F4908600520FFF783FFA520FFF780FF8DF8000000F016FBF2
:200A00009DF80000C007F4D44FF480505749086001BD2DE9F04704000D001600002081467E
:200A2000280642D0D5F5807000F0FF0080463000414680B289B2884203D2B2460120814664
:200A400000E0C2464FF48050474908600620FFF753FF4FF480504549086000F0E7FA4FF418
:200A60008050414908600220FFF746FF280CC0B2FFF742FF280AC0B2FFF73EFF2800C0B209
:200A8000FFF73AFF5046B0F1010A80B2002806D02078FFF731FF641C761E6D1CF2E74FF43E
:200AA000805032490860FFF799FF1FFA89F9B9F1000F52D1300080B2000A8046300601D045
:200AC00018F10108002007003800414680B289B2884242D2280502D12800FFF757FFB6B2F7
:200AE000B6F5807F03DD4FF48070824600E0B2464FF480501C4908600620FFF7FDFE4FF45F
:200B000080501A49086000F091FA4FF48050164908600220FFF7F0FE280CC0B2FFF7ECFE59
:200B2000280AC0B2FFF7E8FE2800C0B2FFF7E4FE5046B0F1010A80B2002806D02078FFF7C3
:200B4000DBFE641C761E6D1CF2E74FF4805007490860FFF743FF7F1CB6E7BDE8F0870000EF
:200B6000000C014000380040140C0140100C014010B5C2B00400200501D001203EE0200062
:200B8000FFF704FF002000900098FF2807D80098009901AA11540098401C0090F4E74FF42B
:200BA0008072210001A8FFF734FF002000900098FF2807D8002001A9009A88540098401CCE
:200BC0000090F4E74FF48072210001A8FFF7B4FE002000900098FF2809D8009801A9085C0D
:200BE0000099884203D10098401C0090F2E70098B0F5807F01D1002000E0012042B010BD73
:200C000010B4002203881A0012F441528B891B0404D5838853F48073838004E083884FF628
:200C2000FF64234083800B884C8823438C882343CC8823430C8923434C8923438C89640437
:200C4000640C2343CC8923431A430280838B4FF2FF74234083830B8A038210BC7047C9B2E1
:200C6000002904D0028852F04002028004E002884FF6BF731A4002807047818170478089AD
:200C800070470200002013890B4202D00123180001E000231800C0B270477047704770471A
:200CA0007047704770477047704770477047704770477047704770477047704770477047C4
:200CC0007047704770477047704770477047704770477047704770477047704770477047A4
:200CE00070477047704770477047704770477047704770472DE9F04782B004000D00260018
:200D0000AF0801214020FFF74FFD00F093F900208046B84528D216F828008DF8000006EB53
:200D2000880040788DF8010006EB880080788DF8020006EB8800C0788DF803009DF8000027
:200D40009DF80110090451EA00609DF8021050EA01209DF8031008438146484600F06EF9A4
:200D6000824618F10108D4E700214020FFF71CFD5046BDE8F68710B582B004000020ADF8D6
:200D80000000BDF80000210089B2884209D24FF47A7000F007F8BDF80000401CADF80000CB
:200DA000EFE713BD81B00021ADF80210BDF80210020092B2914212D200218DF800109DF875
:200DC0000010152905DA9DF80010491C8DF80010F5E7BDF80210491CADF80210E6E701B00A
:200DE000704780B5AB206949088064206749488055206649888000206449C88000206349F9
:200E0000088100206149488100206049888200205E49C86000205D49086100F05CF801BDC3
:200E20002DE9F041B4B000275848804658480500584800880600320092B2290001A8FFF769
:200E40007BFD9DF80400AB2803D0FFF7CAFF00203EE0B11E89B201A800F0A0F8040020007F
:200E600001A9B6B2314411F8021CC0B288420AD1200080B2000A01A9B6B2314411F8011CA4
:200E8000C0B2884201D001200700FFB2002F1DD100208DF800009DF80000310080B289B277
:200EA00088420DD201A89DF80010405C88F8000018F101089DF80000401C8DF80000EAE7C6
:200EC0003548324991EC060B80EC060B3800C0B234B0BDE8F0812DE9F043B3B000242B4828
:200EE00005002B4807002B4800888046B8F1020189B2280000F052F881461FFA88F805EB19
:200F0000080000F8029C484680B2000A1FFA88F805EB080101F8010C424692B239002800A4
:200F2000FFF777FD424692B239006846FFF704FDB8F1020189B2684600F030F806003000BA
:200F400069461FFA88F8414411F8021CC0B288420BD1300080B2000A69461FFA88F841444C
:200F600011F8011CC0B2884201D001200400E4B2002C05D10848054991EC060B80EC060BD8
:200F80002000C0B233B0BDE8F08300002018002000D077000000002008180020F8B5040014
:200FA0000D000027002006003000290080B289B288420BD23A0092B24AF20101B6B2A05D49
:200FC00080B200F006F80700761CEDE7380080B2F2BD10B4030010005B0000242200D2B26F
:200FE000082A0FDA9BB25B089BB280B290EA0304E40703D580B291EA500001E080B240080B
:20100000521CECE780B210BC704780B545F2555000F01EF8042000F01FF84FF4487000F0AD
:201020001FF800F021F800F024F801BD80B500F01BF801BD012004490860704701000348F7
:201040000160024800687047083002400030024080B20A4908607047C0B209490860704753
:2010600080B20849086070474AF6AA200349086070474CF6CC400149086070470030004032
:201080000430004008300040DFF82802DFF828120860DFF82802DFF820120860704738B5D4
:2010A00004000425B4F1046F2BD35FF0FF3000F0EAF80500EDB2042D20D1DFF8080200688E
:2010C00050F00200DFF8FC110860DFF8FC010460DFF8F001006850F04000DFF8E811086062
:2010E0005FF0FF3000F0CFF80500DFF8D801006841F6FD710840DFF8CC1108602800C0B2FB
:201100002AE05FF0805000F0A7F80500EDB2042D20D1DFF8AC01006850F00200DFF8A0119B
:201120000860DFF8A8010460DFF89401006850F04000DFF88C1108605FF0805000F08CF8A0
:201140000500DFF87C01006841F6FD710840DFF8701108602800C0B232BD70B504000D0062
:201160000426B4F1046F21D35FF4002000F08BF80600F6B2042E16D1DFF84801006850F0C4
:201180000100DFF84011086025805FF4002000F07AF80600DFF82C01006841F6FE710840E4
:2011A000DFF8201108603000C0B220E04FF4704000F052F80600F6B2042E16D1DFF8000151
:2011C000006850F00100DFF8F810086025804FF4704000F041F80600DFF8E400006841F6FE
:2011E000FE710840DFF8D81008603000C0B270BD042038490968C90702D5012108000FE06C
:2012000034490968490702D50221080008E031490968C90602D50321080001E004210800DB
:20122000C0B2704704202A490968C90702D5012108000FE026490968490702D5022108008B
:2012400008E023490968C90602D50321080001E004210800C0B2704738B504000425FFF7B0
:20126000C7FF0500EDB2012D06D1002C04D0FFF7BFFF0500641EF5E7002C01D105200500C0
:201280002800C0B232BD38B504000425FFF7CAFF0500EDB2012D06D1002C04D0FFF7C2FF8C
:2012A0000500641EF5E7002C01D1052005002800C0B232BD2301674504200240AB89EFCDF4
:2012C000102002409020024094200240142002408C2002400C20024038B5644800680400DD
:2012E00063482040B0F1005F08D162480068040025005E48006880F30888A84731BD2DE9CB
:20130000F84304000D001700FFF7BEFE600502D12000FFF7C4FEFFF789FEBFB2781C4710CF
:20132000002006003000390080B289B2884217D25FF00208E94642462900484600F09EF8B1
:20134000BDF800102000FFF708FF2088BDF80010884201D0012004E0AD1CA41C761CE1E7BB
:201360000020BDE8F2832DE9F04104005FF00308E00A060000200500B5422BD24FF40062E0
:201380004FF4006000FB05F010F5F0013A48FFF7D3FA002080465FFA88F8B8F1030F10DA1B
:2013A000FFF744FE4FF4006233494FF400602F4B00FB0530FFF7A3FF002802D018F10108E3
:2013C000E9E75FFA88F8B8F1030F01D100204AE06D1CD1E76005400D0600600529D0320004
:2013E00092B24FF4006000FB05F010F5F0012248FFF7A2FA002080465FFA88F8B8F1030FAA
:2014000010DAFFF713FE320092B21B494FF40060164B00FB0530FFF772FF002802D018F163
:201420000108E9E75FFA88F8B8F1030F01D1002019E00020070000200500A54211D23A0004
:2014400092B24AF2010105F1006010F580400078C0B280B2FFF7BDFD0700FFF7E7FD6D1CB9
:20146000EBE7380080B2BDE8F0810000004000080000FF2F044000080810002062B38B0779
:2014800008D0521E11F8013B00F8013B00F024808B07F6D1830740F0208000BF103A07D361
:2014A00030B4B1E83810103AA0E83810F9D230BC530724BFB1E80810A0E8081044BF51F8BC
:2014C000043B40F8043BD20724BF31F8022B20F8022B44BF0B7803707047083A07D3B1E89A
:2014E0000810083A40F8043B40F804CBF7D25307E4E7000070B50025002672B600F06FF837
:2015000001215FF00070FEF71DFF00F09BF8FFF7A4F96420FFF72FFC5548FFF729FB040063
:20152000FFF77EFC00F083F852488088552805D15048808A002801D1FFF7CEFE4D488088E0
:20154000AA2822D14B48808A55281ED162B6FFF75CFD80214848FEF7F2FE4648C068FFF794
:2015600002FF4449498980B2884202D1552043498880002041498882FFF7ADFC80213E48B9
:20158000FEF7DAFEFFF752FDFEE73D493D48FFF7B1FB06003C4800680500AE420BD1002EB6
:2015A00009D016F1010F06D0002D04D015F1010F01D0FFF791FE62B6FFF727FDFFF736FD9D
:2015C00080212D48FEF7BBFE6420FFF7D4FB80212948FEF7B1FE6420FFF7CDFBEEE780B5FC
:2015E00001210120FFF7FEF801214FF48050FFF7EAF801214FF48040FFF7F4F80121042062
:20160000FFF7E1F801210820FFF7DDF801211020FFF7D9F801212020FFF7D5F80121402026
:20162000FFF7D1F801210120FFF7CDF801BD80B500215FF0006000F02EF84FF4A06000F0E1
:2016400025F801BD80B50C48FEF798FD8020ADF8000010208DF8030002208DF80200694647
:201660000548FEF7CEFD80210348FEF765FE01BD00C0770008180020001801402018002033
:20168000FCBF030000400008FCFF030805490143054A11607047054A0A400243044B1A608E
:2016A000704700000000FA050CED00E080FFFF1F08ED00E080B54E48006850F470004C49AD
:2016C00008604C48006850F001004A4908604A480068002048490860464800684749084089
:2016E000444908604348006830F48020414908605FF41F004249086000F005F85FF000604B
:201700004049086001BD80B500F001F801BD82B000200190002000903648006850F48030D1
:20172000344908603348006810F4003000900198401C01900098002803D10198B0F5A06FB6
:20174000F0D12C480068800302D50120009001E0002000900098012847D12B48006850F05C
:201760001000294908602848006880088000264908602548006850F00200234908601E4877
:2017800000681D4908601C4800681B4908601A48006850F4806018490860174800681B4999
:2017A0000840154908601448006850F4E810124908601048006850F080700E4908600D4854
:2017C00000688001FBD50C480068800880000A4908600948006850F00200074908600648D0
:2017E000006810F00C000828F9D102B07047000088ED00E00010024004100240FFFFF6FE23
:201800000810024008ED00E000200240FFFFC09F19E050F8041BCB0744BFA9F10103591896
:20182000121F0023042A41F8043BF9D25FEA827C0B4604D54FF0000CA1F800C09B1CD1073F
:2018400044BF0021197050F8042B002AE1D1704710B450F8041B79B10268436802440830E9
:20186000DC0744BFA9F10104E31852F8044B43F8044B091FF9D1ECE710BC704710B5074968
:2018800079441831064C7C44163404E00A68081D114488470146A142F8D110BD2C0000005B
:2018A0004C0000004EF68851CEF20001086840F470000860BFF34F8FBFF36F8F4FF0007093
:2018C000E1EE100A7047000049FFFFFF30080000081000200000000079FFFFFF0400000038
:2018E00008010000000000200000000000F00BF8002801D0FFF7C2FF0020AFF30080FFF7E4
:20190000F9FD00F002F80120704700F001B800000746384600F002F8FBE7000080B5AFF3F8
:201920000080024A11001820ABBEFBE7260002000148804701480047B5160008411900084A
:20194000AFF30080FFF7AEFFFFF7D0FFFFF7FEBFFFF7FEBFFFF7FEBFFFF7FEBFFFF7FEBF7E
:20196000FFF7FEBFFFF7FEBFFFF7FEBFFFF7FEBFFFF7FEBFFFF7FEBFFFF7FEBFFFF7FEBFCF
:20198000FFF7FEBFFFF7FEBFFFF7FEBFFFF7FEBFFFF7FEBFFFF7FEBFFFF7FEBFFFF7FEBFAF
:2019A000FFF7FEBFFFF7FEBFFFF7FEBFFFF7FEBFFFF7FEBFFFF7FEBFFFF7FEBFFFF7FEBF8F
:2019C000FFF7FEBFFFF7FEBFFFF7FEBFFFF7FEBFFFF7FEBFFFF7FEBFFFF7FEBFFFF7FEBF6F
:0C19E000FFF7FEBFFFF7FEBF180000007D
:20400000801100209D7B0208197F02081D7F0208217F0208257F0208297F0208000000007B
:204020000000000000000000000000002D7F0208317F020800000000357F0208397F020890
:20404000D95D0208DB5D0208DD5D0208DF5D0208035E0208055E0208075E0208095E02089C
:204060000B5E02080D5E02080F5E0208115E0208135E0208155E0208175E0208435E020846
:20408000455E0208475E0208495E02083D7F0208417F0208457F0208497F02084B5E020830
:2040A0004D7F0208517F0208557F02084D5E02084F5E02086F5E02088B5E02088D5E020847
:2040C0008F5E0208915E0208935E0208955E0208597F0208975E0208E15E02082B5F02083A
:2040E000BF5F0208C15F0208C35F02085D7F0208617F0208657F0208C55F0208C75F020826
:20410000697F0208C95F0208CB5F02086D7F0208CD5F020817600208717F0208757F0208A2
:204120009D6002089F600208A1600208A3600208797F02087D7F0208817F0208857F020837
:2041400000000000000000000000000000000000897F02088D7F0208917F0208957F0208FF
:20416000997F02089D7F0208A17F0208A57F0208755F0208A97F0208AD7F02085A21DFF807
:20418000142A82F82F1000210800C0B209281ADA0021DFF8002AC0B2024451700021DFF8D5
:2041A000F429C0B2024491720021DFF8E829C0B20244D1740021DFF8DC29C0B202EB400283
:2041C0009183401CE1E70021DFF8C82911700021DFF8C02982F82E10704738B5DFF8B80968
:2041E0000068807A0400DFF8B0090068407A0500DFF8A8090078002859D05A20DFF8941953
:2042000081F82F0005F012FFDFF890090078012805D1DFF88C290021022008F093F8DFF8E0
:204220007C090078402805D1DFF878290021022008F088F8DFF864090078102805D1DFF86F
:2042400068290021022008F07DF8DFF850090078082805D1DFF854290021022008F072F876
:20426000DFF838090078802805D1DFF844290021022008F067F8DFF824090078202805D1B8
:20428000DFF830290021022008F05CF8DFF80C090078022805D1DFF820290021022008F0A0
:2042A00051F85A20DFF8EC1881F82F0081E1DFF80C090078002802D004F0DEFB79E1DFF8FA
:2042C000D80800680069002805D0DFF8CC0800680069804736E1DFF8E8080078002800F07F
:2042E000EA800E2007F077FB08F045FB0020DFF8D41808806420DFF8D0180870DFF89808E8
:204300000068007A00281AD0DFF88C080068807A09280ADB0321DFF880080068807A4000A1
:204320001038C0B207F0E8FD09E00321DFF868080068807A4000801CC0B207F0DDFDDFF83B
:2043400080084078012809D0102861D0402874D080282BD0812800F085809CE0DFF8380832
:204360000068807A092190FBF1F201FB1200002804D15A20DFF81C1881F82F00E4B2002C49
:204380000CD1DFF814080068EDB2142101FB05F108441438DFF80018086006E0DFF8F80774
:2043A00000681438DFF8F01708607CE0DFF81C08007890F00100DFF814180870E4B2EDB203
:2043C000681E84420CD1DFF8D0070068EDB2691E7FF0130251430844DFF8BC17086006E01C
:2043E000DFF8B40700681430DFF8AC170860DFF8A8070068807A092190FBF1F201FB1200EF
:20440000002804D15A20DFF88C1781F82F004AE05A20DFF8801781F82F00DFF87C07006887
:20442000406800283FD0DFF8700700684068DFF8681708600020040035E05A20DFF854178C
:2044400081F82F00DFF850070068006800282AD0DFF8440700680068DFF83C1708600020F0
:20446000040020E00020DFF8581748700020DFF8501708705A20DFF81C1781F82F000020F8
:20448000DFF8101781F82E00FF20DFF83017087004F0F2FA8DE00020DFF82417487000206B
:2044A000DFF81C1708700020DFF8141748700020DFF80C170870DFF8E00600680069002858
:2044C00007D008F058FADFF8D00600680069804738E0DFF8C4060068007A00281ED005F0D0
:2044E000A5FD08F048FADFF8B0060068807A09280ADB0321DFF8A0060068807A4000103850
:20450000C0B207F0A0FC09E00321DFF88C060068807A4000801CC0B207F095FCDFF8780693
:204520000068007A002801D100F0CFFCDFF868060068C068002805D0DFF85C060068C06849
:2045400000F038F8DFF87C06008878280CDB0020DFF8701608800E2007F0BAFA08F0E5F820
:204560000020DFF8441A0880DFF8400A007800281FD1DFF824060068007A002819D0DFF8E2
:20458000300ADFF81416086008F0CFF8FFF7F6FD4AF25A50DFF81C1A0880DFF8FC05006815
:2045A000C068002805D0DFF8F0050068C06800F001F831BD38B5040000200500EDB20C2DB5
:2045C0000ADA62686178207807F0BCFE08346068002801D06D1CF1E731BD2DE9F34F83B034
:2045E00014001D000E9E109F002081465FFA89F9B9F1200F09DA0020DFF80C1B5FFA89F9B8
:2046000001F8090019F10109F0E79DF83C008DF80000002083469DF80000002800F0E88059
:2046200005208DF802009DF8000082469DF8000010F0700010281BD1EDB268008DF80200BA
:20464000EDB2012D04D1DFF8C01A387809F0A9F9EDB2022D40F0EA80DFF8AC1A38784FF4C4
:2046600080727B7802FB003080B209F063FADDE09DF8000010F07000202806D09DF800002B
:2046800010F07000302840F0D1809DF8000010F0070082465FFA8AFABAF1000F3FD1302076
:2046A000DFF8641A5FFA8BFB01F80B001BF1010B7878C0B200098DF801009DF801003030C3
:2046C000DFF8441A5FFA8BFB01F80B001BF1010B787810F00F003030DFF82C1A5FFA8BFB4F
:2046E00001F80B001BF1010B3878C0B200098DF801009DF801003030DFF80C1A5FFA8BFB1B
:2047000001F80B001BF1010B387810F00F003030DFF8F4195FFA8BFB01F80B0086E0EDB292
:204720005FFA8AFADAEB450A7878C0B200098DF801009DF801003030DFF8CC195FFA8BFB06
:2047400001F80B001BF1010B50465946C0B2C9B2884208D12E20DFF8B0195FFA8BFB01F8B2
:204760000B001BF1010B787810F00F003030DFF898195FFA8BFB01F80B001BF1010B50469E
:204780005946C0B2C9B2884208D12E20DFF878195FFA8BFB01F80B001BF1010B3878C0B217
:2047A00000098DF801009DF801003030DFF858195FFA8BFB01F80B001BF1010B50465946FC
:2047C000C0B2C9B2884208D12E20DFF83C195FFA8BFB01F80B001BF1010B387810F00F0015
:2047E0003030DFF824195FFA8BFB01F80B001DE0EDB268008DF80200EDB2012D04D1DFF85E
:204800000819387809F037F9EDB2022D0ED1387879784FF48072514351FA80F0ADF8040023
:20482000DFF8E418BDF8040009F0DCF8012081465FFA89F93078401C814514DA5FFA89F9C9
:2048400016F80900DFF8C018E4B2095700B209B2884205D15FFA89F906EB0900804602E012
:2048600019F10109E4E7DFF858030078002800F0D180DFF84C03407801280CD008286FD0F4
:20488000102800F09B8020283DD0402800F0A88080281BD0AEE098F80000202802D1701CA8
:2048A000804601E018F1010898F90000DFF85818E4B20855DFF85008E4B20057202804D13B
:2048C0003020DFF84418E4B208559BE098F80000302804D130783044401E804601E0B8F160
:2048E000010898F90000DFF82018E4B20855DFF81808E4B20057202804D13020DFF80818D4
:20490000E4B208557EE0E4B2002C04D19DF80200401E040000E0641E002081464846317836
:20492000C0B2884214D25FFA89F916F80900DFF8D817E4B2095700B209B2884205D15FFA41
:2049400089F906EB0900804602E019F10109E5E7DFF8B407E4B200572E2800D1641E51E0FA
:20496000E4B29DF80200401E844202D10020040000E0641C0020814648463178C0B2884235
:2049800014D25FFA89F916F80900DFF87C17E4B2095700B209B2884205D15FFA89F906EB06
:2049A0000900804602E019F10109E5E7DFF85807E4B200572E2800D1641C23E00020DFF8A2
:2049C000001248700020DFF8F8110870DFF838279DF810109DF80C0007F0B4FCA520D5E0E8
:2049E0000020DFF8DC1148700020DFF8D41108705A20CBE00020DFF8C81148700020DFF823
:204A0000C01108700020DFF8B81148700020DFF8B01108709DF8000000284CD09DF8000037
:204A200010F0700010282AD1EDB2012D0DD1DFF8D80690F900000A21DFF8CC2692F901204A
:204A400001FB00201038387084E0EDB2022D40F08180DFF8B40609F025F94FF4807190FB80
:204A6000F1F038707F1CDFF8A00609F01BF94FF4807190FBF1F201FB120038706AE09DF851
:204A8000000010F07000202805D09DF8000010F0700030285ED19DF8000010F00700824699
:204AA0005246D2B23900DFF8600600F091F8002850D15A206AE0EDB2012D0CD1DFF848060F
:204AC00040780100C9B2DFF840060078C0B209F02CF938703EE0EDB2022D15D1DFF82806FE
:204AE00009F001F94FF4807190FBF1F201FB120038707F1CDFF8100609F0F5F84FF48071C9
:204B000090FBF1F0387025E0DFF8FC0540780100C9B2DFF8F4050078C0B209F006F9387016
:204B20007F1CDFF8E405C0780100C9B2DFF8D8058078C0B209F0F9F838707F1CDFF8C80577
:204B400040790100C9B2DFF8C0050079C0B209F0ECF83870DFF8B0259DF810109DF80C0012
:204B600007F0F0FB0123DFF8A005E4B2005D0200D2B29DF810002118C9B29DF80C00C0B2CE
:204B80004000C0B207F008FA2000C0B205B0BDE8F08F0000586A0020786D00206D6E00201D
:204BA0003078020844780208587802086C7802088078020894780208A87802086A6E00207B
:204BC000586D0020F26D0020686E0020786E002078B403000024D2B2042A01DB002030E064
:204BE00000200500EDB2042D05DA00206E46EDB270556D1CF6E700200500EDB2052D0EDA65
:204C0000EDB2D2B2D2F10400854205D0187830386E46E4B23055641C5B1C6D1CEDE79DF85E
:204C2000020000019DF8036050FA86F00870491C9DF8000000019DF8016050FA86F0087018
:204C4000012072BC70472DE9FF47040005F0EEF9DFF8640D00785A280BD05A20DFF8581D2F
:204C6000087000208DF80D009DF80D008DF80C000FE000200500EDB2022D0ADADFF8380DF5
:204C8000EDB200EB4500808B03A9EDB248556D1CF1E7E4B2032C02D0E4B2002C06D1DFF8EA
:204CA0007C2B0121022007F04DFB0BE0DFF8702B0021012007F046FBDFF8602B012102204D
:204CC00007F040FB03A8029010200190DFF8540B00900223DFF8E00CDFF8DC1C91F82E1060
:204CE0000844C27C0C210220FFF777FC0600F6B25A2E21D10020DFF8C01C08705A20DFF8AE
:204D0000B81C81F82F000020DFF8AC1CDFF8A82C92F82E201144C87400200500EDB2052D4E
:204D200008DA0020DFF8901CEDB201EB450188836D1CF3E75A20C5E0F6B2A52E40F0A980BC
:204D40000020DFF8741C08705A20DFF86C1C81F82F000020DFF8601CDFF85C2C92F82E2029
:204D60001144C87400200500EDB2052D08DA0020DFF8441CEDB201EB450188836D1CF3E734
:204D80009DF80C004FF480719DF80D2001FB00200700DFF8280C407909F000F88146DFF806
:204DA0001C0C007908F0FAFF80461FFA89F964201FFA88F800FB0988DFF8000C007908F003
:204DC000EDFF8146DFF8F40B807908F0E7FF82461FFA89F964201FFA8AFA00FB09AADFF86A
:204DE000E00BC0794FF48071DFF8D42B127A01FB00208146E4B2002C05D13800494680B285
:204E000089B2884208D0E4B2022C07D13800494680B289B2884201D1A52053E0E4B2012C8E
:204E200007D13800414680B289B2884201D1A52048E0E4B2032C07D13800514680B289B20C
:204E4000884201D1A5203DE0BFB2B7F57A7F01D1A52037E0BFB241F60630874201D1A520D2
:204E600030E05A20DFF8501B81F82F0005F0DEF8DFF8502B0321022007F064FAFFF77EF999
:204E8000DFF8440B00680068DFF83C1B08605A2018E0DFF8240BDFF8201B91F82E100844E9
:204EA000C67400200500EDB2022D0ADA03A8EDB2405DDFF8041BEDB201EB450188836D1C9F
:204EC000F1E7FF2004B0BDE8F08710B5DFF8FC0A0078002806D0DFF8F40A0078401EDFF871
:204EE000EC1A0870DFF8E40A007800285BD10220DFF8D81A087007F03EFDDFF8D40A0078E1
:204F0000002810D10620DFF8C81A0870DFF8C40A007890F00100DFF8BC1A08705A20DFF81D
:204F2000981A81F82F0005F081F800200400A4B2202C05DA00207449A4B20855641CF6E717
:204F4000DFF8940AC078002806D1DFF8902A0021002007F0F7F916E0DFF87C0AC078012838
:204F600006D1DFF87C2A0021002007F0EBF90AE0DFF8640AC078022805D1DFF8682A0021D0
:204F8000002007F0DFF9DFF84C0A0078002805D000220121012005F073FC04E0002201218F
:204FA000002005F085FB10BDF06D0020676E002020790208E865002010B5DFF8100A0078DF
:204FC000002806D0DFF8040A0078401EDFF8FC190870DFF8F8090078002840F093800220D7
:204FE000DFF8E8190870DFF8000A0078092190FBF1F00400DFF8F0090078092190FBF1F28E
:2050000001FB1200002800D0641CDFF8E009007800285CD0DFF8D409407808281BD02028AF
:2050200002D0402830D041E0DFF88C094078002807D0DFF884094078401EDFF87C19487054
:2050400003E0601EDFF8701948705A20DFF8681981F82F0033E0DFF860094078E4B2611E3D
:20506000884207D0DFF850094078401CDFF84819487003E00020DFF8401948705A20DFF81F
:20508000381981F82F001AE00020DFF8601948700020DFF858190870FFF770F8DFF82809AF
:2050A00000680068DFF8201908602BE00020DFF83C1948700020DFF83419087022E00020BB
:2050C000DFF8281948700020DFF82019087004F0ADFFDFF81C290221002007F033F9DFF85F
:2050E00014290A21002007F02DF9DFF80C291021002007F027F9DFF8C008427801210020FC
:2051000005F0D6FA10BD0000B467002070B5DFF8BC080078002806D0DFF8B0080078401E27
:20512000DFF8A8180870DFF8A4080078002840F0A0800220DFF894180870DFF8C0080078B9
:20514000050000200400E4B2202C06DA0020DFF8B018E4B20855641CF5E7EDB2092095FBFE
:20516000F0F00600EDB2092095FBF0F100FB1150002800D0761CDFF87408007800285FD008
:20518000DFF868084078012808D008281DD0202804D0402832D0802817D041E0DFF81808C5
:2051A0004078002807D0DFF810084078401EDFF80818487003E0701EDFF8FC1748705A20F7
:2051C000DFF8F41781F82F0032E0DFF8EC074078F6B2711E884207D0DFF8DC074078401C0B
:2051E000DFF8D417487003E00020DFF8CC1748705A20DFF8C41781F82F0019E00020DFF8FC
:20520000EC1748700020DFF8E4170870FEF7B6FFDFF8B40700680068DFF8AC17086028E053
:205220000020DFF8C81748700020DFF8C01708700020DFF8B81748700020DFF8B0170870E6
:2052400004F0F4FEDFF8A8270121002007F07AF8DFF8F02C0821002007F074F8DFF8580742
:205260004078092110FB01F2D2B20121012005F007FB70BDF8B504F0D9FEDFF8CC0C0078C4
:20528000092190FBF1F00500DFF8BC0C0078092190FBF1F201FB1200002800D06D1CDFF85E
:2052A0004C07007800285ED03C20DFF8A01C08705A20DFF8041781F82F00DFF8300740788C
:2052C000012808D0082818D0202804D0402828D0802812D037E0DFF8E0064078002807D024
:2052E000DFF8D4064078401EDFF8CC16487003E0681EDFF8C41648702DE0DFF8BC06407846
:20530000EDB2691E884207D0DFF8AC064078401CDFF8A416487003E00020DFF89C1648709C
:2053200019E00020DFF8C41648700020DFF8BC160870FEF723FFDFF8900600680068DFF87F
:20534000881608607EE00020DFF8A01648700020DFF8981608700020DFF8901648700020F2
:20536000DFF88816087004F061FEDFF8DC0B0078DFF844164978092202FB11000700FFB2D4
:205380000A2F01DB0920070007F0F5FA0020040020003900C0B2C9B2884253D2DFF8180694
:2053A00040780921484350FA84F00600DFF85016701CC0B208F0F5FA2E20DFF84416887023
:2053C0000020DFF83C16C870DFF8342600212000C0B206F0B7FF00200090DFF8740B00684E
:2053E000F6B2112101FB06F10844431C102203212000C0B207F01AF8DFF8BC0540780921CA
:20540000484350FA84F00100C9B2DFF8CC0C08F07BFA00280AD000200090DFF8C03C042200
:2054200010212000C0B207F001F809E000200090DFF8AC3C042210212000C0B206F0F6FF8D
:20544000641CA5E7F1BD2DE9F843DFF86C0590F82E0000281FD10020FFF7F5FB0700FFB26D
:205460005A2F09D1FEF78AFEDFF85C0500680068DFF854150860CFE1FFB2A52F0AD15A2012
:20548000DFF8341581F82F000120DFF82C1581F82E0000E0C0E1DFF8200590F82E00012808
:2054A00040F0B181DFF8100590F82F005A2819D107F03BF90020DFF8001581F82F0000207C
:2054C00080464046DFF81C1C0978C0B2884209D2A520DFF8141C5FFA88F801F8080018F12A
:2054E0000108EEE7DFF8FC0B0078092190FBF1F08146DFF8F00B0078092190FBF1F201FB3D
:205500001200002801D019F1010907F034FADFF8DC040078002800F0F480DFF8D004407829
:2055200001280DD0082800F09480102800F0B880202862D0402800F0C28080282ED0D4E063
:20554000DFF87404C07A002807D0DFF86C04C07A401EDFF86414C87206E0DFF8880B007893
:20556000401EDFF85414C872DFF84C048078DFF84814C97A092291FBF2F1884204D05A200D
:20558000DFF8341481F82F00DFF82C04C07A092190FBF1F0DFF820148870ACE0DFF81804EB
:2055A000C07ADFF8401B0978491E884207D0DFF80804C07A401CDFF80014C87203E0002055
:2055C000DFF8F413C872DFF8F0038078DFF8E813C97A092291FBF2F1884204D05A20DFF853
:2055E000D81381F82F00DFF8D003C07A092190FBF1F0DFF8C41388707DE0DFF8BC0380780D
:20560000002807D0DFF8B0038078401EDFF8A813887004E0B9F10100DFF89C138870DFF83D
:2056200098038078DFF89013C97A092291FBF2F1884204D05A20DFF8801381F82F00DFF87F
:2056400078038078092110FB01F0DFF86C13C87251E0DFF8640380785FFA89F9B9F1010133
:20566000884205D0D4488078401CD349887002E00020D1498870D0488078CF49C97A09225D
:2056800091FBF2F1884203D05A20CB4981F82F00C9488078092110FB01F0C749C8722AE045
:2056A0000020D24948700020D04908700220C24981F82E00C048C07A00F0B6F8ACE00020E6
:2056C000CA4948700020C9490870FEF757FD3220DFF8181A0880BC4800680068BA490860EA
:2056E0005A20B54981F82F0096E00020BF4948700020BE4908700020BC4948700020BB4994
:20570000087004F093FCDFF8DC090078AA498978092202FB11000500EDB20A2D01DB09204D
:20572000050007F028F90020040020002900C0B2C9B2884267D2A04880780921484350FA10
:2057400084F00600AE49701CC0B208F02AF92E20AB4988700020AA49C870A94A0021200006
:20576000C0B206F0EFFD9448C07A0921E4B290FBF1F201FB1200844210D101200090DFF854
:205780007009F6B2112101FB06F10844431C082203212000C0B206F049FE0FE0002000905C
:2057A000DFF84C09F6B2112101FB06F10844431C082203212000C0B206F038FEDFF8280931
:2057C000DFF82C19F6B2112202FB06F2895C084410F8010CA5280AD100200090DFF814391B
:2057E00004220F212000C0B206F020FE09E000200090DFF8043904220F212000C0B206F022
:2058000015FE641C91E76C4890F82E00022803D16948C07A00F008F8BDE8F183207D02087A
:20582000F87802080000002038B50400E4B20A2094FBF0F100FB114005006C480078002808
:2058400000F09C803C20DFF80417087043F69820DFF8A818088040F2DC50DFF89018088001
:2058600062484078102802D0402870D07AE00120514981F82E00DFF87008DFF87418E4B210
:20588000112202FB04F2895C084410F8010CA5282CD1DFF85408DFF85818E4B2112202FB92
:2058A00004F2895C0844A32100F8011CDFF84008E4B2112101FB04F1405CDFF828180978DC
:2058C000884209D1DFF82808E4B2112101FB04F1405C06F0FDF835E0DFF81408E4B211210D
:2058E00001FB04F1405C06F076F82BE0DFF8F807DFF8FC17E4B2112202FB04F2895C0844FF
:20590000A52100F8011CDFF8E807E4B2112101FB04F1405CDFF8CC170978884209D1DFF8DB
:20592000D007E4B2112101FB04F1405C06F053F808E0DFF8BC07E4B2112101FB04F1405C23
:2059400006F0C6F80021092009F096F810E00020264948700020254908700120164981F88C
:205960002E0028E000202149487000201F49087000201E49487000201C490870DFF868072D
:20598000DFF86C17E4B2112202FB04F2895C084410F8010CA52807D1DFF858270F21280058
:2059A000C0B206F009FD06E0DFF84C270F212800C0B206F001FD31BD586A0020786C0020B7
:2059C000346C0020E4780208786D0020696E0020686E0020786E0020606C0020E07702085C
:2059E000F4760208F477020806050108586D0020647E02086C7E0208747E020807050108D4
:205A0000B46700202DE9F843DFF8DC0D90F82E0000281FD10020FFF716F90600F6B25A2E11
:205A200009D1FEF7ABFBDFF8D80600680068DFF8D016086083E2F6B2A52E0AD10120DFF894
:205A4000A81D81F82E005A20DFF89C1D81F82F0000E074E2DFF8900D90F82E00012840F06F
:205A60006382DFF8880DC078002803D1DFF89406070014E0DFF8740DC078012803D1DFF8D1
:205A8000880607000BE0DFF8640DC078022803D1DFF87806070002E0DFF8540D07003F1D2F
:205AA000002080464046DFF84C1D0978C0B2884221D23878DFF8401D5FFA88F801F80800CC
:205AC0007F1CDFF8340D5FFA88F810F80800A5280ED0DFF8240D5FFA88F810F808005A280C
:205AE00006D0A520DFF8101D5FFA88F801F8080018F10108D6E7DFF8FC0C0078082190FB53
:205B0000F1F08146DFF8EC0C0078082190FBF1F201FB1200002801D019F10109DFF8D40C2D
:205B20000078DFF8C41C8978B0EBC1000500EDB2092D01DB0820050004F078FADFF8BC2CD1
:205B40000221002006F0FEFBDFF8402D0E21002006F0F8FB0020040020002900C0B2C9B23D
:205B6000884267D2DFF8800C8078C0B214EBC000401CC0B207F00CFFDFF8141D08702E20F8
:205B8000DFF80C1D48700020DFF8041D8870DFF8002D0021601CC0B206F0D4FBDFF8480C3A
:205BA000C07A0821E4B290FBF1F201FB1200844212D1DFF8E00C0068DFF82C1C8978C900B3
:205BC00051FA84F10C22514300EB01020221601CC0B206F0F1FB11E0DFF8B80C0068DFF897
:205BE000081C8978C90051FA84F10C22514300EB01020221601CC0B206F0A4FBDFF8F80BC7
:205C0000DFF8E41B8978C90051FA84F1405C5A2807D1DFF8842C1021601CC0B206F092FB05
:205C200006E0DFF8782C1021601CC0B206F08AFB641C91E7DFF8680C0078002800F0E68030
:205C4000DFF85C0C407801280DD0082800F08880102800F0A880202862D0402800F0B680C7
:205C600080282ED0C2E0DFF8800BC07A002807D0DFF8740BC07A401EDFF86C1BC87206E0D5
:205C8000DFF8700B0078401EDFF85C1BC872DFF8580B8078DFF8501BC97A082291FBF2F104
:205CA000884204D05A20DFF8401B81F82F00DFF8380BC07A082190FBF1F0DFF82C1B8870F3
:205CC0009CE0DFF8240BC07ADFF8281B0978491E884207D0DFF8100BC07A401CDFF8081BE3
:205CE000C87203E00020DFF8001BC872DFF8F80A8078DFF8F41AC97A082291FBF2F18842DF
:205D000004D05A20DFF8E01A81F82F00DFF8D80AC07A082190FBF1F0DFF8CC1A88706DE032
:205D2000DFF8C40A8078002807D0DFF8BC0A8078401EDFF8B41A887004E0B9F10100DFF8D1
:205D4000A81A88705A20DFF8A01A81F82F00DFF8980A8078C0B2C000DFF88C1AC8724DE04F
:205D6000DFF8840A80785FFA89F9B9F10101884207D0DFF8740A8078401CDFF86C1A8870A0
:205D800003E00020DFF8601A88705A20DFF8581A81F82F00DFF8500A8078C0B2C000DFF81A
:205DA000481AC8722AE00020DFF8F41A48700020DFF8EC1A08700220DFF82C1A81F82E0025
:205DC000DFF8240AC07A00F0C5F8B8E00020DFF8D01A48700020DFF8C81A0870FEF7CEF999
:205DE000C74800680068C6490860A8E00020DFF8B01A48700020DFF8A81A08700020DFF824
:205E0000A01A48700020DFF8981A0870DFF8E4090078DFF8D4198978B0EBC1000500EDB2EE
:205E2000092D01DB0820050004F000F9DFF8CC290221002006F086FADFF8502A0E21002011
:205E400006F080FA06F097FD0020040020002900C0B2C9B2884267D2DFF88C098078C0B215
:205E600014EBC000401CC0B207F092FDDFF8201A08702E20DFF8181A48700020DFF8101A56
:205E80008870DFF80C2A0021601CC0B206F05AFADFF85409C07A0821E4B290FBF1F201FB0D
:205EA0001200844212D1DFF8EC090068DFF838198978C90051FA84F10C22514300EB010291
:205EC0000221601CC0B206F077FA11E0DFF8C4090068DFF814198978C90051FA84F10C2291
:205EE000514300EB01020221601CC0B206F02AFADFF80409DFF8F0188978C90051FA84F1A8
:205F0000405C5A2807D1DFF890291021601CC0B206F018FA06E0DFF884291021601CC0B24B
:205F200006F010FA641C91E7DFF8BC0890F82E00022804D1DFF8B008C07A00F00BF8BDE8B8
:205F4000F18300007C7E02085E6E0020676E0020286D0020F8B50400E4B2082094FBF0F154
:205F600000FB11400600DFF838090078002800F09C80DFF82C094078012806D0102818D028
:205F8000402874D080280AD07FE0DFF86C08E4B2005DC043DFF86018E4B208557DE0DFF8BD
:205FA0005808E4B2005DC043DFF84C18E4B2085573E00120DFF8301881F82E00DFF82C0818
:205FC000C078002803D1DFF82808070014E0DFF81C08C078012803D1DFF89C0A07000BE0EC
:205FE000DFF80808C078022803D1DFF8900A070002E0DFF8FC0707003F1D002005002800A0
:20600000DFF8F0170978C0B2884207D2DFF8E807EDB2405D38707F1C6D1CF0E7DFF8D807B1
:20602000E4B2005DA5280BD1DFF8540A006800880121A1408843DFF8481A096808800AE0B5
:20604000DFF83C0A006800880121A1400843DFF8301A09680880DFF89407C078801CC0B213
:2060600009F09CF800210B2008F006FD15E00020DFF82C1848700020DFF824180870012098
:20608000DFF8641781F82E0024E00020DFF8101848700020DFF8081808700020DFF800188E
:2060A00048700020DFF8F8170870DFF84C07E4B2005D5A2807D1DFF8E0271021701CC0B226
:2060C00006F07AF906E0DFF8D4271021701CC0B206F072F9F1BD0000D06B0020847E0208FA
:2060E0008C7E0208CF930108A86B0020E86D002060700208947E02089C7E0208F66D0020DC
:20610000786D0020006B0020486B0020786B00202DE9F04383B0DFF8D00690F82E00002812
:2061200022D10020FEF78FFD0600F6B25A2E09D1FEF724F8DFF8F40B00680068DFF8EC1B26
:2061400008604FE3F6B2A52E0DD10120DFF8981681F82E000020DFF82C1908700020DFF854
:20616000281908803EE33DE3DFF87C0690F82E0001282AD1022000F095FBDFF8B41B087022
:20618000DFF8AC0B00785A2809D1FDF7F7FFDFF89C0B00680068DFF8941B086022E3DFF89B
:2061A000900B0078FF2800F01D834AF25A50DFF8DC1808800220DFF8301681F82E00DFF81F
:2061C000700B007800F02BFC0CE3DFF81C0690F82E00022840F01A81DFF8B40800780921ED
:2061E00090FBF1F00400DFF8A8080078092190FBF1F201FB1200002800D0641CDFF8A00695
:206200000078002800F0F880DFF89406407801280DD0082800F08880102800F0A780202888
:2062200062D0402800F0BB8080282ED0D4E0DFF8B805007B002807D0DFF8AC05007B401ED0
:20624000DFF8A415087306E0DFF844080078401EDFF894150873DFF89005C078DFF8881541
:20626000097B092291FBF2F1884204D05A20DFF8781581F82F00DFF87005007B092190FB60
:20628000F1F0DFF86415C870AEE0DFF85C05007BDFF8FC170978491E884207D0DFF84805BD
:2062A000007B401CDFF84015087303E00020DFF838150873DFF83005C078DFF82C15097BDE
:2062C000092291FBF2F1884204D05A20DFF8181581F82F00DFF81005007B092190FBF1F063
:2062E000DFF80415C8707FE0DFF8FC04C078002807D0DFF8F404C078401EDFF8EC14C87095
:2063000003E0601EDFF8E014C8705A20DFF8D81481F82F00DFF8D004C078092110FB01F02B
:20632000DFF8C41408735FE0DFF8BC04C078E4B2611E884207D0DFF8B004C078401CDFF879
:20634000A814C87003E00020DFF89C14C8705A20DFF8941481F82F00DFF88C04C07809211D
:2063600010FB01F0DFF8801408733DE00020DFF8301548700020DFF8281508705A20DFF82D
:20638000681481F82F00DFF86004007BDFF8F41608700320DFF8501481F82E0022E20020A1
:2063A000DFF8FC1448700020DFF8F41408700520DFF8341481F82E000020DFF82C14C8706D
:2063C0000020DFF8241408735A20DFF81C1481F82F0000F015FA05E20020DFF8C41448707D
:2063E0000020DFF8BC1408700020DFF8B41448700020DFF8AC1408700922DFF8EC03C1788E
:20640000DFF8E403007B04F0EDFCEBE1DFF8D80390F82E00032840F0A480DFF884040078DC
:20642000002800F08280DFF80C090068DFF8541609784FF4B27251430844407C8146DFF88B
:206440006004407801280AD0082843D0102842D020283FD0402843D080281ED057E0DFF81A
:206460008803407B002807D0DFF87C03407B401EDFF87413487304E0B9F10100DFF868136E
:206480004873D948407B092190FBF1F0D64908715A20D54981F82F0041E0D348407B5FFAA7
:2064A00089F9B9F10101884205D0CF48407B401CCD49487302E00020CB494873CA48407B72
:2064C000092190FBF1F0C84908715A20C64981F82F0024E023E00420C34981F82E001EE08F
:2064E0000020DFF8BC1348700020DFF8B41308700220BD4981F82E000020BB49087100205C
:20650000B94948735A20B84981F82F006AE10020DFF88C1348700020DFF8841308700020DC
:20652000DF4948700020DE49087006F024FA09200190DFF8500A0090DFF8F8070068DFF818
:20654000441509784FF4B272514300EB0103A6480279A548417BDFF82C05007804F094FC61
:2065600040E1A14890F82E00042840F0FD80DFF8C4070068DFF80C1509784FF4B272514304
:2065800008449949497B1C2251430844007DDFF8F8190870944800785A2815D05A209249FE
:2065A0000870DFF8E0090500DFF8DC09007805EB40052888DFF8D419088000208A498A4A72
:2065C00092F82E201144C87406F0D5F9DFF864070068DFF8B01409784FF4B2725143084481
:2065E0008149497B1C2251430844C06A002815D0DFF89839DFF83C070068DFF8881409789A
:206600004FF4B272514300EB01027748417BDFF87404007804F0EFFC07001AE0DFF86C0923
:206620000090DFF810070068DFF8581409784FF4B272514300EB0103DFF854296A486A490D
:2066400091F82E100844C17C6748407B04F094FD0700FFB25A2F12D10320634981F82E0061
:2066600000206149087000205F495F4A92F82E201144C8740020DFF814190880B2E0FFB20F
:20668000A52F6AD1DFF8AC060068DFF8F81309784FF4B272514308445349497B1C2251431E
:2066A0000844408CDFF8E4180988884212D2DFF884060068DFF8CC1309784FF4B2725143B5
:2066C00008444949497B1C2251430844408CDFF8BC180880DFF8B4080088DFF8581609682A
:2066E000DFF8A02312784FF4B2735A4311443E4A527B1C235A431144098C884212D2DFF87C
:2067000034060068DFF87C1309784FF4B272514308443549497B1C2251430844008CDFF8E6
:206720006C180880DFF85C080500DFF85C08007805EB4005DFF854080088288003202A492C
:2067400081F82E0000202849087000202649264A92F82E201144C87444E02348224991F89E
:206760002E100844C7743DE01F4890F82E00052838D100F045F880465FFA88F8B8F15A0F06
:206780000ED14AF25A50DFF804130880FDF7F6FCDFF8980500680068DFF89015086021E0AF
:2067A0005FFA88F8B8F1A50F1CD1DFF8E8270021012005F0C7FD0021012008F05DF906F04F
:2067C000DAF8642005F001FA4AF25A50DFF8BC120880FDF7D3FCDFF8540500680068DFF8C6
:2067E0004C150860BDE8F783586A0020606C0020186B00205F6E0020F06B00202C7D020825
:2068000070B5032000F04EF8DFF824150870DFF8200500785A280BD15A20DFF8781281F84C
:206820002F000020DFF86C1281F82E005A202CE0DFF8FC040078FF2801D1002025E045F6DF
:20684000A520DFF848120880DFF8E4040078DFF83C128870DFF82C0706005A2005002900AE
:20686000C9B2300007F000FBDFF82012A1F86800DFF8BC040178012008F07AFF0400E4B235
:20688000012C01D1A52000E05A2070BDB47E0208B46700202C6D0020107F0208147F020847
:2068A000586D00207FB5040003F0C0FB00200500EDB2202D06DA0020DFF89C19EDB2485534
:2068C0006D1CF5E7E4B2012C06D1DFF890290021022005F037FD19E0E4B2022C06D1DFF852
:2068E00080290021022005F02DFD0FE0E4B2032C06D1DFF870290021022005F023FD05E055
:20690000DFF864290021022005F01CFD614800785A280FD0DFF8540900788DF80C000120E2
:206920005C495C4A92F82E201144C8745A205949087003E05748808B8DF80C0003A80290B4
:2069400010200190DFF84806009001235148514991F82E100844C27C0C210220FDF73DFE9B
:206960000600F6B25A2E1CD100204A4908705A20484981F82F0000204649464A92F82E20FF
:206980001144C87400200500EDB2052D07DA00204049EDB201EB450188836D1CF4E75A202C
:2069A0003BE0F6B2A52E29D100203A4908705A20384981F82F0000203649364A92F82E2092
:2069C0001144C87400200500EDB2052D07DA00203049EDB201EB450188836D1CF4E79DF8E1
:2069E0000C00002807D0DFF888280021012005F0A9FC5A2011E09DF80C000EE02548254954
:206A000091F82E100844C6749DF80C0021498883FF208DF80C009DF80C0004B070BD70B5BC
:206A20000400002005002800451CC0B2032811DA16488470154808F098FF144808F0D8FDB5
:206A4000002807D100200600F6B2FF2E01D0761CFAE7E8E7EDB2032D0CDB4AF25A500B4938
:206A60000880FDF78BFBDFF8C40200680068DFF8BC12086070BD0000606B0020906B002067
:206A8000306D0020796E0020286E0020E8650020616E0020586A002080B5DFF8340C00886A
:206AA000642822DB0020DFF82C1C08700020DFF8201C08800020DFF8201C0880FDF75EFBD3
:206AC0002020DFF8181C8870DFF8140C97490860DFF8080C4078DFF8041CC870DFF8FC0B84
:206AE000C078DFF8001C08801FE1DFF8FC0B0078002840F0E580DFF8E40B8078202822D0D8
:206B0000DFF8D40B008800281DD10120DFF8C81B08800020DFF8BC1B0870DFF8C00B40781E
:206B2000DFF8C81B0880DFF8B40BC078DFF8B41B08800320DFF8B01B08700E2004F04BFF6E
:206B400005F0F3FD11E0DFF8940B807820280BD00320DFF8941B08700120DFF87C1B088096
:206B60000E2004F038FF00E0DFE005F0DEFDDFF86C0B4078DFF86C1B098880B2884231D05B
:206B8000DFF86C0BDFF8541BDFF8582B1288120111440A31102208F02DFFDFF8480B0088C2
:206BA000401C232190FBF1F201FB1200DFF8341B0880DFF8200B0078022190FBF1F201FB04
:206BC00012000200D2B2DFF8281BDFF8080B007880B200F0E1F9DFF8FC0A0078401CDFF81D
:206BE000F41A0870DFF8F40A4078DFF8F81A098880B2884231D0DFF8F80ADFF8E01ADFF88A
:206C0000E42A1288120111440A31102208F0F2FEDFF8D00A0088401C232190FBF1F201FBCC
:206C20001200DFF8C01A0880DFF8A80A0078022190FBF1F201FB12000200D2B2DFF8B01A42
:206C4000DFF8900A007880B200F0A6F9DFF8840A0078401CDFF87C1A0870DFF8800A407853
:206C6000DFF8801A098880B2884229D1DFF8600A0088401CDFF8581A08800020DFF8541AC1
:206C80000870DFF8580AC078DFF8581A0880DFF85C0A0088DFF8441A497889B288420FD09B
:206CA0000020DFF82C1A0880DFF8400A0088401C232190FBF1F201FB1200DFF8301A0880A1
:206CC000DFF89C0C007800282FD0DFF8940C4078102802D0402809D01FE00020DFF8801C8A
:206CE00048700020DFF8781C08701EE00020DFF8701C48700020DFF8681C08700020DFF8B6
:206D0000641C08706420DFF8C8190880FDF736FADFF8CC090549086007E00020DFF8401CF7
:206D200048700020DFF8381C087001BD786D0020706E0020386D002070B5DFF82C0C90F896
:206D40002E00002861D103F071F9002009F0A5F8DFF8181C0880DFF8140C0088002811D17C
:206D600005F0E3FCDFF8082C0421022005F0EAFAFDF704FADFF8540900680068DFF84C19E2
:206D80000860FEE0DFF8E40B0078C00702D40220060001E001200600DFF8D00B0088801BCD
:206DA000DFF8D01B0880DFF8C40B0088801B0500002004002000C0B2310080B289B288429D
:206DC00018D22800DFF8A41B098880B2884211D20022DFF81C19280080B209F074F822008C
:206DE000D2B2DFF80C19280080B200F0D5F86D1C641CDFE70120DFF8701B81F82E00DFF82C
:206E00006C0B0088DFF86C1B0880DFF8540B0078002800F0B6805A20DFF84C1B81F82F0031
:206E2000DFF83C0B4078012836D0082805D0202832D0402850D0802860D1DFF8380B0088FB
:206E4000DFF8281B0988884210D1DFF8200B0088022804DB0220DFF81C1B08801BE0DFF8BF
:206E60000C0B0088DFF80C1B088014E0DFF8040B0088801CDFF8FC1A0880DFF8F80A008819
:206E8000DFF8E81A0988884205D3DFF8E00A0088DFF8E01A088039E0DFF8D80A0078C00733
:206EA00007D5DFF8D00A0088401EDFF8C81A088006E0DFF8C00A0088801EDFF8B81A088040
:206EC000DFF8B00A0088002805D1DFF8A00A0088DFF8A01A088019E00020DFF8841A487033
:206EE0000020DFF87C1A0870FDF748F9DFF8DC0700680068DFF8D417086042E00020DFF88B
:206F0000601A48700020DFF8581A08700020DFF8501A48700020DFF8481A087003F086F803
:206F2000DFF8500A0078C00702D40220060001E001200600DFF83C0A0088801B0500002076
:206F400004002000C0B2310080B289B2884218D22800DFF8181A098880B2884211D2002286
:206F6000DFF88C17280080B208F0ADFF2200D2B2DFF87C17280080B200F00EF86D1C641C30
:206F8000DFE770BDEC6500207A6E00202A6E002000000020BC7A02082DE9FE4F04000D00F9
:206FA0001600002081465FFA89F9B9F1140F08DA0020A9495FFA89F901F8090019F1010947
:206FC000F1E7E87B10F50050ADF80800687B0190A87B0090BDF80830A4B2621CDFF8A01BFA
:206FE0009D4808F0F1FF9C4A0021F6B2B000C0B205F0A8F9002081465FFA89F9B9F1140FCE
:2070000008DA002094495FFA89F901F8090019F10109F1E728890190A87A0090EB7A2A7BCA
:20702000DFF8601B8C4808F0CFFF8B4A0021F6B2B000401CC0B205F085F905F09CFC002028
:2070400081465FFA89F9B9F1200F08DA002082495FFA89F901F8090019F10109F1E70020FF
:2070600080464046DFF8201B0978C0B2884220D2A878DFF8181B09685FFA88F8142202FB5C
:2070800008F2895C884211D1DFF8000B00685FFA88F8142101FB08F10844421C0021F6B2A5
:2070A000B000801CC0B205F04DF902E018F10108D7E705F060FC002081465FFA89F9B9F168
:2070C000100F08DA002064495FFA89F901F8090019F10109F1E7E878012840F0BB80002005
:2070E00080465FFA88F805EB8800C08882461FFA8AFA42F2107082452FDBD3461FFA8AFA91
:2071000064209AFBF0FA1FFA8BFB64209BFBF0F100FB11BBDFF8781A504680B206F0CEFC1A
:207120002E204D49C8711FFA8BFB0A209BFBF0F082465046C0B206F02BFC474908721FFAE3
:207140008BFB0A209BFBF0F100FB11BB5846C0B206F01EFC404948721CE01FFA8AFA6420C1
:207160009AFBF0F08346DFF8281A5846C0B206F018FC2E20384988711FFA8AFA64209AFB20
:20718000F0F100FB11A08346DFF8081A5846C0B206F007FC5FFA88F805EB880000790700C6
:2071A000002081464846DFF8F0190978C0B288422FD23800DFF8E4195FFA89F9062202FBB0
:2071C00009F2895CC0B2884220D10422DFF8CC095FFA89F9062101FB09F10844411C1E48C9
:2071E00006F054FB0222DFF8B809DFF8B0195FFA89F9062303FB09F3194491F9051000EB09
:207200004101DFF8A00906F041FB02E019F10109C8E7114A0021F6B2B000C01CC0B205F0BE
:2072200091F85FFA88F805EB88004079002811D0DFF874095FFA88F805EB88014979052223
:20724000514300EB01021021F6B2B000C01CC0B205F078F8BDE8F78FB4670020F07C020894
:20726000FC7C0208087D0208147D0208506D0020AC7A020870B5DFF8F00690F82E00002885
:207280006CD102F0D3FE012008F007FEDFF81C190880DFF818090088002811D105F045FA7E
:2072A000DFF80C290421022005F04CF8FCF766FFDFF8180400680068DFF81014086020E1C3
:2072C000DFF8E8080088032190FBF1F201FB1200002809D0DFF8D4080088032190FBF1F2F1
:2072E00001FB1200040001E003200400DFF8BC080088DFF8C0180880DFF8B0080088001BE8
:207300000500002006003000C0B2210080B289B2884218D22800DFF89418098880B2884226
:2073200011D20122DFF89018280080B208F0CBFD3200D2B2DFF88018280080B200F0E2F865
:207340006D1C761CDFE70120DFF81C1681F82E00DFF858080088DFF85C180880DFF800060C
:207360000078002800F0CD805A20DFF8FC1581F82F00DFF8EC054078012836D0082805D072
:20738000202832D040285DD080286BD1DFF824080088DFF818180988884210D1DFF8140869
:2073A0000088032804DB0320DFF8081808801BE0DFF8F8070088DFF8FC17088014E0DFF803
:2073C000F4070088C01CDFF8EC170880DFF8E4070088DFF8D8170988884205D3DFF8CC07FF
:2073E0000088DFF8D017088044E0DFF8C8070088032190FBF1F201FB120000280FD0DFF8EF
:20740000B40700880321DFF8AC271288121A90FBF1F001FB0020DFF89C17088006E0DFF83E
:2074200094070088C01EDFF88C170880DFF884070088002805D1DFF874070088DFF8741725
:20744000088017E00020DFF8181548700020DFF810150870FCF792FE9C48006800689B4922
:2074600008604EE00020DFF8F81448700020DFF8F01408700020DFF8E81448700020DFF8A6
:20748000E014087002F0D2FDDFF828070088032190FBF1F201FB1200002809D0DFF814079E
:2074A0000088032190FBF1F201FB1200040001E003200400DFF8FC060088001B05000020F7
:2074C00006003000C0B2210080B289B2884218D22800DFF8D816098880B2884211D2012242
:2074E000DFF8D416280080B208F0EDFC3200D2B2DFF8C416280080B200F004F86D1C761CC8
:20750000DFE770BD2DE9FC4704000D001600002080465FFA88F8B8F1140F09DA0020DFF893
:20752000BC1C5FFA88F801F8080018F10108F0E7687A10F500508146E8790190287A00908E
:207540001FFA89F94B46A4B2621CDFF83416DFF88C0C08F039FDDFF8842C0021032016FB91
:2075600000F0C0B204F0EEFE002080465FFA88F8B8F1140F09DA0020DFF8601C5FFA88F80F
:2075800001F8080018F10108F0E768880190287900906B79AA79DFF8EC15DFF8400C08F055
:2075A00013FDDFF8382C0021F6B2032000FB06F0401CC0B204F0C6FE00200700FFB2102F06
:2075C00006DA0020DFF8141CFFB2C8557F1CF5E768780F282ADA002007003800DFF8001CF2
:2075E0000978C0B2884221D26878DFF8F81B0968FFB2112202FB07F2895C884214D1DFF85B
:20760000E40B0068FFB2112101FB07F10844401C824652460121F6B2032000FB06F0801CBA
:20762000C0B204F08FFE01E07F1CD6E7687840282CDB6878802829DA002007003800DFF80E
:2076400048150978C0B2884220D26878DFF83C150968FFB2142202FB07F21144497C8842E4
:2076600012D1DFF828050068FFB2142101FB07F10844421C0021F6B2032000FB06F0801CBE
:20768000C0B204F05FFE01E07F1CD7E72878FF280BD1DFF8542B1021F6B2032000FB06F007
:2076A000801CC0B204F04EFE0DE0287800280AD1DFF8382B1021F6B2032000FB06F0801C29
:2076C000C0B204F03FFEBDE8F3870000786D0020026E00207B6E0020006E0020E059002063
:2076E00020790208066E0020666E0020046E0020E06B002070B59C4890F82E0000286CD13E
:2077000002F094FC022008F0C8FBDFF8E41A0880DFF8DC0A0088002811D105F006F8DFF894
:20772000D42A0421022004F00DFEFCF727FDDFF8C80A00680068DFF8C01A08600FE1DFF895
:20774000B00A0088032190FBF1F201FB1200002809D0DFF89C0A0088032190FBF1F201FBB3
:207760001200040001E003200400DFF8840A0088001BDFF840140880DFF8740A0088001B38
:207780000500002006003000C0B2210080B289B2884218D22800DFF8581A098880B28842DC
:2077A00011D20222DFF81014280080B208F08BFB3200D2B2DFF80014280080B200F0DCF830
:2077C0006D1C761CDFE70120674981F82E00DFF8200A0088DFF8DC13088061480078002830
:2077E00000F0BD805A20604981F82F005C484078012835D0082805D0202831D0402858D029
:20780000802866D1DFF8AC030088DFF8E4190988884211D1DFF89C030088032804DB03203F
:20782000DFF8901308801AE0DFF8C4090088401EDFF88013088012E0DFF878030088C01C28
:20784000DFF870130880DB480088DFF8A4190988884204D3DFF898090088D64908803EE010
:20786000D448008803281ADBD2480088032190FBF1F201FB120000280CD0CE48008803213C
:20788000CC4A1288121A90FBF1F001FB0020C949088004E0C7480088C01EC6490880C548ED
:2078A0000088002804D1DFF848090088C149088015E000202A494870002029490870FCF7C4
:2078C0005DFCDFF8340900680068DFF82C19086045E000202249487000202149087000205D
:2078E0001F49487000201E49087002F09FFBB1480088032190FBF1F201FB1200002808D0BC
:20790000AC480088032190FBF1F201FB1200040001E003200400A7480088001B0500002088
:2079200006003000C0B2210080B289B2884216D22800DFF8BC18098880B288420FD20222FA
:207940009D49280080B208F0BEFA3200D2B29A49280080B200F010F86D1C761CE1E770BD3C
:20796000586D0020696E0020586A0020146E0020F47B0208106E00202DE9F04383B0040010
:207980000D001600002080465FFA88F8B8F1140F09DA0020DFF844185FFA88F801F8080029
:2079A00018F10108F0E7687A10F500508146E8790190287A00901FFA89F94B46A4B2621CBC
:2079C0006F49DFF8180808F0FFFADFF810280021032016FB00F0C0B204F0B4FC00208046B7
:2079E0005FFA88F8B8F1140F09DA0020DFF8EC175FFA88F801F8080018F10108F0E7688852
:207A00000190287900906B79AA795E49DFF8CC0708F0DAFADFF8C4270021F6B2032000FBD7
:207A200006F0401CC0B204F08DFC00200700FFB2102F06DA0020DFF8A417FFB2C8557F1CF3
:207A4000F5E7687801280BD1DFF8B0270121F6B2032000FB06F0801CC0B204F073FC73E015
:207A600068780A280BD1DFF898270121F6B2032000FB06F0801CC0B204F064FC64E068781E
:207A80000B280BD1DFF87C270121F6B2032000FB06F0801CC0B204F055FC55E068780C28E3
:207AA0000BD1DFF864270121F6B2032000FB06F0801CC0B204F046FC46E068780D280BD14F
:207AC000DFF848270121F6B2032000FB06F0801CC0B204F037FC37E068780E280BD1DFF86D
:207AE00030270121F6B2032000FB06F0801CC0B204F028FC28E068780F280BD1DFF814271E
:207B00000121F6B2032000FB06F0801CC0B204F019FC19E0687809280BD1DFF8FC2601216F
:207B2000F6B2032000FB06F0801CC0B204F00AFC0AE0DFF8E8260121F6B2032000FB06F0D4
:207B4000801CC0B204F0FEFB287800280BD0DFF8D0261021F6B2032000FB06F0801CC0B2BF
:207B600004F0F0FB0AE0DFF8BC261021F6B2032000FB06F0801CC0B204F0E4FBBDE8F78396
:207B80000C770208407602085D6E0020246D0020B8670020BB6700206AFA00086071020834
:207BA000CC770208BE67002044000020126E0020007C02080E6E00204C6C0020F0B585B05B
:207BC000DFF8640690F82E00002822D10020FDF73AF80400E4B25A2C09D1FCF7CFFADFF8C0
:207BE000180600680068DFF810160860F4E2E4B2A52C0DD10020DFF8301608760120DFF864
:207C00002816C8750120DFF8201681F82E0000E0E2E2DFF8140690F82E00012840F0DC8212
:207C2000DFF8040600785A2800F07F8002F0FEF95A20DFF8F415087000200700FFB2202F98
:207C400006DA0020DFF89415FFB2C8557F1CF5E7002006000E22DFF8D415DFF8800505F0F8
:207C600015FEDFF8CC05C07910F5005080B206F06DF80500DFF86415280080B205F05AFF31
:207C8000DFF8B015DFF8A805807905F0F4FEDFF8A815DFF89C05407905F0EDFE0C22DFF83A
:207CA0009C15DFF89C0505F0F1FDDFF89415DFF88005007905F0DFFEDFF88815DFF87005D1
:207CC000C07805F0D8FEDFF88015DFF86405807805F0D1FEDFF804250121012004F032FBD5
:207CE000DFF85C250221022004F02CFBDFF83805007E0F210123DFF8E424DFF82CC59CF8AB
:207D000018C012F80C20D2B290FBF1FC01FB1C00DFF81415C97D0918C9B2DFF80C05C07D3A
:207D2000C0B24000C0B204F037F904F024FEDFF81C050078002800F04F8204F01CFEDFF8A7
:207D400010050078002800F04782DFF80405407801280DD0082800F09F80102800F0F4803C
:207D6000202841D0402800F0EE8180281ED0FAE1DFF86804DFF8B014097E4056392807D13E
:207D80003020DFF85814DFF8A024127E88540CE0DFF84804DFF89014097E405C401CDFF869
:207DA0003C14DFF88424127E8854E4E1DFF82C04DFF87414097E4056302807D13920DFF8E0
:207DC0001C14DFF86424127E88540CE0DFF80C04DFF85414097E405C401EDFF80014DFF853
:207DE0004824127E8854C6E1DFF83C04007E002808D11820DFF8301408760220DFF8281468
:207E0000C875B8E1DFF82004007E401EDFF818140876DFF81404007E042833DBDFF80804AA
:207E2000007E0F2811DBDFF80004007E022190FBF1F201FB1200002824D1DFF8EC03007E48
:207E4000801EDFF8E41308761CE0DFF8DC03007E0E2806D1DFF8D003007E401EDFF8C813C3
:207E60000876DFF8C403007E022190FBF1F201FB1200002806D0DFF8B003007E801EDFF84E
:207E8000A8130876DFF8A003007E0E2803DA0120DFF89413C8756EE1DFF88C03007E18284F
:207EA00008DB0120DFF88013C8750020DFF87813087660E1DFF87003007E401CDFF8681360
:207EC0000876DFF86403007E042833DBDFF85803007E0F2811DBDFF85003007E022190FB05
:207EE000F1F201FB1200002824D0DFF83C03007E801CDFF8341308761CE0DFF82C03007E29
:207F0000022190FBF1F201FB1200002806D1DFF81803007E801CDFF810130876DFF808035D
:207F2000007E0E2806D1DFF80003007E401CDFF8F8120876DFF8F002007E0F2803DB022025
:207F4000DFF8E412C87516E10020DFF8041348700020DFF8FC120870002006009F4890F947
:207F60000100302801D0FF2006009C48C0780100C9B29A488078C0B205F082FE8DF80700CD
:207F80009648C0790100C9B294488079C0B205F077FE8DF806009148C07A0100C9B28F48AC
:207FA000807AC0B205F06CFE8DF805008B48007C0100C9B28948C07BC0B205F061FE8DF84A
:207FC00004008648007D0100C9B28448C07CC0B205F056FE8DF803008048007E0100C9B2C9
:207FE0007E48C07DC0B205F04BFE8DF802009DF80600002803D09DF806000D2801DBFF20E6
:2080000006009DF80500002848D09DF80500202844DA9DF8060004280BD09DF80600062815
:2080200007D09DF80600092803D09DF806000B2806D19DF805001F2802D1FF2006002FE03D
:208040009DF8060002282BD19DF80700042190FBF1F201FB1200002808D19DF80700642100
:2080600090FBF1F201FB1200002809D19DF807004FF4C87190FBF1F201FB1200002806D1EF
:208080009DF805001E280BDBFF20060008E09DF805001D2804DBFF20060001E0FF20060024
:2080A0009DF80400182801DBFF2006009DF803003C2801DBFF2006009DF802003C2801DB12
:2080C000FF20060004F057FC9DF8070010F5FA6080B205F095FE050028008DF80F009DF829
:2080E000060005F06EFE8DF80E009DF8050005F068FE8DF80D009DF8040005F062FE8DF88C
:208100000C009DF8030005F05CFE8DF80B009DF8020005F056FE8DF80A00F6B2002E02D1C4
:2081200002A808F0B2F9DFF8080108F035F90020DFF8FC100880FCF721F82F48006800680E
:208140002D49086048E00020DFF8041148700020DFF8FC100870FCF711F82748006800689F
:208160002549086038E00020DFF8E41048700020DFF8DC1008700020DFF8D4104870002060
:20818000DFF8CC100870154A0121012004F0DAF8DFF8AC200221022004F0D4F8DFF8880045
:2081A000007E0F2101230D4ADFF87CC09CF818C012F80C20D2B290FBF1FC01FB1C00DFF8F6
:2081C0006810C97D0918C9B2DFF85C00C07DC0B24000C0B203F0E0FE05B0F0BDB467002043
:2081E0005E6E0020286D0020A47E0208AC7E02082C6E00200C7C0208786D00208C7902081E
:20820000187C02089C790208247C0208307C0208AC790208BC7902083C7C0208487C020843
:20822000547E02085C7E0208586A00202C7B0208786C0020BA670020BE670020D07802080F
:20824000C3670020C7670020CB670020676E0020586D00202DE9F04182B0DFF8F40790F887
:208260002E00002840F08981DFF8E40790F82F005A281ED104F059FA0020DFF8D41781F8E2
:208280002F00DFF8D0070079DFF8CC170871DFF8C4074079DFF8C0174871DFF8B807807904
:2082A000DFF8B4178871DFF8AC07C078DFF8A817C87000200700FFB2202F06DA2020DFF875
:2082C0008C17FFB2C8557F1CF5E7DFF88017DFF88807007905F0CFFB4820DFF870178870EC
:2082E000DFF868270B21002004F02CF8DFF868074079002805D0022811D009D3032815D0C1
:208300001AE0DFF858270B21012004F01BF813E0DFF84C270B21012004F014F80CE0DFF86C
:2083200044270B21012004F00DF805E0DFF838270B21012004F006F8DFF81C07C0780228D6
:2083400002D0032807D00CE0DFF820270A21022003F0F8FF05E0DFF8D02C0A21022003F010
:20836000F1FFDFF8F4068079002806D0DFF800270A21032003F0E6FF05E0DFF8B02C0A215E
:20838000032003F0DFFFDFF8EC060078002800F08B80DFF8E0064078012806D0102827D0E2
:2083A000402861D0802812D06EE0DFF8A4064078002804D10320DFF89816487006E0DFF8F9
:2083C00090064078401EDFF88816487064E0DFF880064078401CDFF878164870DFF87006A5
:2083E0004078042803DB0020DFF86416487053E00020DFF8801648700020DFF8781608701D
:20840000DFF84C064078002807D10120DFF8401681F82E0000F045F925E0DFF8340640788A
:20842000012807D10220DFF8281681F82E0000F0C3F918E0DFF818064078022807D10320E7
:20844000DFF80C1681F82E0000F035FA0BE0DFF800064078032806D10420DFF8F41581F85E
:208460002E0000F08AFA17E00020DFF8081648700020DFF800160870FBF780FE0520DFF8A5
:20848000D01581F82E0007E00020DFF8E81548700020DFF8E01508700020DFF8D8154870BD
:2084A0000020DFF8D0150870DFF8A4054078002802D15FF0010801E05FF00008DFF8700B53
:2084C00008F006F85FFA88F8CDF80080DFF8603B0200D2B20021002003F0A8FFDFF8700569
:2084E0004078012802D15FF0010801E05FF00008DFF8400B07F0ECFF02005FFA88F8CDF894
:208500000080DFF8303BD2B20021012003F08EFFDFF83C054078022802D15FF0010801E04D
:208520005FF00008DFF8100B07F0D2FF5FFA88F8CDF80080DFF8003B0200D2B20021022031
:2085400003F074FFDFF808054078032802D15FF0010801E05FF00008DFF8E00A07F0B8FF1C
:208560005FFA88F8CDF80080DFF8D03A0200D2B20021032003F05AFF91E0DFF8D40490F83E
:208580002E00012802D100F08CF888E0DFF8C00490F82E00022802D100F00EF97FE0DFF85A
:2085A000B00490F82E00032802D100F084F976E0DFF89C0490F82E00042802D100F0DDF99E
:2085C0006DE0DFF88C0490F82E00052867D1DFF888040500DFF87C04060000200700FFB22F
:2085E0000C2F12D22800451C31004E1C00780978884204D00120DFF8481A087005E00020CA
:20860000DFF83C1A08707F1CE9E7DFF8340A007800283AD00220FCF716FB0400E4B25A2C45
:2086200009D1FBF7ABFDDFF8200400680068DFF81814086033E0E4B2A52C25D10020DFF829
:20864000001A08705A20DFF8081481F82F00082006F0A4FD0022DFF8FC034179DFF8440BDC
:2086600007F0C0FF00210F2006F006FA04F05DF8DFF8342B0021012003F09EFE0520DFF8B2
:20868000D01381F82E000AE009E0FBF777FDDFF8B80300680068DFF8B0130860FFE7BDE828
:2086A000F38130B585B0DFF8A80300785A2812D0DFF8A00300798DF80C000020DFF89013B0
:2086C000DFF88C2392F82E201144C8745A20DFF88013087004E0DFF87803808B8DF80C007D
:2086E00003A8029000200190DFF8C00A00900123DFF85C03DFF8581391F82E100844C27C6E
:208700000B210020FBF769FF0500EDB25A2D1FD10020DFF83C13DFF8382392F82E201144F3
:20872000C8740020DFF8281381F82E000020DFF82013087000200400E4B2052C3ADA002063
:20874000DFF80C13E4B201EB44018883641CF3E7EDB2A52D24D10020DFF8F412DFF8F022AB
:2087600092F82E201144C8740020DFF8E41281F82E000020DFF8D812087000200400E4B2E9
:20878000052C08DA0020DFF8C812E4B201EB44018883641CF3E79DF80C00AF49087109E0CE
:2087A000AB48AB4991F82E100844C5749DF80C00A749888305B030BD80B5A54800785A282C
:2087C00006D0A4484079A24988705A20A0490870A848007800284CD0A6484078012806D00F
:2087E000102820D040282AD080280ED035E098488078002803D103209549887004E09448C7
:208800008078401E924988702DE091488078032803DB00208E49887004E08D488078401C4C
:208820008B4988701FE08A4880788B4948710020874981F82E0000208549087013E0002006
:208840008C49487000208B490870FBF797FC7E48006800687C4908602CE000208549487025
:2088600000208449087000208249487000208149087077488078002805D002280FD008D3F6
:20888000032812D016E0754A0B21012003F094FD10E0734A0B21012003F08EFD0AE0714A28
:2088A0000B21012003F088FD04E06F4A0B21012003F082FD01BD80B5654800785A2806D027
:2088C0006448C078624988705A20614908706948007800283DD067484078012806D0102879
:2088E0000CD0402815D0802804D022E002205849887026E002205649887022E00220564994
:20890000C8700020524981F82E0000205049087017E00020DFF8981848700020DFF8901897
:208920000870FBF72BFC4848006800684649086022E00020DFF8781848700020DFF870188F
:2089400008700020DFF8681848700020DFF8601808703F488078022802D0032806D00BE022
:20896000424A0A21022003F027FD05E0DFF8B8260A21022003F020FD01BD80B53448007829
:208980005A2806D033488079314988705A2030490870DFF81C080078002842D0DFF8100892
:2089A0004078012805D010280FD0402819D0802827D127488078002803D000202449887012
:2089C00002E001202249887023E0214880782249887100201E4981F82E0000201C4908703E
:2089E00017E00020DFF8C81748700020DFF8C0170870FBF7C3FB144800680068124908600D
:208A00001FE00020DFF8A81748700020DFF8A01708700020DFF8981748700020DFF89017C7
:208A200008700B488078002805D0114A0A21032003F0C2FC05E0DFF8F4250A21032003F006
:208A4000BBFC01BD00000000786D0020B4670020586A0020346C0020406C0020BC7E0208AF
:208A6000C47E0208CC7E0208D47E0208DC7E0208F47E0208586D002038B5DFF8080C90F8D5
:208A80002E00002820D10320FCF7DDF80400E4B25A2C0BD10020DFF8F01B0870FBF76EFBD3
:208AA000DFF8E80BDFF8381D0860BBE2E4B2A52C09D10120DFF8CC1B81F82E000020DFF8FD
:208AC000D01B087000E0ADE2DFF8B80B90F82E00012840F09482DFF8AC0B90F82F005A283E
:208AE00020D103F022FE0020DFF8981B48700020DFF8901B88720020DFF8881B81F82F0032
:208B0000DFF8900BC078DFF8201CC870DFF8840B8078DFF8141C8870DFF8780B0079DFF859
:208B2000081C087103F027FFDFF86C2B0221002003F008FCDFF8F40B0078002811D15A2005
:208B4000DFF8401B81F82F000020DFF83C1B087003F0EBFDFBF712FBDFF8300BDFF8801C16
:208B60000860DFF84C060078002800F00A81DFF84006407801280ED0082800F0B7801028DE
:208B800000F0B580202800F0B180402800F0D580802856D0E1E0DFF8F80A007800283ED084
:208BA000DFF8E00A807A002811D1DFF87C0BC078022804DB0020DFF8701BC87040E0DFF8A0
:208BC000680BC078401CDFF8601BC87038E0DFF8B40A807A01280ED1DFF84C0B8078002807
:208BE00004D00020DFF8401B887029E00120DFF8381B887024E0DFF88C0A807A02281FD186
:208C0000DFF8240B0079002804D00020DFF8181B087115E00120DFF8101B087110E0DFF8DE
:208C2000640A807A002807D0DFF8580A807A401EDFF8501A887203E00220DFF8481A8872C9
:208C400093E0DFF84C0A007800283ED0DFF8340A807A002811D1DFF8D00AC078022804DBBB
:208C60000020DFF8C41AC8703FE0DFF8BC0AC078401CDFF8B41AC87037E0DFF8080A807AC0
:208C800001280ED1DFF8A00A8078002804D00020DFF8941A887028E00120DFF88C1A88701C
:208CA00023E0DFF8E009807A02281ED1DFF8780A0079002804D00020DFF86C1A087114E026
:208CC0000120DFF8641A08710FE0DFF8B809807A401CDFF8B0198872DFF8A809807A032881
:208CE00003DB0020DFF89C1988723EE03DE00020DFF8BC1448700020DFF8B4140870DFF828
:208D000090090078002813D00020DFF884190870012006F043FADFF8CC2A0021072003F0CF
:208D200011FBDFF8C42A0021082003F00BFBFEE70120DFF85C19087017E00020DFF87014E4
:208D400048700020DFF868140870FBF717FA0720DFF8301981F82E0064E10020DFF85014DF
:208D600048700020DFF8481408703C20DFF8BC1908700020DFF8381448700020DFF83014BA
:208D80000870DFF80009807A002801D1012500E00025DFF8800B07F09BFBEDB20095DFF862
:208DA000743B0200D2B20021012003F03FFBDFF8D408807A012801D1012500E00025DFF865
:208DC000580B07F085FB0200EDB20095DFF8483BD2B20021022003F029FBDFF8A808807ACA
:208DE000022801D1012500E00025DFF8300B07F06FFBEDB20095DFF8243B0200D2B20021C8
:208E0000032003F013FBDFF82009C078002805D002283BD01ED3032854D06FE0DFF87008E6
:208E20000078002806D0DFF85C08807A002801D1012500E00025DFF8E80A07F049FBEDB2BF
:208E40000095DFF8DC3A0200D2B20821012003F0EDFA53E0DFF838080078002806D0DFF84F
:208E60002408807A002801D1012500E00025DFF8B40A07F02DFBEDB20095DFF8A83A020004
:208E8000D2B20821012003F0D1FA37E0DFF800080078002806D0DFF8EC07807A002801D11C
:208EA000012500E00025DFF8800A07F011FBEDB20095DFF8743A0200D2B20821012003F0A7
:208EC000B5FA1BE0DFF8C8070078002806D0DFF8B407807A002801D1012500E00025DFF844
:208EE0004C0A07F0F5FAEDB20095DFF8403A0200D2B20821012003F099FAFFE7DFF828086E
:208F00008078002802D001281CD037E0DFF880070078002806D0DFF86C07807A012801D120
:208F2000012500E00025DFF8080A07F0D1FAEDB20095DFF8FC390200D2B20821022003F057
